:100000000C949A020C94E1020C94E1020C94E1022B
:100010000C94E1020C94E1020C94E1020C94E102D4
:100020000C94E1020C94E1020C94A6170C94E116D6
:100030000C941C290C94E1020C94E1020C94E10252
:100040000C94E1020C943F290C94E1020C94E1021F
:100050000C94E1020C9425170C94E1020C94E1023B
:100060000C94E1020C94E1020C94E1020C94E10284
:100070000C94E1020C94E1020C94E1020C94E10274
:100080000C94E1020C94E1020C94E1020C94E10264
:100090000C94E1020C94E1020C94E1020C94E10254
:1000A0000C94E1020C94E1020C94E10207634236E5
:1000B000B79BD8A71A39685618AEBAAB558C1D3CF9
:1000C000B7CC5763BD6DEDFD753EF6177231BF00BD
:1000D0000000803F08000000BE922449123EABAAF7
:1000E000AA2ABECDCCCC4C3E00000080BEABAAAA52
:1000F000AA3E00000000BF000000803F000000009A
:1001000000084178D3BB4387D1133D190E3CC3BDD2
:100110004282AD2B3E68EC8276BED98FE1A93E4C7F
:1001200080EFFFBE01C4FF7F3F0000000000000120
:1001300001010101010101010202020202020202A7
:100140000203030303030303030404040404040479
:10015000050505050506060606060707070707083D
:10016000080808090909090A0A0A0B0B0B0C0C0CF0
:100170000D0D0D0E0E0E0F0F0F101011111112128A
:1001800013131414151516161717181819191A1A07
:100190001B1B1C1D1D1E1E1F202021222223242468
:1001A000252626272829292A2B2C2D2D2E2F3031A4
:1001B0003232333435363738393A3B3C3D3E3F40B6
:1001C0004142434445464748494A4C4D4E4F5051A1
:1001D0005354555658595A5B5D5E5F61626465665B
:1001E00068696B6C6D6F7072737577787A7B7D7EE2
:1001F0008082838587888A8C8E8F91939596989A32
:100200009C9EA0A2A3A5A7A9ABADAFB1B3B5B7BA49
:10021000BCBEC0C2C4C6C9CBCDCFD1D4D6D8DBDD1D
:10022000DFE2E4E7E9EBEEF0F3F5F8FAFDFFFFAA11
:100230007F55402223252628292A2C2D2F30323382
:100240003536383A3B3D3E4042434547494A4C4E9D
:100250005051535557595A5C5E6062646668696BC9
:100260006D6F71737577797B7D7F81838587898ACF
:100270008C8E90929496989A9C9E9FA1A3A5A7A8D5
:10028000AAACAEAFB1B3B4B6B8B9BBBCBEBFC1C205
:10029000C3C5C6C7C9CACBCCCDCED0D1D2D2D3D498
:1002A000D5D6D7D7D8D9D9DADADBDBDBDCDCDCDCB6
:1002B000DCDDDDDDDDDCDCDCDCDCDBDBDBDADAD984
:1002C000D9D8D7D7D6D5D4D3D2D2D1D0CECDCCCB06
:1002D000CAC9C7C6C5C3C2C1BFBEBCBBB9B8B6B424
:1002E000B3B1AFAEACAAA8A7A5A3A19F9E9C9A98B4
:1002F000969492908E8C8A89878583817F7D7B7985
:10030000777573716F6D6B6968666462605E5C5A65
:100310005957555351504E4C4A4947454342403E28
:100320003D3B3A3836353332302F2D2C2A292826BA
:1003300025232200AF11500A571757155719570C8C
:100340005702570D5718570E570F57075708571092
:1003500057115712571050C35CC45CA8000100C667
:100360005CC85CCA5C0100C75CC95CCB5C0100AEC8
:1003700000AC00AB0000DA0281FFD9F1DB20A4A6BB
:100380002EAF00A0C000A1C800AED580A81FD3002A
:10039000408D1420001E0F0500047F3F1F6432149F
:1003A000643214783C1E1E140A0500AE0501098053
:1003B000A101850319012AB700150126B70095018F
:1003C00075108100C0050C0901A101850419012ADD
:1003D000A002150126A002950175108100C005013B
:1003E0000906A1018505050719E029E71500250182
:1003F0009508750181020507190029EF15002501EF
:1004000095F0750181020508190129059505750109
:100410009102950175039101C005010906A101052D
:100420000719E029E7150025019508750181029556
:1004300001750881010507190029FF150026FF0035
:1004400095067508810005081901290595057501AE
:100450009102950175039101C009029F00040100FA
:10046000A0FA0904000001030101000921110100A3
:10047000012240000705810308000A090401000168
:1004800003000000092111010001226D000705820F
:100490000320000A080B0202010100000904020007
:1004A0000001010000092401000109000103090401
:1004B000030002010300000724010001410006249B
:1004C00002010100062402020200092403010301C3
:1004D00002010009240302040101010009050402CC
:1004E00040000500000525010101090583024000C7
:1004F000050000052501010312011001000000089C
:10050000504B6B010100010200010C0362006D0001
:10051000310036007300000016034B0050007200DB
:1005200065007000750062006C00690063000000E7
:100530000403090411241FBECFEFDAE0DEBFCDBFF4
:1005400004B603FE27C080917F0990918009A09195
:100550008109B09182098730904BA740B04BD1F40C
:1005600010927F09109280091092810910928209DD
:1005700014BE84B7877F84BF0FB6F894A895809186
:100580006000886180936000109260000FBEE0E020
:10059000F8E3099529E0AAE2B5E001C01D92AF3762
:1005A000B207E1F715E0A0E0B1E0E6E5F2E602C04F
:1005B00005900D92AA32B107D9F70E94E5220C945A
:1005C000E0300C940000CF92DF92EF92FF92E09126
:1005D0007E09EE2309F1E15088E0E802F0011124E0
:1005E000E25CF64FC280D380E480F58020E030E00A
:1005F000A901C701B6010E94292D18166CF480913B
:100600003D09811102C010923C09C701B601FF905B
:10061000EF90DF90CF900895C12CD12C7601F5CFCB
:10062000CF92DF92EF92FF920F931F93CF93DF93BE
:1006300000D00F92CDB7DEB77C01162FD42EC22E7C
:10064000809161088430B9F5E0915608F09157081F
:10065000309709F440C0C701019763E070E00E9441
:10066000D82BCB01880F991F860F971F19834A83B8
:10067000CB824E2D481B9E012F5F3F4FBC018CE368
:1006800098E00995E0915A08F0915B08309739F0AD
:100690000C2D2D2D412FB7018CE398E009950F907B
:1006A0000F900F90DF91CF911F910F91FF90EF90DE
:1006B000DF90CF90089582E0E816F10409F45AC063
:1006C00083E0E816F104A9F081E0E816F10409F4EA
:1006D00084C0F12CE12CE0915808F0915908309732
:1006E00089F20C2D2D2D412FB7018CE398E009954F
:1006F000C9CF862F807F803A11F188F48038D1F0FD
:10070000E0914008F0914108803929F7309719F3BA
:10071000123F49F12C2D4D2D612F6F7027C0803E67
:1007200099F0803FB1F0E0913E08F0913F08803BA6
:1007300091F6ECCFE0914208F0914308E7CFE091C9
:100740004408F0914508E2CFE0914608F09147084F
:10075000DDCF623F09F0BFCFE0914808F091490832
:10076000309709F4B8CF2C2D4D2D62EF8CE398E033
:10077000099588CF862F807F803DB9F0803FD1F0EA
:10078000E0914A08F0914B08803C09F0A4CF3097E3
:1007900009F4A1CF812F8D7F4D2D612F6F70813F87
:1007A000C9F08CE398E009956DCFE0914C08F09189
:1007B0004D08EDCFE0914E08F0914F08633F39F0BE
:1007C000613F09F088CFE0915008F09151083097CF
:1007D00009F481CF4D2D612FE4CFE0915208F091C3
:1007E0005308683F38F4663F09F075CFE09154082C
:1007F000F0915508309709F46ECF612F8CE398E0A3
:10080000099540CFE8EDF0E080818E7F80831092E3
:10081000E2001092DA001092E100A0EEB0E08C91BC
:1008200081608C9380818F77808319BCA7EDB0E0C5
:100830008C918E7F8C9380818F7E808310920808AC
:1008400008952091E4003091E50095E6A9012091FA
:10085000EC00822F817020FF06C08091E80080FFAD
:1008600006C080E008952091E80022FD1AC0809122
:100870003208882389F0853089F08091EB0085FD6E
:100880000FC02091E4003091E50042175307F9F2C0
:100890009150E1F684E0089582E0089583E00895A0
:1008A00081E00895EF92FF920F931F93CF937C0105
:1008B0008B010E942104C82F811117C08091E8008C
:1008C00085FD0BC08091E8008E778093E8000E9440
:1008D0002104882399F3C82F08C0F70181917F0173
:1008E0008093F1000150110949F78C2FCF911F918E
:1008F0000F91FF90EF9008958091340887FF13C007
:100900008091E80082FF06C08091E8008B77809399
:10091000E80004C0809132088111F2CF08958091DF
:1009200032088823D9F38091E80080FFF8CF8091C6
:10093000E8008E77ECCF982F9093E900242F762F44
:1009400050E0891731F07091EC002091ED0050914A
:10095000F00021FD07C09F5F973071F78093E90099
:1009600081E008953091EB003E7F3093EB003091B1
:10097000ED003D7F3093ED003091EB00316030931E
:10098000EB007093EC002093ED005093F000209169
:10099000EE0027FDE0CF80E00895CF92DF92EF9246
:1009A000FF920F931F93CF93DF93C8EDD0E0888120
:1009B0008F7E8883E7EDF0E080818160808384E032
:1009C00082BF81E08093080888818E7F888302EE51
:1009D00010E0F80110821092DA0081EEC82ED12CBE
:1009E000F601108288818F77888388818068888368
:1009F00088818F7D888319BC109232081092330849
:100A0000109231081092300890EEE92EF12CF70187
:100A100080818B7F808388818160888342E060E071
:100A200080E00E949B04F60180818E7F8083F80124
:100A3000808181608083808188608083F7018081EC
:100A40008E7F8083888180618883DF91CF911F9121
:100A50000F91FF90EF90DF90CF900895FC0180916F
:100A60003A0890913B0886179707A0F06115710529
:100A700029F49091E8009E779093E80090E061154A
:100A8000710551F4911108C08091E80082FF34C0D3
:100A900080E00895BC01F2CF809132088823C1F133
:100AA0008530C1F18091E80083FD30C08091E8007D
:100AB00082FDEACF8091E80080FFE1CF8091F300D2
:100AC0002091F200382F6115710519F02830310599
:100AD00058F091E02830310509F090E02091E800CD
:100AE0002E772093E800CBCF81918093F100615065
:100AF00071092F5F3F4FE7CF80913208882341F083
:100B0000853041F08091E80083FFBECF81E00895F9
:100B100082E0089583E00895089580E0089508959F
:100B2000089580910F080895982F907F903BE9F0E9
:100B300040F49039D1F0903AC1F09038B1F080E0B3
:100B40000895903D19F020F4903CC9F782E0089593
:100B5000903E59F0903F99F7815F8F3080F7E82FF2
:100B6000F0E0E550FB4F8081089583E00895DF9227
:100B7000EF92FF920F931F93CF93DF9300D000D09B
:100B8000CDB7DEB77B01142FD22E4A832B830C8383
:100B9000842F0E949405811141C082E0E816F1047F
:100BA000C1F183E0E816F10439F0EA94EF2829F561
:100BB000173F29F485E004C087E0073F09F084E08F
:100BC0008983809132088430C1F4809189048F70C8
:100BD0008093E90050E040E064E070E0CE010196CF
:100BE0000E945204811109C08091E80085FD05C072
:100BF0008091E8008E778093E8000F900F900F901F
:100C00000F90DF91CF911F910F91FF90EF90DF90A8
:100C1000089587EFD812D3CF86E0D2CF12951F70F8
:100C20001983CFCFCF92DF92EF92FF920F931F9352
:100C3000CF93DF9300D000D000D00F92CDB7DEB7B6
:100C40008C0108511F4F80913208843009F087C011
:100C500080918E048F708093E9008091E80082FF7C
:100C60007EC08091E80085FF7AC00E942104811136
:100C700013C084E0E82EF12CCE0101966C01809126
:100C8000E80085FD61C08091E8008B778093E800E3
:100C90000E942104882399F38091E80085FD05C016
:100CA0008091E8008B778093E800FA808F2D0E9476
:100CB0009405282FFD828B818E838C818F83211157
:100CC0000BC08981843041F1873031F1863031F1B8
:100CD00021E0853009F0B7CF30E0E5E0F0E0EC0F3F
:100CE000FD1FE30FF11DF0804FB7F894D801119666
:100CF000EC911197F0E0CF01019612966C9170E0A3
:100D00000E94EC2BD8015C915817190649F44FBF8B
:100D10003F5F321710F397CF23E0DECF22E0DCCF26
:100D200013968D919C911497E80FF91FF0821196FC
:100D30008C91119790E0019612966C9170E00E9450
:100D4000EC2BF8018183E3CF8091F100D6018D93E4
:100D50006D01B1E0EB1AF10809F091CF9DCF279614
:100D60000FB6F894DEBF0FBECDBFDF91CF911F91BC
:100D70000F91FF90EF90DF90CF9008959C014FB7B7
:100D8000F8948091B0059091B105A091B205B09111
:100D9000B3054FBF821B930B08952FB7F894609152
:100DA000B0057091B1058091B2059091B3052FBF48
:100DB000089580959091AB0598239093AB05089585
:100DC0008091AB059091C705892B9091AA05892B3D
:100DD00080932C05E091B705F091B805309799F014
:100DE00090919E04992349F09091B40597FF05C016
:100DF00080932D0585E080932C050280F381E02D02
:100E00008CE295E00994089590919E049923D1F085
:100E10009091B40597FF16C0E82FE695E695E69504
:100E2000EE31E0F4F0E0E45DFA4F282F277081E026
:100E300090E001C0880F2A95EAF780959281892376
:100E400082830895EEE2F5E09191891303C0DF01FA
:100E500011971C9295E0E433F907B1F7089590914A
:100E60009E049923C1F09091B40597FF14C0E82F18
:100E7000E695E695E695EE31F8F4F0E0E45DFA4F9C
:100E8000877021E030E001C0220F8A95EAF7828165
:100E9000822B82830895AEE2B5E0EFEF90E02D91D2
:100EA000821751F0EF3F19F4211101C0E92F9F5F24
:100EB0009630A9F7EF3F09F408950E2E000CFF0BB2
:100EC000E45DFA4FE6CF990F990F890F982F97702D
:100ED00086958695869525E0829FF0011124E0563F
:100EE000FA4F50E040E080E0219130E0092E02C04E
:100EF000369527950A94E2F721703327042E01C016
:100F0000220F0A94EAF7822B4F5F5F4F453051055D
:100F100059F70895990F990F890F982F977041E00D
:100F200001C0440F9A95EAF786958695869595E0D7
:100F3000899FF0011124E056FA4F30E020E070E084
:100F40005191DF011197CB01022E02C09695879532
:100F50000A94E2F7817081958527842385278C93F5
:100F60002F5F3F4F2530310559F70895882321F031
:100F70000E94D9060C94E0060895882339F09091D8
:100F8000AB05982B9093AB050C94E0060895209147
:100F90009A0530919B052817390771F090939B05AE
:100FA00080939A05E091B705F091B805309721F04C
:100FB0000084F185E02D09940895209198053091E1
:100FC00099052817390771F0909399058093980532
:100FD000E091B705F091B805309721F00680F781D0
:100FE000E02D0994089590E080E00E94DD0790E0F4
:100FF00080E00E94C7071092C7051092AA050C94C2
:10100000E0066093AC057093AD058093AE059093B8
:10101000AF050C94F307E091B705F091B805309750
:1010200021F00190F081E02D099480E0089588235B
:1010300009F44BC0823871F40E940B0881FF45C04F
:1010400089E30E942F070E94E00689E30E940407BB
:101050000C94E006833859F40E940B0880FF35C0D9
:1010600083E50E942F070E94E00683E5EFCF8438D6
:1010700059F40E940B0882FF28C087E40E942F07C2
:101080000E94E00687E4E2CF9CEF980F913AF0F2DD
:1010900090E2980F983050F4877091E001C0990F5A
:1010A0008A95EAF7892F0E94D906D2CF9BE5980F3F
:1010B000933020F490E080E00C94DD07885A87316B
:1010C00020F490E080E00C94C7070895CF93DF935D
:1010D000EC0181E0898B8091AB059F81892B809306
:1010E000AB058091C7059885892B8093C7050E9421
:1010F000E006EA81FB81309739F06C897D89CE0169
:101100000696DF91CF910994DF91CF910895EF92E8
:10111000FF920F931F93CF93DF93EC018A85811188
:1011200039C0EB80FC8087E5F81A26E12E9DC001CE
:101130002F9D900D1124DC01AD5BBD4F1496ED91F8
:10114000FC911597309731F054966D917C91875BA7
:101150009D4F099586E18E9D80018F9D100D112474
:101160000D5B1D4FF80187810E94D906F80180852B
:10117000982F90958091C70589238093C7050E9479
:10118000E006188219861B861E821D8210929D051C
:1011900010929C05DF91CF911F910F91FF90EF90DE
:1011A0000895FA01811101C0FB0109948091090899
:1011B000982F9E7F29F4817082608093090808959A
:1011C0008635E8F381708465F8CFAF92BF92DF92E5
:1011D000EF92FF920F931F93CF93DF93082F162F59
:1011E000E901E42FF0E0E25DFE4F611110C0E491EF
:1011F0005E2F4E2F4983E8835A83DF91CF911F9151
:101200000F91FF90EF90DF90BF90AF900895E62E82
:10121000F12C4491D42EE42FF0E026E0829FC0010F
:1012200011242FEF30E0B9010E94D82B802F90E0DD
:10123000880F991F55E5569FD001579FB00D112477
:101240008A1B9B0B982F990F890F5901AE18BF0865
:10125000AE9ED001AF9EB00DBE9EB00D11245B2F8F
:10126000189F80011124012F11275901A01AB10ADA
:10127000AE9E8001AF9E100DBE9E100D112459012F
:10128000A81AB108AE9CC001AF9C900DBE9C900DF9
:101290001124892F9927281B390B2E9FC0012F9FBE
:1012A000900D3E9F900D1124E92F62307105A1F041
:1012B00050F46115710509F49DCF6130710581F01D
:1012C000EB2F512F97CF6430710569F080F06630B5
:1012D000710509F48FCFF4CFE42F4B2F592F8ACF0C
:1012E000E42F412F87CFEB2F542F492F83CF4B2F44
:1012F0005D2DE12F7FCFEFE6F0E080818D7F808351
:10130000E0E8F0E080818F7380830895CF92DF92D0
:10131000EF92FF926B017C0120E030E0A9010E9476
:10132000292D81110AC0809180008F7380938000E5
:10133000FF90EF90DF90CF900895809180008068BB
:1013400080938000C0924D05D0924E05E0924F05EB
:10135000F092500520E030E040E051E4C701B601D2
:101360000E94812E9B01AC0160E074E284E79BE463
:101370000E942E2D6B017C010E94A02D709387008E
:101380006093860020E030E048E452E4C701B601F3
:101390000E94812E20E030E048EC52E40E942E2D85
:1013A0000E94A02D7093890060938800C1CF809126
:1013B0009C01811122C010927E090E947B0910922B
:1013C00038091092390910922D0910922C09EEE378
:1013D000F9E080E090E0A0E8BFEB11821082828308
:1013E0009383A483B58317821682389629E0EE375B
:1013F000F20799F781E080939C010895F894E82F13
:10140000E295EF70F0E031A1282F2F7081E090E09D
:1014100001C0880F2A95EAF7982F9095932391A3FE
:1014200092A1892B82A37894089524E0829FC00121
:101430001124FC01E70FF11DEE0FFF1FEE0FFF1F40
:10144000E60FF11DEE0FFF1FEB5CFC4F2591349171
:10145000C9012238310591F1C0F52133310509F474
:1014600090C028F52932310509F484C02A323105AB
:1014700009F48EC0211540E5340708F09DC0211500
:1014800040E4340708F01FC12F3B310508F087C046
:10149000283A310508F00CC1253A310508F0FFC0A3
:1014A0002430310500F521303105E9F03CC0253309
:1014B000310509F458C029333105E1F62091B4050E
:1014C000237089F080EE90E00895233E310571F19C
:1014D00058F4203E3105E9F0223E310559F62091BD
:1014E000B40522FD1EC00895263E310551F1273E68
:1014F000310571F1243E310509F0BCCF2091B505CD
:1015000021FFF1CF8091B40584FD0DC087EE90E0FE
:1015100008952091B40520FD05C13091B50530FF37
:10152000E2CF24FF02C190E080E0DDCF2091B4053E
:1015300022FDFEC03091B50530FDC4CF24FFD3CFCE
:10154000F2CF2091B40523FFCECF24FDECCFDECF28
:101550002091B40523FDEFC03091B50531FFEECFEA
:1015600084EE90E008952091B40525FFBCCF89E278
:1015700090E008952091B40525FFB5CF85E390E074
:1015800008952091B40526FFAECF8AE290E0089539
:101590002091B40526FFA7CF81E390E00895213E76
:1015A000310508F2283E310508F49DCF3A95211502
:1015B0003F4108F498CFB7CF211583E5380738F5B8
:1015C000211542E5340708F087C0211581E5380769
:1015D00008F07DC0C90164E0969587956A95E1F7AA
:1015E000382F3370822F86958695837040E2849FD2
:1015F000C0011124932B237041E050E002C0440F3E
:10160000551F2A95E2F7842B952B9C680895211588
:1016100049E53407F0F4211588E5380708F06FC074
:10162000211544E5340708F07ECFA9014370552702
:1016300081E090E002C0880F991F4A95E2F7269555
:10164000269540E2249F90011124822B932B9A68C7
:10165000089521158AE5380708F065CF822F8F702D
:101660004091B40542FF05C023FF4EC0822F877012
:1016700084609091B50590FF07C0982F98719830BD
:1016800009F048C0877F816044FD877E94E03695ED
:1016900027959A95E1F72F70922F90690895255A12
:1016A000E22FF0E0E653FB4F808190E090640895D4
:1016B000285AE22FF0E0EE0FFF1FE353FB4F80812B
:1016C000918194640895C9019F70906A0895922F42
:1016D0008827816F906A0895A9014370552781E09A
:1016E00090E002C0880F991F4A95E2F7269526954B
:1016F00040E2249F90011124822B932B86CF922FBE
:101700008827806F906A089522FFB3CF822F8B7055
:101710008860AFCF982F9171913009F0B5CF8E7F4F
:101720008860B2CF89E390E0089583EE90E0089559
:1017300082EE90E0089586EE90E00895BF92CF92F9
:10174000DF92EF92FF920F931F93CF93DF938C0161
:10175000C090D005D090D105E090D205F090D3058F
:101760008091AC059091AD05A091AE05B091AF050B
:10177000C82AD92AEA2AFB2ACFE1D0E0BC2ED70119
:10178000C6010C2E04C0B695A795979587950A9427
:10179000D2F780FD0EC0219788F7B12C8B2DDF91F9
:1017A000CF911F910F91FF90EF90DF90CF90BF905E
:1017B0000895B8018C2F0E94150A019761F3EECFAE
:1017C000CF92DF92EF92FF926C01EE24FF2420E093
:1017D000C114D104E104F10419F0C701B60120E1FC
:1017E000C72ED82EE92EFF24C114D104E104F10440
:1017F00019F0285FC701B6016B017C0154E0F69433
:10180000E794D794C7945A95D1F7C114D104E10451
:10181000F10419F02C5FC701B6016B017C0142E0B5
:10182000F694E794D794C7944A95D1F7C114D1049C
:10183000E104F10419F02E5FC701B6019695879572
:1018400077956795672B682B692B09F02F5F822F9F
:10185000FF90EF90DF90CF900895FC018081813060
:1018600021F48AE1809380040895823011F484E3A6
:10187000F9CF8330C9F78EE4F5CFFC018081813048
:1018800021F489E1809380040895823011F483E388
:10189000F9CF8330C9F78DE4F5CFFC018081813029
:1018A00021F488E1809380040895823011F482E36A
:1018B000F9CF8330C9F78CE4F5CFFC01808181300A
:1018C00021F487E1809380040895823011F481E34C
:1018D000F9CF8330C9F78BE4F5CFFC0180818130EB
:1018E00021F486E1809380040895823011F480E32E
:1018F000F9CF8330C9F78AE4F5CFFC0180818130CC
:1019000021F485E1809380040895823011F48FE200
:10191000F9CF8330C9F789E4F5CFFC0180818130AC
:1019200021F484E1809380040895823011F48EE2E2
:10193000F9CF8330C9F788E4F5CFFC01808181308D
:1019400021F483E1809380040895823011F48DE2C4
:10195000F9CF8330C9F787E4F5CFFC01808181306E
:1019600021F482E1809380040895823011F48CE2A6
:10197000F9CF8330C9F786E4F5CFFC01808181304F
:1019800021F481E1809380040895823011F48BE288
:10199000F9CF8330C9F785E4F5CFFC018081813030
:1019A00021F480E1809380040895823011F48AE26A
:1019B000F9CF8330C9F784E4F5CFFC018081813011
:1019C00021F48FE0809380040895823011F489E23D
:1019D000F9CF8330C9F783E4F5CFFC0180818130F2
:1019E00021F48EE0809380040895823011F488E21F
:1019F000F9CF8330C9F782E4F5CFFC0180818130D3
:101A000021F48DE0809380040895823011F487E200
:101A1000F9CF8330C9F781E4F5CFFC0180818130B3
:101A200021F48CE0809380040895823011F486E2E2
:101A3000F9CF8330C9F780E4F5CFFC018081813094
:101A400021F48BE0809380040895823011F485E2C4
:101A5000F9CF8330C9F78FE3F5CFFC018081813066
:101A600021F48AE0809380040895823011F484E2A6
:101A7000F9CF8330C9F78EE3F5CFFC018081813047
:101A800021F489E0809380040895823011F483E288
:101A9000F9CF8330C9F78DE3F5CFFC018081813028
:101AA00021F488E0809380040895823011F482E26A
:101AB000F9CF8330C9F78CE3F5CFFC018081813009
:101AC00021F487E0809380040895823011F481E24C
:101AD000F9CF8330C9F78BE3F5CFFC0180818130EA
:101AE00021F486E0809380040895823011F480E22E
:101AF000F9CF8330C9F78AE3F5CFFC0180818130CB
:101B000021F485E0809380040895823011F48FE100
:101B1000F9CF8330C9F789E3F5CFFC0180818130AB
:101B200021F484E0809380040895823011F48EE1E2
:101B3000F9CF8330C9F788E3F5CFFC01808181308C
:101B400021F483E0809380040895823011F48DE1C4
:101B5000F9CF8330C9F787E3F5CFFC01808181306D
:101B600021F482E0809380040895823011F48CE1A6
:101B7000F9CF8330C9F786E3F5CFFC01808181304E
:101B800019F4809380040895823011F48BE1F9CF29
:101B90008330C9F785E3F5CFCF92DF92EF92FF92C2
:101BA0000F931F93CF93DF936C017B0164E670E08A
:101BB00088E70E94E92AEC0197FD12C010E000E0DE
:101BC000F601E00FF11F849164E670E00E94452B5E
:101BD000EC01892B29F40F5F1F4F0E151F0581F7AC
:101BE0000E94C82BCE01DF91CF911F910F91FF90E2
:101BF000EF90DF90CF900895CF93C091000880912F
:101C000001088823D1F00E94CD06605A75418F4F9C
:101C10009F4F6093FC077093FD078093FE0790939E
:101C2000FF07C11108C062E070E083E393E00E9407
:101C3000CC0D892B29F0C09100088C2FCF910895ED
:101C400081E080930008F7CF1092AB0580919E044D
:101C5000EEE2F5E0882359F08091B40587FF07C0D4
:101C60008EE1DF011D928A95E9F70C94F30786E077
:101C7000F8CF1F93CF93DF93CDB7DEB7AA970FB6F8
:101C8000F894DEBF0FBECDBF84E398E02091F10051
:101C9000FC012193CF01F8E08C339F07B9F78091C5
:101CA0003508833009F46FC0B8F4813009F446C0B8
:101CB000823009F4B0C08091E80083FF85C2809132
:101CC0003408909135089A3008F07EC2E92FF0E090
:101CD000EE51FF4C0C94002C8A3009F48BC08B30F1
:101CE00009F46EC0893039F780913408813219F7D0
:101CF00080913808909139080297E8F68091E800C1
:101D0000877F8093E8008091E80082FF37C0909140
:101D1000F3008091F200029729F48091F1008B7F0B
:101D2000813021F48091F10080930F088091E800C8
:101D30008B778093E8000E947C04BDCF80913408AB
:101D4000813A09F0B8CF8091E800877F8093E8005E
:101D50008091380890913908892B61F460E280E124
:101D600098E070E00E942E058091E8008B778093C8
:101D7000E800A1CF60E090E080E0F3CF80913208EE
:101D80008111C1CF98CF80913408813A09F093CF67
:101D90008091380890913908892B09F08CCF809177
:101DA000E800877F8093E8008091E80080FFFCCF07
:101DB00080919E048093F1008091E8008E77B9CFE6
:101DC00080913408813209F076CF80913808909163
:101DD0003908892B09F06FCF8091E800877F8093C5
:101DE000E8000E947C048091360880939E040E9443
:101DF000240E61CF80913408813209F05CCF80914C
:101E0000E800877F8093E8000E947C048091370877
:101E100080930E0850CF80913408813A09F04BCF5F
:101E20008091E800877F8093E8008091E80080FF40
:101E3000FCCF80910E08BECF803899F0823809F02F
:101E4000C3C1809138088F70873008F0BDC180937E
:101E5000E9008091EB0085FB882780F91092E9006A
:101E600006C0809130089091310891118260909164
:101E7000E800977F9093E8008093F1001092F100C2
:101E80008091E8008E779CC1882309F48AC1823052
:101E900009F09AC18091360881118DC1809138086E
:101EA0008F702FEF280F263008F08EC18093E90045
:101EB0002091EB0020FF7FC1933031F48091EB0043
:101EC00080628093EB0077C19091EB0090619093DA
:101ED000EB0021E030E001C0220F8A95EAF7209361
:101EE000EA001092EA008091EB008860EACF81114D
:101EF0006BC1109136081F778091E3008078812BA9
:101F00008093E3008091E800877F8093E8000E943F
:101F10007C048091E80080FFFCCF8091E300806822
:101F20008093E30082E0111183E0809332084CC17A
:101F30008058823008F048C1809136089091370867
:101F40008C3D23E09207A1F583E08A838AE28983AE
:101F50004FB7F894DE01139620E03EE051E2E32F04
:101F6000F0E050935700E49120FF03C0E295EF703A
:101F70003F5FEF708E2F90E0EA30C0F0C7968D93F0
:101F80009D932F5F243159F74FBF8091E800877FE1
:101F90008093E8006AE270E0CE0101960E942E056F
:101FA0008091E8008B778093E8000EC1C096E7CF60
:101FB0004091380850913908292F332723303105B3
:101FC00009F444C078F52130310509F46FC08FE978
:101FD00090E0E9E5F4E02230310509F0F5C0209108
:101FE000E800277F2093E80020913A0830913B08D1
:101FF0008217930708F49C0140E02115310509F090
:1020000064C0411162C08091E80082FDC9CF809117
:102010003208882329F2853019F28091E80083FF85
:10202000F2CFBECF21323105A9F12232310509F0BC
:10203000CBC04115510509F443C04130510509F0A9
:10204000C3C08DE690E0ECEAF3E0C9CF9927813078
:102050009105C1F0009759F0029709F0B5C0EAE088
:10206000F5E0E4918E2F90E0EAE0F5E007C0E0E3D0
:10207000F5E0E4918E2F90E0E0E3F5E0009709F4BD
:10208000A3C0ADCFE8E1F5E0E4918E2F90E0E8E168
:10209000F5E0F4CF4115510571F04130510509F0DB
:1020A00093C089E090E0E4E8F4E099CF82E190E029
:1020B000E8EFF4E094CF89E090E0EBE6F4E08FCF36
:1020C00080E490E0E9E1F4E08ACF8091320888234F
:1020D00009F466CF853009F463CF8091E80083FD71
:1020E0005FCF8091E80082FD8ECF8091E80080FF75
:1020F00084CF9091F3008091F2002115310519F001
:102100008830910550F041E0089709F040E0809157
:10211000E8008E778093E80070CF44914093F100FF
:102120003196215031090196E8CF803809F04CC032
:102130008091E800877F8093E80080913308809346
:10214000F1009ECE811140C0109136081230E0F5AA
:102150008091E800877F8093E800109333080E9405
:102160007C04112311F084E005C08091E30087FD19
:10217000FACF81E08093320842E061EC81E00E9476
:102180009B0442E261EC82E00E949B0442E361E82E
:1021900083E00E949B0442E361E884E00E949B0488
:1021A00013C080913608813079F481E0933009F0D2
:1021B00080E0809331081092E9008091E800877FE9
:1021C0008093E8000E947C048091E80083FF0AC0AD
:1021D0008091E800877F8093E8008091EB00806227
:1021E0008093EB00AA960FB6F894DEBF0FBECDBF6A
:1021F000DF91CF911F9108950F931F9341E050E01D
:1022000060E070E08A019B0104C0000F111F221FD3
:10221000331F8A95D2F7C901B8010E9401081F91A6
:102220000F910C94240ECF93DF9300D00F92CDB773
:10223000DEB790913208943019F589837B836A83E5
:1022400082E08093E9008FEF9091E800815095FD46
:1022500006C095ED9A95F1F700008111F5CF8091B8
:10226000E80085FF0DC050E040E063E070E0CE0183
:1022700001960E9452048091E8008E778093E800D6
:102280000F900F900F90DF91CF910895BC0184E0E3
:102290000C941311BC0183E00C941311CF93DF93C2
:1022A000EC0180919E048823B1F18091B40587FFF1
:1022B00032C060E282E08093E9008FEF9091E80005
:1022C000815095FD06C095ED9A95F1F700008111BA
:1022D000F5CF8091E80085FF1BC080919E0470E0DF
:1022E00050E040E0811104C050E040E068E070E060
:1022F000CE010E9452048091E8008E778093E8001E
:1023000080E2FE01A0E1B8E001900D928A95E1F72C
:10231000DF91CF91089568E081E0CDCF80910908E9
:1023200080FD0AC0E8E5F5E0118210821282339642
:1023300055E0E037F507C1F7849A31B33F7E21B30A
:1023400020614FB7F89488E595E0FC015191CF01E9
:1023500068E021BB000000C057FF31BB550F0000F3
:1023600000C000C000C031BB00C06A9591F7F5E025
:1023700080379F0751F74FBF8FE594E00197F1F742
:1023800000C0000008954F925F926F927F928F92EB
:102390009F92AF92BF92CF92DF92EF92FF920F93F4
:1023A0001F93CF93DF93FC016280448081E084839C
:1023B000E3E3F2E07490E2EBF2E0E491C0E7D5E011
:1023C00038E5E32E35E0F32E48E9C42E45E0D42E5F
:1023D00052E0A52EBB24B39488248A94912C5524D2
:1023E0005A94E7190E2F10E082E0861530F08091A4
:1023F0000A08888380910B088983411021C01B82C1
:102400001A8297014A81698188810E94E508259690
:1024100083E0E80EF11CCC16DD0631F7DF91CF9199
:102420001F910F91FF90EF90DF90CF90BF90AF90F2
:102430009F908F907F906F905F904F900C948E1133
:102440008B818823E9F081508B83859DC001112405
:102450006C8170E00E94D82BFB01FF27ED5CFD4FE3
:102460008491E82FE719E59DC0011124B8010E946D
:10247000D82B80910C08689FB00111247A83C1CFBA
:102480000E94612C20910C08269521582A9DA001BC
:102490002B9D500D1124452F5527841795070CF0BF
:1024A000B0CF82E0861588F40E94612CB4010E94AE
:1024B000EC2B88830E94612C20910B082695622FBB
:1024C00070E00E94EC2B280F29831A8280910C085F
:1024D000893C20F088EC8C838B8393CF8431D8F7B0
:1024E00084E1F9CFEF92FF921F93CF93DF93EC013A
:1024F00088E5E82E85E0F82E10E08C819701409168
:102500000C0860910B08810F0E94E508115E83E0C2
:10251000E80EF11C183F89F70E948E119A818C8178
:1025200090FF08C08F5F8C83DF91CF911F91FF9048
:10253000EF9008958150F7CFCF92DF92EF92FF9204
:102540000F931F93CF93DF93FC018281DD24DA94F4
:1025500080FD02C0DD24D394C8E5D5E010E000E0A2
:10256000198218821A8294E0E92EF12CC12C8091F4
:1025700055058C0D8930CCF18770082E000C990B15
:102580008017910791F480910C088E9DA0018F9D7A
:10259000500D112455954795559547959E0160918D
:1025A0000B0880910A080E94E508CD0CF1E0EF1AB3
:1025B000F108E9F60F5F1F4F23960830110581F6E9
:1025C0000E948E118091550591E0D91214C081119D
:1025D00010C087E080935505DF91CF911F910F9137
:1025E000FF90EF90DF90CF90089587FFC6CF885F70
:1025F000C4CF8150EFCF90E0019687709927EACF42
:102600000F931F93CF93DF93C8E5D5E0FE011182AE
:1026100010821282339685E0E037F807C1F710E0A8
:1026200000E080915605082E000C990B0817190739
:102630008CF18091A901082E000C990B801791074D
:102640004CF19E0140910C0860910B0880910A08A2
:102650000E94E5080F5F1F4F23960830110509F708
:102660000E948E118091A80190915605980F909329
:1026700056052091A901280F2093A901121614F4E0
:1026800097301CF081958093A801DF91CF911F9125
:102690000F910895198218821A82DCCF8F929F922F
:1026A000AF92BF92CF92DF92EF92FF920F931F9360
:1026B000CF93DF93EC014C81042F10E09801D801F7
:1026C0000E941A2D9B01AC010E94E52C4B015C017C
:1026D000E0E2F0E0E01BF10BA5E5B0E0AC019B010E
:1026E0000E94E52C6B017C019F01DF010E94062CFA
:1026F0009B01AC010E94F02C9B01AC01280D391DFF
:102700004A1D5B1DC701B6010E94F82CF22E822FD4
:1027100090E039E23F15D8F143E0249F9001112465
:1027200035952795122F109598E5C92E95E0D92E4D
:1027300000E085E5E82EEF188E2D01FD8F2D960126
:10274000412F60910B080E94E5080F5F53E0C50E12
:10275000D11C083089F70E948E119C8181E0992359
:1027600019F0903219F48FEF8093AA018091AA0199
:10277000890F8C83DF91CF911F910F91FF90EF9084
:10278000DF90CF90BF90AF909F908F90089525E5F8
:1027900030E0A901481B590BCA019A01220F331FCF
:1027A000280F391F37FFBCCF2F5F3F4FB9CFEF92B4
:1027B000FF920F931F93CF93DF938C01C8E5D5E071
:1027C000F12CE12CF801948160910B0880910A08AA
:1027D000F4E0EF16F104FCF49923F9F09E01409126
:1027E0000C080E94E5082FEFE21AF20A239688E00F
:1027F000E816F10439F70E948E11F801848190E007
:102800000196817099278483DF91CF911F910F9159
:10281000FF90EF900895992309F39E0140E0E1CFE6
:102820009091090890FF0CC0E8E5F5E08183608392
:102830004283339695E0E037F907C1F70C948E1187
:1028400008950F931F93CF93DF9300D00F92CDB7CE
:10285000DEB78C018091570581110AC09E012F5F60
:102860003F4F4FEF6FEF0E94E5088A818093570535
:10287000F8016481613069F08091570540E066237A
:1028800061F040E0623011F44091570580E060E073
:1028900004C06091570540E080E00E941014F801E8
:1028A000848190E0019663E070E00E94EC2B8483C9
:1028B0000F900F900F90DF91CF911F910F9108957E
:1028C000CF93DF9300D00F92CDB7DEB79091090878
:1028D00090FF0AC09E012F5F3F4F0E94E5084B8189
:1028E00069818A810E9410140F900F900F90DF91E0
:1028F000CF910895CF93DF93EC01EC81F0E0ED5C94
:10290000FD4F4491E9E0F8E0628181810E9460140A
:102910008C818F5F8C83DF91CF910895CF93DF936C
:10292000EC01E9E0F8E0438162818C810E9460144F
:102930008C818F5F8C83DF91CF910895CF9384E05A
:1029400090E00E947E2CC82F82E290E00E947E2CB4
:10295000982F8C2FCF910895CF92DF92EF92FF9214
:102960006B017C010E94D608B701A60188E090E0C7
:10297000FF90EF90DF90CF900C94A42C7F928F92D9
:102980009F92AF92BF92CF92DF92EF92FF920F93FE
:102990001F93CF93DF9300D00F92CDB7DEB7182FE0
:1029A000D62E042FC22E9091090890FF29C0E92F3E
:1029B000E695AE2FB0E0A156BB4F8C918093CE052B
:1029C0009E7F923071F59E012F5F3F4F812F0E94B5
:1029D000E5084B8169818A810E94101410930A08CE
:1029E000D0920B0800930C08CC2051F0609109089C
:1029F00070910A0880910B0890910C080E94AC1409
:102A00000F900F900F90DF91CF911F910F91FF903A
:102A1000EF90DF90CF90BF90AF909F908F907F907E
:102A20000895823019F400910C08D8CF863019F43B
:102A300010910A08D3CF8930D9F3893179F6E95159
:102A40002E2F2170722EE695F0E0E25DFD4F85900D
:102A50009490992438E5E32E35E0F32EB12CA12C87
:102A6000C50123E0969587952A95E1F7711013C06B
:102A7000810F9701402F6D2D0E94E508A80CB91C0D
:102A800083E0E80EF11C20E7E21625E0F20641F7AC
:102A90000E948E11A3CF212F281B822FEACFE9E0BD
:102AA000F8E0438128E0421B08F440E021E0628125
:102AB00081810C94BE14E9E0F8E0438128E0420FE4
:102AC00008F44FEF21E0628181810C94BE14E9E0AB
:102AD000F8E0628128E0621B08F460E021E04381B5
:102AE00081810C94BE14E9E0F8E0628128E0620F75
:102AF00008F46FEF21E0438181810C94BE14E9E07A
:102B0000F8E0818121E04381628188500C94BE14F9
:102B1000E9E0F8E0818121E043816281885F0C94E3
:102B2000BE1480910D08882319F0815080930D0800
:102B30006091090870910A0880910B0890910C0827
:102B40000C94AC1480910D08833018F48F5F80933F
:102B50000D086091090870910A0880910B08909106
:102B60000C080C94AC14E9E0F8E083E08083118257
:102B70008FEF82838383148260817181828193814C
:102B80000C94AC146AEE7EEF90E080E00E94B02CD2
:102B900060E082E090E00E94922C60E083E090E0B0
:102BA0000E94922C1092AC051092AD051092AE05C9
:102BB0001092AF0560E084E090E00E94922C60E00B
:102BC00082E290E00E94922C60E085E090E00E941A
:102BD000922C60E086E090E00E94922C6FEF87E0FC
:102BE00090E00E94922C40E050E0BA0188E090E032
:102BF0000E94A42C60E08DE090E00E94922C40E0C6
:102C000050E0BA0188E190E00E94A42C60E087E1E6
:102C100090E00E94922C40E050E0BA018CE190E0FC
:102C20000E94A42C70E060E080E290E00E94B02C52
:102C300040E050E0BA0188E190E00E94A42C40E01E
:102C400050E0BA018FE090E00E94A42C40E050E0F8
:102C5000BA0183E190E00C94A42C80913A0981118F
:102C600034C090E080E00E948C2C8A3E9E4F11F090
:102C70000E94C21587E090E00E947E2C80933B0961
:102C8000EEE3F9E080E090E0A0E8BFEB1182108273
:102C900082839383A483B58317821682389629E0B2
:102CA000EE37F20799F780913A0981110CC00E9422
:102CB0007B09259A82E0809380008AE180938100DD
:102CC00081E080933A090C94D7090895CF92DF925E
:102CD000EF92FF920F931F93CF93DF936B017C01D1
:102CE00020E030E0A9010E94292D87FF04C0F7FAF7
:102CF000F094F7F8F09480913909882309F458C0CA
:102D000080913A09811102C00E942D160EE319E04C
:102D1000C7E0D0E0A7019601F80162AD73AD84ADC4
:102D200095AD0E94292D81113CC083E0CC0FDD1FA1
:102D30008A95E1F7C25CD64F1982188280E090E054
:102D4000A0E8BFEB8A839B83AC83BD831F821E8276
:102D5000AC01BD01F9E0C637DF0789F4C1E0C093DB
:102D60004C0580917E09815080937E09811120C09D
:102D70000E947B09C0939C011092390919C088E018
:102D8000FE013896DE0101900D928A95E1F71986D1
:102D900018864A875B876C877D871F861E862896E4
:102DA000D9CF219708501109CF3FDC0709F0B2CFE6
:102DB000DF91CF911F910F91FF90EF90DF90CF9017
:102DC00008951F920F920FB60F9211242F933F93E5
:102DD0004F935F936F937F938F939F93AF93BF9323
:102DE000CF93DF93EF93FF93D091E900DF70809151
:102DF000EC00C82FC17080FDC0E81092E9008091FE
:102E0000F000877F8093F00078940E94390E109232
:102E1000E9008091F00088608093F000CD2BCF70A6
:102E2000C093E900FF91EF91DF91CF91BF91AF91F6
:102E30009F918F917F916F915F914F913F912F91D2
:102E40000F900FBE0F901F90189578941F921FB689
:102E50001F9211248F939F93AF93BF938091B005DE
:102E60009091B105A091B205B091B3050196A11D55
:102E7000B11D8093B0059093B105A093B205B093B6
:102E8000B305BF91AF919F918F911F901FBE1F906F
:102E900018952FB7F8948091B0059091B105A09145
:102EA000B205B091B3052FBF0895609109086695EA
:102EB00070E04BE050E08DE991E00E94712C892B8D
:102EC00019F481E08093CF050E9449179093C905BA
:102ED0008093C80508959091090890FF36C09170BD
:102EE000811129C0926090930908662351F0609186
:102EF000090870910A0880910B0890910C080E94B3
:102F0000AC1460910908669570E04BE050E08DE9E3
:102F100091E00E94712C892BA9F01092CF0581E0DD
:102F20008093CB0520E040910C0860910B088091C4
:102F30000A080C94BE148B3210F09465D4CF880F1D
:102F4000982BD1CF0E945517EACF08951F920F9268
:102F50000FB60F9211242F933F934F935F936F936C
:102F60007F938F939F93AF93BF93EF93FF93809142
:102F7000E10082FF09C08091E20082FF05C08091DC
:102F8000E1008B7F8093E1008091DA0080FF24C014
:102F90008091D80080FF20C08091DA008E7F8093DE
:102FA000DA008091D90080FFA1C080E189BD82E173
:102FB00089BD09B400FEFDCF81E080933208809185
:102FC0000808811109C00E9402040E94CD0480916A
:102FD000E20084608093E2008091E10080FF17C0EE
:102FE0008091E20080FF13C08091E2008E7F809389
:102FF000E2008091E20080618093E2008091D8003D
:1030000080628093D80019BC85E08093320880915B
:10301000E10084FF2FC08091E20084FF2BC080E19B
:1030200089BD82E189BD89B5982F917080FFFBCF62
:103030008091D8008F7D8093D8008091E1008F7EB1
:103040008093E1008091E2008F7E8093E200809186
:10305000E20081608093E20080913308882309F4C4
:103060004BC084E0809332080E94240E0E940B081B
:103070000E9455178091E10083FF27C08091E200F4
:1030800083FF23C08091E100877F8093E10082E08D
:1030900080933208109233088091E1008E7F8093F4
:1030A000E1008091E2008E7F8093E2008091E20057
:1030B00080618093E20042E060E080E00E949B0437
:1030C0008091F00088608093F000FF91EF91BF91B4
:1030D000AF919F918F917F916F915F914F913F91B0
:1030E0002F910F900FBE0F901F90189519BC109242
:1030F00032081092080870CF8091E30087FD93E0BA
:1031000090933208B1CF809109088695815009F4D7
:103110008AE261E00C946B178091090886958F5FB5
:103120008B3208F081E061E00C946B1790910908F4
:1031300090FF07C09695981720F0961710F40C94FE
:103140008C1861E00C946B177F928F929F92AF92D4
:10315000BF92CF92DF92EF92FF920F931F93CF9384
:10316000DF934B015C017A0180913B0980FF81C0B4
:1031700080913A09811102C00E942D1620E030E0B2
:10318000A901C501B4010E94292D87FF04C0B7FA27
:10319000B094B7F8B09470907E09872D8150990B48
:1031A0006C01EC01CF3FDC0709F04DC081E0870DD9
:1031B000893008F485C088E080937E098EE399E029
:1031C00028E0FC013896DC0101900D922A95E1F788
:1031D000089629E08637920799F781E080934C059D
:1031E00080933909C0917E09C150DD0B0E944917B7
:1031F000FE0123E0EE0FFF1F2A95E1F7E25CF64F98
:103200009183808382829382A482B582F782E68250
:103210000E94491780919C01882359F180916F0089
:10322000826080936F00809180008068809380002E
:1032300080913909882321F00E94E3020E948609C7
:1032400010929C0116C08E0133E0000F111F3A95B9
:10325000E1F7025C164FA5019401F80162817381C8
:10326000848195810E94292D811128C0CC15DD050E
:1032700074F0DF91CF911F910F91FF90EF90DF904D
:10328000CF90BF90AF909F908F907F9008952196A0
:1032900088E0F8013896D80101900D928A95E1F7FF
:1032A0000E944917F8019187808782869386A486B9
:1032B000B586F786E686085F1F4FD8CF219772CF75
:1032C00080937E098ACFCF92DF92EF92FF92CF93C5
:1032D000DF93EC017B0180913B0980FD08C0DF9109
:1032E000CF91FF90EF90DF90CF900C94D709809111
:1032F0003A09811102C00E942D168091390981116D
:103300000E94D70981E08093380910923709D09341
:103310003609C0933509F0923409E09233091092CE
:10332000320910923109109230096C817D818E81B1
:103330009F810E94A02D9B01A0E6BAEE0E941A2D4B
:10334000C12C2EE1D22EE12CF12CA70196010E9476
:10335000F82C688179818A819B81A9010E94A41837
:103360000E94491790932F0980932E09E091350907
:10337000F0913609809130099091310933E0880F3E
:10338000991F3A95E1F7E80FF91F648175818681ED
:1033900097810E94A02D9B01A0E6BAEE0E941A2DF3
:1033A000A70196010E94F82C30932D0920932C0937
:1033B000DF91CF91FF90EF90DF90CF90089562E082
:1033C00070E08CE891E00E9463192FEF81EE94E0A9
:1033D000215080409040E1F700C000000E94D709D2
:1033E00060913B096E7F60933B0987E090E00C940D
:1033F000922C60913B09616060933B0987E090E00B
:103400000E94922C62E070E08CE791E00C946319CA
:10341000CF92DF92EF92FF926B017C010E94E00B52
:10342000882349F08130B9F0C701B601FF90EF90D1
:10343000DF90CF9008952FEF81EE94E021508040EF
:103440009040E1F700C0000068E070E084E291E0A5
:103450000E946319E9CF2FEF81EE94E02150804064
:103460009040E1F700C0000064E070E084E091E08B
:10347000EFCF0E94081A6093D0057093D105809316
:10348000D2059093D3050C94F3076330710509F0CE
:1034900042C0842F807F803809F18039E1F52F7791
:1034A000622F70E090E080E00E94D12D20E030E0BB
:1034B00040E451E40E942E2D9B01AC0160E070E0DD
:1034C00080E090E40E94EE2E2DEC3CEC42E851E4CA
:1034D0000E94812E4FEF5FEF0C94A4182F77622F7C
:1034E00070E090E080E00E94D12D20E030E040E4E8
:1034F00051E40E942E2D9B01AC0160E070E080E061
:1035000090E40E94EE2E2DEC3CEC42E851E40E9447
:10351000812E0C9466164C3F11F40C94D709089533
:103520000E94240EE0913C08F0913D0800E02BE75A
:1035300040EB63E070E08CE398E009950E94491746
:10354000EC0163E070E084E691E00E946319CE0133
:103550000E94BE068A3F910598F00E94D70987E72E
:1035600097E7909301088093000888E19AE00FB6EE
:10357000F894A895809360000FBE90936000FFCFF1
:103580008FE99FE00197F1F700C00000E0CFEBEF7B
:10359000E80FEF3308F059C0F0E0E451FF4C0C9411
:1035A000002C0E94C21581E0089580910308807F5D
:1035B0008093030881E080939F0508950E94901AEC
:1035C00090910308892F8E7F90FF8160809303087C
:1035D00080FDE9CF817F80930308E5CF90910308B8
:1035E000892F8D7F91FF82608093030881FFDBCF5D
:1035F000809103088160EFCF90910308892F8B7F22
:1036000092FF84608093030882FDF2CFCCCF90912B
:103610000308892F877F93FF88608093030883FDC9
:10362000E7CFC1CF0E94240E9091B405892F97FB5C
:1036300087F980588093B405B6CF80E00E94FC10D3
:10364000B2CF8953FBCF8D51F9CF80E00895CF934E
:10365000C82F882309F481C08238C1F40E940B0866
:1036600081FD7BC089E30E942F070E94E0062FEFB7
:1036700081EE94E0215080409040E1F700C00000CE
:1036800089E30E940407CF910C94E0068338A1F4EB
:103690000E940B0880FD61C083E50E942F070E94F5
:1036A000E0062FEF81EE94E0215080409040E1F75A
:1036B00000C0000083E5E5CF8438A1F40E940B0828
:1036C00082FD4BC087E40E942F070E94E0062FEF87
:1036D00081EE94E0215080409040E1F700C000006E
:1036E00087E4CFCF8CEF8C0F813A08F05BC08091DC
:1036F0009F05882349F1813091F110929F058091B7
:103700009E04882309F440C08091B40587FF3CC023
:10371000EC2FE695E695E695F0E0E45DFA4F8281C0
:1037200090E04C2F477021E030E002C0220F331FA1
:103730004A95E2F782239323892B81F18C2F0E94F3
:1037400004070E94E0062AC08091AB058232B9F6D8
:103750008C2F0E94C71A882391F2CF9108958091EF
:10376000AB058232A9F3C43161F028F4CB3039F0D3
:1037700080E08170F0CFC93221F0C833C9F781E011
:10378000F8CF10929F05F4CFEEE2F5E084E395E0E8
:103790002191C21799F28E179F07D1F78C2F0E94A3
:1037A0002F0771CF80E28C0F883068F4C77021E05A
:1037B00030E001C0220FCA95EAF78091AB05822B59
:1037C0008093AB0560CFEBE5EC0FE33040F4F0E025
:1037D000E653FB4F808190E0CF910C94DD07C85AEF
:1037E000C73108F0BACFEC2FF0E0EE0FFF1FE35324
:1037F000FB4F80819181CF910C94C7071F93CF938A
:10380000DF93182FEB010E94271B209731F4812FA3
:10381000DF91CF911F910C9417088FE99FE00197DA
:10382000F1F700C000002197F0CF0F931F93CF93C3
:10383000DF93C62FD42F022FFC0182818823A1F0B1
:1038400060932B090E94491790932A0980932909B4
:10385000C77081E001C0880FCA95EAF7DF91CF9168
:103860001F910F910C94BD0780912B09681337C0ED
:103870008091290990912A090E94BE06883C9105F1
:1038800070F510E21D0FCD17B9F080E28C0F883073
:1038900040F4C77081E001C0880FCA95EAF70E9422
:1038A000B607183048F481E09D2F977001C0880F4B
:1038B0009A95EAF70E94BD0770E060E0802F0E94B1
:1038C000FE1B183098F4D77081E001C0880FDA959C
:1038D000EAF7DF91CF911F910F910C94B607C77053
:1038E00081E001C0880FCA95EAF7F3CFDF91CF914D
:1038F0001F910F9108954F925F926F927F928F92D6
:103900009F92AF92BF92EF92FF920F931F93CF932C
:10391000DF9300D000D00F92CDB7DEB77C01DC0181
:1039200013968D919C911497892B41F01C911196BF
:103930000C91812F80238F3F09F033C50F900F909A
:103940000F900F900F90DF91CF911F910F91FF90EB
:10395000EF90BF90AF909F908F907F906F905F900F
:103960004F9008950E949E0BB82E682F89819A81EE
:103970000E948A07B4E0BB9EF0011124E00FF11D04
:10398000EE0FFF1FEE0FFF1FE10FF11DEE0FFF1FE8
:10399000EB5CFC4F05911491F7018281811120C0ED
:1039A0000D31FCE51F0709F05AC0D70112968C9122
:1039B000882309F496C00F900F900F900F900F90EE
:1039C000DF91CF911F910F91FF90EF90BF90AF903B
:1039D0009F908F907F906F905F904F900C94F9190B
:1039E00080917F048F3F09F4EFC463E4A62E62E068
:1039F000B62E912C812C7724739480917F04082E0D
:103A0000000C990B881599055CF2D50116968C91DE
:103A100016978823E9F019968D919C91801791074C
:103A200039F480919C0590919D058017910781F054
:103A3000F5017786148703878189811103C0C50149
:103A40000E946608C50106960E9487081092C70565
:103A5000FFEF8F1A9F0A26E1A20EB11CCECF0E31C6
:103A6000BCE51B0709F0BAC4F70182818823C9F1BC
:103A70000F900F900F900F900F90DF91CF911F91AB
:103A80000F91FF90EF90BF90AF909F908F907F909D
:103A90006F905F904F900C94DF19C8018A529C453B
:103AA0000297F8F4F70182818823D9F010923D093A
:103AB00064E070E08BEA91E00F900F900F900F9010
:103AC0000F90DF91CF911F910F91FF90EF90BF90DA
:103AD000AF909F908F907F906F905F904F900C94DD
:103AE0006319C80197558F3F910511F008F0B3C0D5
:103AF00020917F04022E000C330B2817390714F491
:103B000080937F04D70112962C91129736E1389F4B
:103B10004001399F900C1124F401ED5BFD4F5F01D2
:103B2000208B12969C918681992309F487C0128775
:103B300001878F5F86830E944917D5011E969C934B
:103B40008E931D9717961C9217978091C705909199
:103B5000AB05892B18968C931897ED91FC911197D2
:103B6000309739F054966D917C91C401875B9D4FDD
:103B7000099510939D0500939C05D70112969C9181
:103B8000992309F43BC410922B090230BCE51B07B2
:103B900008F4ADC10631ECE51E0738F098012B5F43
:103BA0003C452930310508F0A2C10E949E14909333
:103BB000B5058093B4050031FCE51F0709F452C137
:103BC00008F0CCC008303CE5130709F42DC108F01B
:103BD000A1C004309CE5190709F41EC108F087C094
:103BE0000230BCE51B0709F411C18091B405826065
:103BF00003301C4509F40DC16091B4051091B50561
:103C000084E090E00E94922C612F82E290E00E947A
:103C1000922C0F900F900F900F900F90DF91CF91FB
:103C20001F910F91FF90EF90BF90AF909F908F905A
:103C30007F906F905F904F900C94240E882309F42E
:103C40009CCF8189882309F498CFC401875B9D4F5D
:103C50000E94870892CF043FFCE51F07C9F188F452
:103C6000093D3CE5130781F10A3D8CE51807E1F1B8
:103C7000083D9CE5190709F080CF26E241EE61EE90
:103C80000DC0063FACE51A0759F130F127E245EEC9
:103C900066EE073FECE51E0709F06FCFC7010F90F6
:103CA0000F900F900F900F90DF91CF911F910F9178
:103CB000FF90EF90BF90AF909F908F907F906F900C
:103CC0005F904F900C94151C27E245EE65EEE6CF11
:103CD00026E241EE60EEE2CF27E245EE64EEDECF73
:103CE00026E241EE62EEDACF28E241E0EFCF8091AA
:103CF000B40580610630FCE51F0709F48AC0809195
:103D0000B405886007301C4508F483C08091B40571
:103D100080627FC00C303CE5130709F49BC058F467
:103D20000A309CE5190709F489C008F481C0809124
:103D3000B4058E7F6EC08091B405877F0E30BCE5E0
:103D40001B0709F466C08091B4058B7F0F301C45BA
:103D500008F45FC08091B4058F7E5BC00C3FFCE52A
:103D60001F0709F45DC030F503313CE5130709F482
:103D700081C078F401319CE5190709F477C002315C
:103D80001C4509F039CF0E94240E8091B4058F772D
:103D900040C00531BCE51B0709F480C008F49CC095
:103DA0008091B50581600B3F1C4509F025CF8093BC
:103DB000B50522CF01152DE5120709F465C0A8F459
:103DC0000E3F8CE5180709F449C08091B5058E7F38
:103DD0000F3F1C4560F38091B50583608093B50566
:103DE00064E070E08BEE91E032C00230ADE51A077E
:103DF00009F47BC008F462C060E003301D4509F09F
:103E0000FBCE8EE090E00E94922CF6CE8091B4051D
:103E100081608093B405F0CE8091B4058460F9CFC1
:103E20008091B5058260C3CF8091B4058064F1CFE5
:103E30000E94240E8091B4058068EBCF8091B40578
:103E40008C608093B40564E070E08BE092E00E94A7
:103E50006319D2CE8091B4058D7FDBCF8091B505FB
:103E60008D7FA5CF8091B4058F7DD3CF8091B40590
:103E70008F7BCFCF8091B405837F8093B40562E0C0
:103E800070E08BED91E0E3CF8091B5058C7F80935E
:103E9000B50562E070E08BEC91E0D9CF8091B4057C
:103EA00082FB992790F921E0922790FB82F990FB01
:103EB00083F98093B40583FFE2CFC5CF8091B50528
:103EC000982F909591708E7F892B90FB81F980932C
:103ED000B50581FFDECF84CF0E94240E9091B405FA
:103EE000892F97FB87F9805894CF61E08ACF809122
:103EF000AB050631FCE51F0709F08BC28A7A91E019
:103F000009F490E090939E05811118C089E20E9407
:103F10002F070F900F900F900F900F90DF91CF9180
:103F20001F910F91FF90EF90BF90AF909F908F9057
:103F30007F906F905F904F900C94E00685E3E7CF01
:103F400085E364C28091090880FF2DC08E7F809335
:103F500009086091090870910A0880910B089091F6
:103F60000C080E94AC141092CF052FEF30E782E0CE
:103F7000215030408040E1F700C000000F900F90CA
:103F80000F900F900F90DF91CF911F910F91FF90A5
:103F9000EF90BF90AF909F908F907F906F905F90C9
:103FA0004F900C948E1181608093090861E0869592
:103FB0000F900F900F900F900F90DF91CF911F9166
:103FC0000F91FF90EF90BF90AF909F908F907F9058
:103FD0006F905F904F900C946B1743E858E16CE83A
:103FE00078E10F900F900F900F900F90DF91CF918D
:103FF0001F910F91FF90EF90BF90AF909F908F9087
:104000007F906F905F904F900C94D1084CE858E1EE
:1040100063E878E1E6CF48E855E16FE775E1E1CF85
:1040200047E655E163E775E1DCCF4FE455E16BE529
:1040300075E1D7CF4BE555E16FE475E1D2CF42EAA8
:1040400055E161E975E1CDCF61E081E0B1CF65E097
:1040500082E00F900F900F900F900F90DF91CF9113
:104060001F910F91FF90EF90BF90AF909F908F9016
:104070007F906F905F904F900C94961868E086E068
:10408000E8CF64E18FE0E5CF67E185E1E2CF62E26E
:1040900089E1DFCF61E083E28BCF0E94901A0F901D
:1040A0000F900F900F900F90DF91CF911F910F9174
:1040B000FF90EF90BF90AF909F908F907F906F9008
:1040C0005F904F900C94C215C8010E946307B82EF0
:1040D000D2C1183009F47BC0193009F0E0C19F70DB
:1040E000812C912C5401839404C0880C991CAA1C27
:1040F000BB1C9A95D2F7882309F43DC16091D00585
:104100007091D1058091D2059091D30568297929C4
:104110008A299B290E94391A802F0E94BD07BFC19E
:10412000B92FBF70BB2E907F19F0B29450EFB5221B
:104130008823C9F0BB2069F080E2800F883010F03E
:1041400001110BC08091AB05B82AB092AB050E945B
:10415000E006802F0E94271BA2C18091C705B82AC4
:10416000B092C705F4CF802F0E941708BB2009F436
:1041700096C1005E083010F0A11006C08B2D0E9481
:10418000D9060E94E0068BC1B0948091C705B82281
:10419000B092C705F6CF292F26952695237051F0AA
:1041A000213009F07CC1882379F0802F93700E9420
:1041B000C70775C1882329F0802F93700E94DD07FF
:1041C0006EC190E080E0FACF90E080E0F0CF292F40
:1041D000237009F065C0811162C1802F8295869598
:1041E0008770880F880F602F6F70862E912CB12CEE
:1041F000A12C082E04C0880C991CAA1CBB1C0A9474
:10420000D2F740E050E0BA0104FF0FC04FE050E0A9
:1042100060E070E004C0440F551F661F771F8A9549
:10422000D2F74095509560957095969596959370B8
:10423000923019F1D8F44090AC055090AD056090E3
:10424000AE057090AF05913069F0482959296A2967
:104250007B29CB01BA0164217521862197210E9417
:1042600001081DC184289528A628B728CB01BA01CA
:10427000682979298A299B29F2CF482959296A294D
:104280007B298090AC059090AD05A090AE05B090D4
:10429000AF05CB01BA01682579258A259B25DFCF9B
:1042A0002695882311F0292F2170222309F4F7C0C5
:1042B000802F829586958770880F880F602F6F708A
:1042C000862E912CB12CA12C082E04C0880C991C90
:1042D000AA1CBB1C0A94D2F740E050E0BA0104FFCC
:1042E0000FC04FE050E060E070E004C0440F551F85
:1042F000661F771F8A95D2F7409550956095709507
:10430000969596959370923019F1D8F44090D00517
:104310005090D1056090D2057090D305913069F02E
:10432000482959296A297B29CB01BA0164217521C1
:10433000862197210E94391AB2C084289528A62880
:10434000B728CB01BA01682979298A299B29F2CF9C
:10435000482959296A297B298090D0059090D10558
:10436000A090D205B090D305CB01BA01682579257C
:104370008A259B25DFCF802F0E94B607C501B40197
:1043800060957095809590958090D0059090D1051E
:10439000A090D205B090D305682179218A219B2174
:1043A000C9CF85E0F701DE01119601900D928A9543
:1043B000E1F7D70112962C9189819A812111D2CAF5
:1043C0000E946307B82ED6CA0D31BCE51B0709F45D
:1043D000F2CA0E31FCE51F0709F44ACB0F31FCE5A8
:1043E0001F0709F05ACBD70112968C91882309F444
:1043F00078CB80913B0980FD3BCBDDCA06311C4563
:1044000061F580919E0581119BCD89E20E94040790
:1044100080CD82720D3C2CE5120709F410CE08F015
:104420009AC0073CACE51A0709F4F5CD08F06FC057
:10443000043CECE51E0709F4D0CD08F059C0033C5C
:104440002CE5120709F47ECD0115ACE51A0709F435
:1044500024CE0F3D1C4509F422CEF70100811181C5
:10446000992309F431CEC8010E949E0BB82E682F03
:10447000C8010E948A07B8018B2D0E94150A082FD7
:10448000A82ED70112968C91192F12951F701430F7
:1044900009F481CE08F01DCE123008F441CEE12F90
:1044A000E850FF0B329710F40E940B0885E0F701EB
:1044B000DE01119601900D928A95E1F789819A812A
:1044C0000E946307EA81F4E08F9FC00111248E0FE0
:1044D000911D880F991F880F991FE981E80FF92F07
:1044E000F11DEE0FFF1FEB5CFC4F8591949126CAE6
:1044F000053C3CE5130709F489CD4FE755E168E831
:1045000075E1063CACE51A0709F46BCD9DCF0A3C7A
:10451000BCE51B0709F489CD78F4083CFCE51F07CE
:1045200009F47ECD43E755E167E675E1093C2CE5EA
:10453000120709F456CD88CF0B3C3CE5130709F46C
:1045400079CD41E955E162EA75E10C3CACE51A0729
:1045500009F447CD79CF023DBCE51B0709F491CDA5
:10456000A0F40F3CFCE51F0709F471CD08F46CCDF5
:10457000003D3CE5130709F481CD013D8CE51807AA
:1045800009F062CF6EE089E064CD053DACE51A0725
:1045900009F47DCD68F4033DECE51E0709F474CD04
:1045A00061E088E1043DFCE51F0709F401CD4CCF33
:1045B000063D2CE5120709F46DCD6AE285E20E3561
:1045C0003DE5130709F445CD3FCFCDB7DEB72B97B7
:1045D0000FB6F894DEBF0FBECDBF109261081092E7
:1045E00063081092620880EC8093260984E698E0C4
:1045F0009093280980932709109225091092240985
:1046000010924108109240081092430810924208FC
:1046100010924508109244081092470810924608DC
:10462000109249081092480810924B0810924A08BC
:1046300010924D0810924C0810924F0810924E089C
:10464000109251081092500810925308109252087C
:10465000109255081092540810925708109256085C
:1046600010925B0810925A0887EB95E090933D08F2
:1046700080933C0882E196E090935D0880935C080B
:1046800085E49AE190935908809358088FE895E063
:1046900090933F0880933E0884B7877F84BF0FB60E
:1046A000F894A895809160008861809360001092D2
:1046B00060000FBE80E890E00FB6F8948093610030
:1046C000909361000FBE85B7806885BF85B780680D
:1046D00085BF8DE895E090932B0580932A050E9475
:1046E00002040E94CD048091E20084608093E20085
:1046F0007894809132088823A1F01091E9001F700E
:104700009091EC00892F817090FD80E8182B109219
:10471000E9008091E80083FD0E94390E1F7010931C
:10472000E90082E084BD93E095BD9AEF97BD809348
:104730006E0081E30E94FE0986E30E94FE0982E387
:104740000E94FE0983E30E94FE0986E60E94FE099C
:1047500084E30E94FE0986EC0E94FE0987E90E941C
:10476000FE091092BF051092C3051092C005109269
:10477000C4051092C1051092C5051092C205109291
:10478000C60590E080E00E948C2C8A3E9E4F11F07E
:104790000E94C21582E090E00E947E2C8093030864
:1047A0000E949E149093B5058093B40583E090E039
:1047B0000E947E2C682F70E090E080E00E9401084B
:1047C0006091D0057091D1058091D2059091D3056B
:1047D0000E94081A0E942D161092F80780E8809314
:1047E000D7050E94E32A6DE070E088E893E00E941C
:1047F000CC0D892BC9F58091F80763E070E081FD4D
:104800000CC185E893E00E94CC0D892B69F56DE021
:1048100070E085E793E00E94CC0D892B29F50E947A
:10482000CD06605A75418F4F9F4F6093FC07709380
:10483000FD078093FE079093FF07E8EFF5E080E027
:1048400092E0DF019C011D9221503040E1F78FEF93
:104850009FEF9093FB078093FA0781E08093010814
:10486000809300081092F9078091B605811136C037
:1048700090E080E00E948C2C8A3E9E4F21F00E94A6
:10488000C2150E94B31588E090E00E94862C6093C8
:10489000090870930A0880930B0890930C086E7FA8
:1048A00071F40E94B31588E090E00E94862C60931A
:1048B000090870930A0880930B0890930C080E94D3
:1048C000D6081092CF058091090880FF04C060E0EF
:1048D00086950E946B1781E08093B60587988F9A22
:1048E00086988E9A8FB190E0880F892F881F990B38
:1048F0007E9996C020E0822B8093D60584E994E0CF
:104900009093B8058093B70544244394512CAA246E
:10491000A394B12CCC24C394E6E19E2E0AE015E0CA
:104920007FEBE72E75E0F72ED12CD8018D918D010C
:10493000F894E82FE295EF70F0E021A18F70A201CA
:1049400002C0440F551F8A95E2F7CA01922F982B97
:1049500091A392A18095892382A3789400C0EEE070
:10496000F5E030E020E0712C4191A42FA295AF70CA
:10497000B0E090968C9190E04F7002C0959587952D
:104980004A95E2F780FD4EC0842D022E01C0880FAB
:104990000A94EAF7782A2F5F3F4F2430310521F738
:1049A000F801319780810E94FE0950EA5A95F1F78B
:1049B000D7018C917816C1F17C9281E0D82ABFEFA3
:1049C000EB1AFB0AEEE0F5E0E017F10709F0ADCFD6
:1049D000DD2061F1C092BB050E9449179093BA0592
:1049E0008093B9058091B9059091BA050E94BE06E1
:1049F000069700F18091BF058093C3058091C005A3
:104A00008093C4058091C1058093C5058091C2053E
:104A10008093C6051092BB050DC082E893E0F3CEEB
:104A200022E069CF80E0B6CF80E0C8CF8091BB059F
:104A30008111D8CF8091BE0581110DC08091BC0538
:104A40009091BD05009709F0B9C10E944917909354
:104A5000BD058093BC0580917F04712C8F3F09F0C8
:104A6000FCC1D1100E94CD06A3ECB5E0E4E0F8E073
:104A700010E000E0602E8D919191981709F4FEC12D
:104A80009827712CEE24E394292F2E2109F4F1C1EB
:104A9000F82EFE2033243394F11001C0312C0E94F3
:104AA00049178160F1101092C70579826A823B82B2
:104AB0009D838C83CE0101960E947B1CF801EC5FE4
:104AC000F74F8081E826E0828091CF058823D1F1DD
:104AD0008091CE05E0910908E695E81BE093CA05B0
:104AE000823009F0DFC1F0E0EA55FC4FE4910E2F6F
:104AF00010E05AE7E52E54E1F52E8091CB0588238E
:104B000061F01092CB050E9449179093C9058093DC
:104B1000C8051092CD051092CC050E944917E0916E
:104B2000C805F091C9058E1B9F0B8F3F9F4750F41E
:104B3000E00FF11FF093C905E093C80588EC95E0FC
:104B4000F7010995E091D605EE0FEE0FE093D6053B
:104B50008FB190E0880F892F881F990B7E990EC224
:104B600020E0822BE82BE093D605EF70F0E0EE5EBC
:104B7000FA4F80819091D505890F8093D505F12C4E
:104B80008430BCF08091D4058F5F8093D405609110
:104B9000D0057091D1058091D2059091D3050E94E6
:104BA000E00B882309F4EDC1813009F4F9C1FF2439
:104BB000F3948091D5058D3FBCF48091D40581504C
:104BC0008093D4056091D0057091D1058091D20574
:104BD0009091D3050E94E00B882309F4E7C181304E
:104BE00009F4F3C1FF24F3948091D505082E000C3D
:104BF000990B64E070E00E94EC2B8093D505F110D6
:104C00000E94CD0680910108882309F484C0209178
:104C1000FA073091FB072115310509F457C080913F
:104C2000F907811153C0082F10E03201082E02C08D
:104C3000660C771C0A94E2F7A90146215721452BFF
:104C400009F4C9C19091F80790FDC7C18295880FFA
:104C5000807680938304980136952795369527951D
:104C600020938604815E809384041092870424E656
:104C700030E047E050E061E874E088E70E94742B80
:104C8000892B21F5A80165E0440F551F6A95E1F7CE
:104C90008091F80780FDAFC148505A4F04E610E0FC
:104CA00020E230E060E488E70E949B2B892B71F4BE
:104CB0000E94FC0D609470948091FA079091FB071C
:104CC000862197219093FB078093FA078091000833
:104CD000882309F10E94CD060091FC071091FD0781
:104CE0002091FE073091FF07601B710B820B930B25
:104CF0006F3F7F4F8F4F9F4770F48091010888234B
:104D000051F062E070E08AEA93E00E94CC0D892BBA
:104D100011F410920008D11001C0F1100E94FC0D96
:104D2000E0915C08F0915D08309719F08CE398E011
:104D300009959FB7F89400912509809124090817D7
:104D400008F4C1C1081B9FBFF12CE12C10E043E027
:104D5000642E712C54E0252EE016F10608F4B7C13C
:104D60000E940B0890910208891721F00E940B08FD
:104D70008093020880913208843009F0CFCD809171
:104D800089048F708093E9009091E80090FFC2CD74
:104D900090913208943009F0BDCD8093E900909154
:104DA000F3008091F200892B09F4B4CD8091E800E2
:104DB0008E778093E8000E942104ACCD0E94BE064D
:104DC0008D32914008F447CE80913B0980FF06C0A8
:104DD00063E070E08BE292E00E9463190E94491741
:104DE00090932F0980932E09C092BE0534CE929ED7
:104DF000F001939EF00D1124ED5BFD4FE288F388E6
:104E0000E114F10419F468ECE62EF12C929E800175
:104E1000939E100D11240D5B1D4FD80116968C9199
:104E200016978823C9F01D968D919C910E94BE060D
:104E3000E816F90688F4799C70011124F80181893B
:104E4000811105C0C7018D5B9D4F0E946608C70197
:104E5000875B9D4F0E9487087394272D30E08091D7
:104E60007F04082E000C990B821793070CF0BFCF1C
:104E7000F8CD7394EE0C24E0721206CE0F5F1F4F34
:104E80000430110509F0F6CD0E9449172FEF298350
:104E90002A831B8281609D838C83CE0101960E94B0
:104EA0007B1C12CE863059F4F0E0ED55FC4FE491B6
:104EB0000E2F10E04EE8E42E44E1F42E1ECE893091
:104EC00061F4E695F0E0E056FC4FE4910E2F10E01F
:104ED00032E7E32E32E1F32E10CE8F3061F4E69507
:104EE000F0E0E356FC4FE4910E2F10E02CE9E22EA7
:104EF00022E1F22E02CE853159F4F0E0E656FC4F65
:104F0000E4910E2F10E090E0E92E93E1F92EF5CD1B
:104F100008E210E0AEE4EA2EA3E1FA2E883109F4AB
:104F2000ECCD833249F4E8E9F3E00591149181E294
:104F3000E82E84E1F82EE1CD04EF11E0F7EDEF2E3D
:104F4000F3E1FF2E843209F4D8CD853281F48E2F1F
:104F500063E00E94CC2BE92FF0E0EB56FC4FE4918C
:104F60000E2F10E0B3ECEB2EB1E1FB2EC6CD00ED21
:104F700017E0ECE8EE2EE5E0FE2EBFCD22E030E0BB
:104F8000F0CD209180042F77E0913C08F0913D080E
:104F90000FE340EB63E070E08CE398E0099507CE07
:104FA00070E060E08AEA0E94FE1B01CE209180043E
:104FB0002F77E0913C08F0913D0801E440EB63E07D
:104FC00070E08CE398E009950DCE70E060E089EA2E
:104FD0000E94FE1B07CE8F5F26CE880F880F880F9A
:104FE0008093830410928604895F8093840483E015
:104FF000809387043CCEE8EDF5E080E2DF011D926E
:105000008A95E9F7E6E2F5E0FB87EA8722E235E0F8
:105010003F832E8307E0AA85BB856D91BB87AA8756
:10502000EE81FF818191FF83EE83840F952F911D87
:105030009C0128503A4F39872887E62FF0E0E85244
:10504000FA4F90E080E0802E881A142D082E01C0BF
:10505000110F0A94EAF72884398470E0D1016D9128
:105060001D016123282D271B2770E22E022E000C24
:10507000330BB62F01C0BB0FEA94EAF7EB2E319544
:10508000219531092770332701C066952A95EAF7E3
:10509000E62A6081E62AE0827F5F7830F9F60196A1
:1050A00031968830910579F6EAE2F5E02A853B856C
:1050B000E217F30709F0AFCF04E610E020E230E09A
:1050C00048ED55E0EFCD20912609020F3BCE8091AF
:1050D000240990E06091260970E00E94EC2B209159
:1050E000270930912809280F391FD901DC90309009
:1050F0006108B7EFBD15E8F4C092610820E040E018
:105100006D2D81E090E00E941003309261082FB76E
:10511000F8948091240990E001966091260970E04E
:105120000E94EC2B809324092FBF4FEFE41AF40A5E
:1051300013CED7FE52C0E4E03E1631F0D0925E08A6
:10514000B0926308A09262088D2D0E949405813070
:1051500069F08823D1F08230A9F0833099F0109261
:1051600061081092630810926208D1CF80936108A1
:1051700020E040E06D2D81E090E00E94100310924D
:105180006108C5CF80936108C2CFF0EFDF16E1F070
:1051900027EFD212E4CF2091620830916308C90151
:1051A000B3010E94D82BFC01E45CF74FD2A2C901E5
:1051B0000196909363088093620820916008409163
:1051C0005F0860915E08D9CF20926108D0925E0896
:1051D000B0926308A09262089ACF332009F497CF67
:1051E0002091620830916308C901B3010E94D82B55
:1051F000AC01FC01E45CF74FD2A2C9010196909387
:105200006308809362084130510589F042305105AE
:1052100009F07DCF2091600840915F0860915E08A1
:105220000E94100380916108843091F670CF32E0C3
:1052300020E033126CCFF0CF1F921FB61F921124C3
:105240008F939F93AF93BF938091B0059091B105D9
:10525000A091B205B091B3054196A11DB11D8093F7
:10526000B0059093B105A093B205B093B305BF917B
:10527000AF919F918F911F901FBE1F9018951F9205
:105280000F920FB60F9211247F928F929F92AF923E
:10529000BF92CF92DF92EF92FF920F931F932F93C3
:1052A0003F934F935F936F937F938F939F93AF93AE
:1052B000BF93CF93DF93EF93FF938091510590912C
:1052C0005205A0915305B09154050196A11DB11D41
:1052D0008093510590935205A0935305B0935405C4
:1052E000609151057091520580915305909154053C
:1052F0000E94CF2D6B017C0120E030E040E85CE3B0
:1053000060914D0570914E0580914F05909150052B
:105310000E94812E9B01AC01C701B6010E94292D7C
:1053200087FDB2C01092510510925205109253059C
:10533000109254057090380980913909811103C089
:10534000772009F497C00E9449176C0171101DC0A5
:10535000712C80913909882379F080913C09811161
:10536000782ECEE3D9E010E000E080917E0980172E
:10537000110611F00CF007C180914C05882309F447
:1053800079C010924C05782E75C000912E091091AD
:105390002F09C8010E94BE06C0912C09D0912D0989
:1053A0008C179D07A8F2C8010E94BE067C01EC1A6A
:1053B000FD0AD0922F09C0922E098090300990905A
:1053C0003109E4012196D0933109C09330090E943C
:1053D0004917C0903309D0903409CC15DD0548F049
:1053E00080913209882309F442C010923109109249
:1053F00030090091350910913609C0913009D091DA
:105400003109809137095E0163E0AA0CBB1C6A95E3
:10541000E1F7811157C0F40153E0EE0FFF1F5A95D9
:10542000E1F7E00FF11FD801AA0DBB1D2D913D91B1
:105430004D915C9160817181828193810E94292DBF
:10544000811140C081E0809337094FE050E060E077
:1054500070E0CB010E94A41890923109809230092B
:105460008FE090E090932D0980932C0972CF0E94D9
:10547000D709712C8091390981119DC0809138091B
:10548000811199C00E947B09FF91EF91DF91CF912B
:10549000BF91AF919F918F917F916F915F914F914C
:1054A0003F912F911F910F91FF90EF90DF90CF9040
:1054B000BF90AF909F908F907F900F900FBE0F90F6
:1054C0001F90189510923709F801EA0DFB1D6481B1
:1054D0007581868197810E94A02D9B01A0E6BAEE7E
:1054E0000E941A2D20E03EE140E050E00E94F82C9E
:1054F00081E0C81AD108812C4EE1942EA12CB12C48
:105500002E153F05F0F0D0933109C0933009E21613
:10551000F306A8F5C9018E199F097C0183E0CC0F21
:10552000DD1F8A95E1F7C00FD11F688179818A81DB
:105530009B81A7010E94A418F0922D09E0922C09EA
:1055400008CFCC15DD05F8F6E21AF30A2196FE0124
:1055500023E0EE0FFF1F2A95E1F7E00FF11F6481B2
:105560007581868197810E94A02D9B01A0E6BAEEED
:105570000E941A2DA50194010E94F82CC1CFEE249F
:10558000E394F12CCBCFEE80FF80C70101978E3FD3
:105590009F4F68F4888199810E94BE068E159F05F1
:1055A00030F06A817B818C819D810E9466160F5F3D
:1055B0001F4F2896DACE772009F466CF0E94E302C7
:1055C0000E94860961CF1092B9008CE08093B800E8
:1055D0000895EF92FF920F931F93CF93DF93182FAD
:1055E000EB011092BC0084EA8093BC000E94491732
:1055F0007C018091BC0087FF27C08091B900887F23
:10560000883029F08091B900887F8031D9F51093D6
:10561000BB0084E88093BC000E9449178C018091F4
:10562000BC0087FF24C02091B900287F90E080E073
:105630002831B1F081E090E0203411F490E080E076
:105640009195819591090CC0CF3FDC0791F20E94A2
:1056500049178E199F098C179D0758F28EEF9FEFFF
:10566000DF91CF911F910F91FF90EF900895CF3F61
:10567000DC07A9F20E944917801B910B8C179D072C
:1056800070F2ECCF8FEF9FEFEBCF0F931F93CF9381
:10569000DF93EB018093BB0084E88093BC000E9401
:1056A00049178C018091BC0087FF11C02091B9007F
:1056B000287F81E090E0283211F490E080E091951D
:1056C00081959109DF91CF911F910F910895CF3F5F
:1056D000DC0741F30E944917801B910B8C179D0733
:1056E00008F38EEF9FEFEECFCF92DF92EF92FF9213
:1056F0000F931F93CF93DF936B018A017901B90157
:105700000E94E92AE6010C0D1D1DC017D10761F4A6
:1057100024E92093BC00DF91CF911F910F91FF905E
:10572000EF90DF90CF90089597FDF2CFB701899168
:105730000E94452BEACFCF92DF92EF92FF920F9318
:105740001F93CF93DF93C62F6A017901B8010E949E
:10575000E92A97FD0CC0B8018C2F0E94452BE60169
:10576000EC0CFD1CCE15DF0511F097FF0CC024E9F1
:105770002093BC00DF91CF911F910F91FF90EF908C
:10578000DF90CF900895B80189910E94452BEACF10
:1057900084E98093BC000895991B79E004C0991FA7
:1057A000961708F0961B881F7A95C9F7809508957B
:1057B000AA1BBB1B51E107C0AA1FBB1FA617B70737
:1057C00010F0A61BB70B881F991F5A95A9F7809553
:1057D0009095BC01CD01089597FB072E16F4009417
:1057E00007D077FD09D00E94D82B07FC05D03EF4E6
:1057F000909581959F4F0895709561957F4F08957D
:10580000EE0FFF1F0590F491E02D09940E941A2DD0
:10581000332312F48A1B9B0B0C94102C0E941A2D1C
:10582000B7FF0895821B930B08958F929F92AF92BA
:10583000BF92CF92DF92EF92FF92CF93DF93EC0172
:10584000688179818A819B81611571058105910546
:1058500021F464E279ED8BE597E02DE133EF41E04F
:1058600050E00E94C62C49015A019B01AC01A7EAF5
:10587000B1E40E94E52C6B017C01ACEEB4EFA50114
:1058800094010E94F32CDC01CB018C0D9D1DAE1DFB
:10589000BF1DB7FF03C00197A109B0488883998352
:1058A000AA83BB839F77DF91CF91FF90EF90DF902A
:1058B000CF90BF90AF909F908F9008950E94152C2D
:1058C000089580E091E00E94152C0895B0E0A0E0DA
:1058D0008093000190930101A0930201B093030112
:1058E0000895FC014150504030F001900616D1F768
:1058F0003197CF010895882799270895F999FECF08
:1059000092BD81BDF89A992780B50895A6E1B0E0CF
:1059100044E050E00C94B82CA8E1B0E042E050E044
:105920000C94B82C262FF999FECF92BD81BDF89A20
:10593000019700B4021639F01FBA20BD0FB6F894D3
:10594000FA9AF99A0FBE08950396272F0E94932C76
:105950000E94922C252F0E94932C242F0C94932C80
:105960000196272F0E94932C0C94922CDC01CB01E2
:10597000FC01F999FECF06C0F2BDE1BDF89A31965F
:1059800000B40D9241505040B8F70895052E97FB92
:105990001EF400940E94DD2C57FD07D00E94F82CC5
:1059A00007FC03D04EF40C94DD2C509540953095B7
:1059B00021953F4F4F4F5F4F08959095809570957B
:1059C00061957F4F8F4F9F4F08950E941A2DA59F7D
:1059D000900DB49F900DA49F800D911D11240895EA
:1059E000B7FF0C94E52C0E94E52C821B930B0895C5
:1059F000A1E21A2EAA1BBB1BFD010DC0AA1FBB1FD3
:105A0000EE1FFF1FA217B307E407F50720F0A21B44
:105A1000B30BE40BF50B661F771F881F991F1A94B1
:105A200069F760957095809590959B01AC01BD01DB
:105A3000CF010895A29FB001B39FC001A39F700D35
:105A4000811D1124911DB29F700D811D1124911D86
:105A500008950E940C2E08F481E008950E94422DC2
:105A60000C94472E0E94402E58F00E94392E40F090
:105A700029F45F3F29F00C94302E51110C947B2EA9
:105A80000C94362E0E94582E68F39923B1F35523B7
:105A900091F3951B550BBB27AA2762177307840741
:105AA00038F09F5F5F4F220F331F441FAA1FA9F3D7
:105AB00035D00E2E3AF0E0E832D091505040E695C5
:105AC000001CCAF72BD0FE2F29D0660F771F881F26
:105AD000BB1F261737074807AB07B0E809F0BB0B19
