:100000000C9471050C94B8050C94B8050C94B805C3
:100010000C94B8050C94B8050C94B8050C94B8056C
:100020000C94B8050C94B8050C94991E0C946E1D94
:100030000C94A32F0C94B8050C94B8050C94B80537
:100040000C94B8050C94B8050C94B8050C94B8053C
:100050000C94B8050C94B21D0C94B8050C94B8051A
:100060000C94B8050C94B8050C94B8050C94B8051C
:100070000C94B8050C94B8050C94B8050C94B8050C
:100080000C94B8050C94B8050C94B8050C94B805FC
:100090000C94B8050C94B8050C94B8050C94B805EC
:1000A0000C94B8050C94B8050C94B8050001010136
:1000B0000101010101010202020202020202020325
:1000C00003030303030303040404040404040505F5
:1000D00005050506060606060707070707080808B8
:1000E00008090909090A0A0A0B0B0B0C0C0C0D0D67
:1000F0000D0E0E0E0F0F0F101011111112121313FF
:100100001414151516161717181819191A1A1B1B77
:100110001C1D1D1E1E1F20202122222324242526D3
:1001200026272829292A2B2C2D2D2E2F303132320B
:10013000333435363738393A3B3C3D3E3F40414217
:10014000434445464748494A4C4D4E4F50515354FD
:10015000555658595A5B5D5E5F61626465666869B1
:100160006B6C6D6F7072737577787A7B7D7E808231
:10017000838587888A8C8E8F91939596989A9C9E7A
:10018000A0A2A3A5A7A9ABADAFB1B3B5B7BABCBE8A
:10019000C0C2C4C6C9CBCDCFD1D4D6D8DBDDDFE257
:1001A000E4E7E9EBEEF0F3F5F8FAFDFFFFAA7F557F
:1001B000402223252628292A2C2D2F30323335366C
:1001C000383A3B3D3E4042434547494A4C4E5051E8
:1001D000535557595A5C5E6062646668696B6D6F0F
:1001E00071737577797B7D7F81838587898A8C8E12
:1001F00090929496989A9C9E9FA1A3A5A7A8AAAC1A
:10020000AEAFB1B3B4B6B8B9BBBCBEBFC1C2C3C553
:10021000C6C7C9CACBCCCDCED0D1D2D2D3D4D5D6F5
:10022000D7D7D8D9D9DADADBDBDBDCDCDCDCDCDD28
:10023000DDDDDDDCDCDCDCDCDBDBDBDADAD9D9D80C
:10024000D7D7D6D5D4D3D2D2D1D0CECDCCCBCAC9A4
:10025000C7C6C5C3C2C1BFBEBCBBB9B8B6B4B3B1D3
:10026000AFAEACAAA8A7A5A3A19F9E9C9A9896946E
:1002700092908E8C8A89878583817F7D7B79777543
:1002800073716F6D6B6968666462605E5C5A595722
:10029000555351504E4C4A4947454342403E3D3BE1
:1002A0003A3836353332302F2D2C2A29282625236B
:1002B0002200AF11500A571757155719570C5702FC
:1002C000570D5718570E570F570757085710571104
:1002D0005712571050C35CC55CC45C0100C65CC8B3
:1002E0005CCA5C0100C75CC95CCB5C0100AE00ACC1
:1002F00000AB0000DA0281FFD9F1DB20A4A62EAF0B
:1003000000A0C000A1C800AED580A81FD300408DBA
:100310001420001E0F0500047F3F1F643214643256
:1003200014783C1E1E140A0500000080C0E0F0F0A6
:10033000F8F8FCFCFCFCFCFEFCFCFCFCFCF8F8F80F
:10034000F0E0C0800000000000F0FEFFFFFF0F079C
:1003500003030303070FFFFFFFFF0F07030303035D
:10036000071FFFFFFFFCE00000030F1FBFFFFEF8A9
:10037000F8F0F0F8F8FEFFFFFFFFFCF8F8F0F0F8F7
:10038000FCFFFF3F1F070000000000000F1F1F1FA2
:100390001F1F0F070F1F3F3F3F1F0F070F1F1F1F7D
:1003A0001F1F0F00000000002D2D2D2D2D00415589
:1003B00044494F00545241434B004D45444941008C
:1003C0002D4445432D002D494E432D002D544F47BC
:1003D0002D007D007B005F5F5F5F5F0043433A005D
:1003E000207D007B20002D2D2D2D2D0053544154B8
:1003F0004500204B455920002D2D2D2D2D004C4121
:100400005945520020204E4F4E45002D4E41562D4D
:10041000002D4C524D2D0000AE05010980A1018533
:100420000319012AB700150126B70095017510813F
:1004300000C0050C0901A101850419012AA00215BB
:100440000126A002950175108100C005010906A1D1
:10045000018505050719E029E715002501950875AF
:100460000181020507190029EF1500250195F07596
:10047000018102050819012905950575019102956B
:100480000175039101C005010906A101050719E0E5
:1004900029E7150025019508750181029501750868
:1004A00081010507190029FF150026FF0095067533
:1004B0000881000508190129059505750191029526
:1004C0000175039101C009029F00040100A0FA090F
:1004D0000400000103010100092111010001224073
:1004E000000705810308000A090401000103000058
:1004F00000092111010001226D000705820320007F
:100500000A080B02020101000009040200000101B7
:10051000000009240100010900010309040300028D
:10052000010300000724010001410006240201012B
:100530000006240202020009240301030102010053
:100540000924030204010101000905040240000519
:100550000000052501010109058302400005000096
:1005600005250101031201100100000008504B6B2A
:10057000010100010200010C0362006D0031003630
:10058000007300000016034B0050007200650070FD
:1005900000750062006C006900630000000403093C
:1005A0000407087F0807003E5B4F5B3E003E6B4F31
:1005B0006B3E001C3E7C3E1C00183C7E3C18001C20
:1005C000577D571C001C5E7F5E1C0000183C180005
:1005D00000FFE7C3E7FF00001824180000FFE7DB77
:1005E000E7FF0030483A060E002629792926004008
:1005F0007F05050700407F05253F005A3CE73C5A30
:10060000007F3E1C1C0800081C1C3E7F0014227F3B
:100610002214005F5F005F5F0006097F017F00001A
:100620006689956A0060606060600094A2FFA29491
:100630000008047E04080010207E20100008082A0C
:100640001C0800081C2A0808001E10101010000CBE
:100650001E0C1E0C0030383E383000060E3E0E06D2
:100660000000000000000000005F00000000070024
:10067000070000147F147F1400242A7F2A1200230D
:100680001308646200364956205000000807030032
:1006900000001C224100000041221C00002A1C7F97
:1006A0001C2A0008083E080800008070300000087E
:1006B000080808080000006060000020100804021C
:1006C000003E5149453E0000427F400000724949CA
:1006D0004946002141494D33001814127F1000276C
:1006E00045454539003C4A49493100412111090736
:1006F00000364949493600464949291E0000001480
:1007000000000000403400000000081422410014E2
:10071000141414140000412214080002015909069F
:10072000003E415D594E007C1211127C007F494908
:100730004936003E41414122007F4141413E007F18
:1007400049494941007F09090901003E414151736E
:10075000007F0808087F0000417F410000204041E1
:100760003F01007F08142241007F40404040007F4D
:10077000021C027F007F0408107F003E4141413E81
:10078000007F09090906003E4151215E007F0919D9
:1007900029460026494949320003017F0103003FF1
:1007A0004040403F001F2040201F003F4038403F56
:1007B00000631408146300030478040300615949BA
:1007C0004D4300007F414141000204081020000019
:1007D0004141417F0004020102040040404040408A
:1007E000000003070800002054547840007F28448C
:1007F000443800384444442800384444287F0038B2
:10080000545454180000087E09020018A4A49C78CF
:10081000007F080404780000447D40000020404030
:100820003D00007F102844000000417F4000007C14
:1008300004780478007C0804047800384444443880
:1008400000FC182424180018242418FC007C080438
:1008500004080048545454240004043F4424003C39
:100860004040207C001C2040201C003C4030403C8C
:10087000004428102844004C9090907C004464541C
:100880004C440000083641000000007700000000E2
:1008900041360800000201020402003C2623263CE7
:1008A00000000000000000404040F0F8F8FF38FF72
:1008B000F8F83FF8F8FF38FFF8F8F0404040000043
:1008C0000000000080C0C0C0800000C0C0800000E8
:1008D0000080C0C000C0C0000080C0C00000000098
:1008E00000C0C0C0C0C000C0C000000000000000C8
:1008F00000000000000000000000000000000000F8
:1009000000000000000000000000000000000000E7
:1009100000000000000000000000000000000000D7
:10092000C0F0F8FC3E1E06010000007F4141417FFF
:10093000007F4141417F000080C0E07E5B4F5BFE55
:10094000C00000C000DCD7DEDEDED7DC00C0000067
:100950000000000000000000000000000000000097
:1009600000000000000000494949FFFFFFFFE0DFF1
:10097000BFBF00BFBFDFE0FFFFFFFF4949490000E5
:100980000000001F3F6060E0BF1F007F7F071E3830
:100990001E077F7F007F7F0E1F3B716000000000FD
:1009A000007F7F0C0C0C007E7E007F7E0303007FA7
:1009B0007E03037E7E03037F7E000F3E703C063C79
:1009C000703E0F00327B49493F7E007F7E0303006B
:1009D0001E3F69696F260000000000000000000053
:1009E000030F1F3F3C7870600000007F4141417F52
:1009F000007F4141417F00307B7F7830202030787C
:100A00007F3B0003000F7F0F0F0F7F0F00030000DD
:100A100000000000000000000000000000000000D6
:100A200000000000000000010101070F0F7F0F7F91
:100A30000F0F7E0F0F7F0F7F0F0F070101010000C7
:100A400000000000000000000101000000000000A4
:100A50000000000000000000000000000000000096
:100A60000000000000000000000000000000000086
:100A70000000000000000000000000000000000076
:100A80000000000000000000000000000000000066
:100A90000000000000000000000000000000000056
:100AA0000000000000000000000000000000000046
:100AB0000000000000000000000000000000000036
:100AC0000000000000000000000000000000000026
:100AD0000000000000000000000000000000000016
:100AE000000011241FBECFEFDAE0DEBFCDBF04B699
:100AF00003FE27C080912F0890913008A091310803
:100B0000B09132088730904BA740B04BD1F410928F
:100B10002F0810923008109231081092320814BE3B
:100B200084B7877F84BF0FB6F894A8958091600042
:100B3000886180936000109260000FBEE0E0F8E3EF
:100B4000099528E0A6E2B4E001C01D92AF32B207D9
:100B5000E1F714E0A0E0B1E0E8E0F8E602C00590BB
:100B60000D92A632B107D9F70E947C280C94B933B4
:100B70000C940000CF92DF92EF92FF920F931F939D
:100B8000CF93DF9300D00F92CDB7DEB77C01162F45
:100B9000D42EC22E809159058430B9F5E0914E05CE
:100BA000F0914F05309709F440C0C701019763E009
:100BB00070E00E94BB30CB01880F991F860F971FF2
:100BC00019834A83CB824E2D481B9E012F5F3F4FD6
:100BD000BC0184E395E00995E0915205F09153053D
:100BE000309739F00C2D2D2D412FB70184E395E07E
:100BF00009950F900F900F90DF91CF911F910F915A
:100C0000FF90EF90DF90CF90089582E0E816F10416
:100C100009F45AC083E0E816F104A9F081E0E8166F
:100C2000F10409F484C0F12CE12CE0915005F0911D
:100C30005105309789F20C2D2D2D412FB70184E3FA
:100C400095E00995C9CF862F807F803A11F188F40D
:100C50008038D1F0E0913805F0913905803929F7D5
:100C6000309719F3123F49F12C2D4D2D612F6F70E4
:100C700027C0803E99F0803FB1F0E0913605F091B9
:100C80003705803B91F6ECCFE0913A05F0913B05BA
:100C9000E7CFE0913C05F0913D05E2CFE0913E05C4
:100CA000F0913F05DDCF623F09F0BFCFE0914005F5
:100CB000F0914105309709F4B8CF2C2D4D2D62EFFE
:100CC00084E395E0099588CF862F807F803DB9F039
:100CD000803FD1F0E0914205F0914305803C09F05E
:100CE000A4CF309709F4A1CF812F8D7F4D2D612F97
:100CF0006F70813FC9F084E395E009956DCFE09175
:100D00004405F0914505EDCFE0914605F09147058A
:100D1000633F39F0613F09F088CFE0914805F091D9
:100D20004905309709F481CF4D2D612FE4CFE09133
:100D30004A05F0914B05683F38F4663F09F075CFDE
:100D4000E0914C05F0914D05309709F46ECF612F7D
:100D500084E395E0099540CFE8EDF0E080818E7F57
:100D600080831092E2001092DA001092E100A0EE6F
:100D7000B0E08C9181608C9380818F77808319BCE7
:100D8000A7EDB0E08C918E7F8C9380818F7E8083E5
:100D90001092000508952091E4003091E50095E659
:100DA000A9012091EC00822F817020FF06C0809164
:100DB000E80080FF06C080E008952091E80022FD51
:100DC0001AC080912A05882389F0853089F08091A6
:100DD000EB0085FD0FC02091E4003091E500421743
:100DE0005307F9F29150E1F684E0089582E0089506
:100DF00083E0089581E00895EF92FF920F931F938F
:100E0000CF937C018B010E94CB06C82F811117C0A4
:100E10008091E80085FD0BC08091E8008E7780937B
:100E2000E8000E94CB06882399F3C82F08C0F70179
:100E300081917F018093F1000150110949F78C2FB6
:100E4000CF911F910F91FF90EF90089580912C0505
:100E500087FF13C08091E80082FF06C08091E80000
:100E60008B778093E80004C080912A058111F2CF2E
:100E7000089580912A058823D9F38091E80080FFA6
:100E8000F8CF8091E8008E77ECCF982F9093E9000F
:100E9000242F762F50E0891731F07091EC002091CB
:100EA000ED005091F00021FD07C09F5F973071F772
:100EB0008093E90081E008953091EB003E7F30930C
:100EC000EB003091ED003D7F3093ED003091EB0071
:100ED00031603093EB007093EC002093ED00509361
:100EE000F0002091EE0027FDE0CF80E00895CF9242
:100EF000DF92EF92FF920F931F93CF93DF93C8ED92
:100F0000D0E088818F7E8883E7EDF0E0808181608A
:100F1000808384E082BF81E08093000588818E7F9A
:100F2000888302EE10E0F80110821092DA0081EE60
:100F3000C82ED12CF601108288818F778883888112
:100F40008068888388818F7D888319BC10922A05E8
:100F500010922B05109229051092280590EEE92E8B
:100F6000F12CF70180818B7F808388818160888369
:100F700042E060E080E00E944507F60180818E7FBC
:100F80008083F80180818160808380818860808394
:100F9000F70180818E7F8083888180618883DF91E3
:100FA000CF911F910F91FF90EF90DF90CF90089518
:100FB000FC01809132059091330586179707A0F0C8
:100FC0006115710529F49091E8009E779093E800EF
:100FD00090E06115710551F4911108C08091E8000D
:100FE00082FF34C080E00895BC01F2CF80912A05D1
:100FF0008823C1F18530C1F18091E80083FD30C0C4
:101000008091E80082FDEACF8091E80080FFE1CF87
:101010008091F3002091F200382F6115710519F0CD
:101020002830310558F091E02830310509F090E082
:101030002091E8002E772093E800CBCF8191809318
:10104000F100615071092F5F3F4FE7CF80912A0572
:10105000882341F0853041F08091E80083FFBECFC6
:1010600081E0089582E0089583E00895089580E086
:101070000895089508950895809107050895982F7B
:10108000907F903BE9F040F49039D1F0903AC1F074
:101090009038B1F080E00895903D19F020F4903C34
:1010A000C9F782E00895903E59F0903F99F7815F2B
:1010B0008F3080F7E82FF0E0E950FC4F80810895F1
:1010C00083E00895DF92EF92FF920F931F93CF93E7
:1010D000DF9300D000D0CDB7DEB77B01142FD22E26
:1010E0004A832B830C83842F0E943F08811141C0C7
:1010F00082E0E816F104C1F183E0E816F10439F06A
:10110000EA94EF2829F5173F29F485E004C087E029
:10111000073F09F084E0898380912A058430C1F477
:10112000809162038F708093E90050E040E064E0BA
:1011300070E0CE0101960E94FC06811109C08091E9
:10114000E80085FD05C08091E8008E778093E80077
:101150000F900F900F900F90DF91CF911F910F91F3
:10116000FF90EF90DF90089587EFD812D3CF86E0FD
:10117000D2CF12951F701983CFCFCF92DF92EF920B
:10118000FF920F931F93CF93DF9300D000D000D036
:101190000F92CDB7DEB78C0108511F4F80912A0501
:1011A000843009F087C0809167038F708093E900D5
:1011B0008091E80082FF7EC08091E80085FF7AC0C0
:1011C0000E94CB06811113C084E0E82EF12CCE01E1
:1011D00001966C018091E80085FD61C08091E80076
:1011E0008B778093E8000E94CB06882399F3809147
:1011F000E80085FD05C08091E8008B778093E800CA
:10120000FA808F2D0E943F08282FFD828B818E83CC
:101210008C818F8321110BC08981843041F187300B
:1012200031F1863031F121E0853009F0B7CF30E07F
:10123000E5E0F0E0EC0FFD1FE30FF11DF0804FB78C
:10124000F894D8011196EC911197F0E0CF01019636
:1012500012966C9170E00E94CF30D8015C915817C3
:10126000190649F44FBF3F5F321710F397CF23E0C1
:10127000DECF22E0DCCF13968D919C911497E80F7E
:10128000F91FF08211968C91119790E001961296B9
:101290006C9170E00E94CF30F8018183E3CF8091A0
:1012A000F100D6018D936D01B1E0EB1AF10809F060
:1012B00091CF9DCF27960FB6F894DEBF0FBECDBF5E
:1012C000DF91CF911F910F91FF90EF90DF90CF9022
:1012D00008959C014FB7F8948091A8049091A904B7
:1012E000A091AA04B091AB044FBF821B930B089549
:1012F0002FB7F8946091A8047091A9048091AA0472
:101300009091AB042FBF089580959091A3049823EA
:101310009093A30408958091A3049091BF04892B16
:101320009091A204892B80932804E091AF04F0915E
:10133000B004309799F090917703992349F09091F8
:10134000AC0497FF05C08093290485E080932804AE
:101350000280F381E02D88E294E009940895909151
:1013600077039923D1F09091AC0497FF16C0E82F32
:10137000E695E695E695EE31E0F4F0E0E85DFB4FAA
:10138000282F277081E090E001C0880F2A95EAF7A6
:1013900080959281892382830895EAE2F4E0919115
:1013A000891303C0DF0111971C9294E0E033F90721
:1013B000B1F70895909177039923C1F09091AC040F
:1013C00097FF14C0E82FE695E695E695EE31F8F420
:1013D000F0E0E85DFB4F877021E030E001C0220FB4
:1013E0008A95EAF78281822B82830895AAE2B4E08B
:1013F000EFEF90E02D91821751F0EF3F19F421119A
:1014000001C0E92F9F5F9630A9F7EF3F09F40895D7
:101410000E2E000CFF0BE85DFB4FE6CF990F990FE6
:10142000890F982F977086958695869525E0829FDF
:10143000F0011124E856FB4F50E040E080E021919C
:1014400030E0092E02C0369527950A94E2F7217004
:101450003327042E01C0220F0A94EAF7822B4F5F34
:101460005F4F4530510559F70895990F990F890F2E
:10147000982F977041E001C0440F9A95EAF786953E
:101480008695869595E0899FF0011124E856FB4FDB
:1014900030E020E070E05191DF011197CB01022E86
:1014A00002C0969587950A94E2F781708195852709
:1014B000842385278C932F5F3F4F2530310559F7C3
:1014C0000895882321F00E9484090C948B090895C3
:1014D000882339F09091A304982B9093A3040C9443
:1014E0008B09089520918D0430918E0428173907B7
:1014F00071F090938E0480938D04E091AF04F0918D
:10150000B004309721F00084F185E02D099408950E
:1015100020918B0430918C042817390771F0909337
:101520008C0480938B04E091AF04F091B004309769
:1015300021F00680F781E02D0994089590E080E085
:101540000E94880A90E080E00E94720A1092BF0414
:101550001092A2040C948B096093CE047093CF0474
:101560008093D0049093D1040C949E0A6093A404B9
:101570007093A5048093A6049093A7040C949E0AEC
:10158000E091AF04F091B004309721F00190F08128
:10159000E02D099480E00895882309F44BC0823837
:1015A00071F40E94C00A81FF45C089E30E94DA09F4
:1015B0000E948B0989E30E94AF090C948B09833840
:1015C00059F40E94C00A80FF35C083E50E94DA0901
:1015D0000E948B0983E5EFCF843859F40E94C00A3A
:1015E00082FF28C087E40E94DA090E948B0987E401
:1015F000E2CF9CEF980F913AF0F290E2980F98307A
:1016000050F4877091E001C0990F8A95EAF7892F0D
:101610000E948409D2CF9BE5980F933020F490E08C
:1016200080E00C94880A885A873120F490E080E0AA
:101630000C94720A0895CF93DF93EC0181E0898BBB
:101640008091A3049F81892B8093A3048091BF0480
:101650009885892B8093BF040E948B09EA81FB81C6
:10166000309739F06C897D89CE010696DF91CF9154
:101670000994DF91CF910895EF92FF920F931F93FA
:10168000CF93DF93EC018A85811139C0EB80FC8018
:1016900087E5F81A26E12E9DC0012F9D900D11249B
:1016A000DC01AB5EBE4F1496ED91FC91159730971F
:1016B00031F054966D917C91855E9E4F099586E13F
:1016C0008E9D80018F9D100D11240B5E1E4FF80121
:1016D00087810E948409F8018085982F90958091D8
:1016E000BF0489238093BF040E948B091882198646
:1016F0001B861E821D821092950410929404DF9125
:10170000CF911F910F91FF90EF900895FA018111F1
:1017100001C0FB01099480910105982F9E7F29F457
:10172000817082608093010508958635E8F38170A9
:101730008465F8CFAF92BF92DF92EF92FF920F9342
:101740001F93CF93DF93082F162FE901E42FF0E0CA
:10175000E455FF4F611110C0E4915E2F4E2F498375
:10176000E8835A83DF91CF911F910F91FF90EF9003
:10177000DF90BF90AF900895E62EF12C4491D42EC7
:10178000E42FF0E026E0829FC00111242FEF30E02B
:10179000B9010E94BB30802F90E0880F991F55E55A
:1017A000569FD001579FB00D11248A1B9B0B982F79
:1017B000990F890F5901AE18BF08AE9ED001AF9E98
:1017C000B00DBE9EB00D11245B2F189F8001112417
:1017D000012F11275901A01AB10AAE9E8001AF9EB8
:1017E000100DBE9E100D11245901A81AB108AE9C0F
:1017F000C001AF9C900DBE9C900D1124892F99279C
:10180000281B390B2E9FC0012F9F900D3E9F900DDE
:101810001124E92F62307105A1F050F461157105B2
:1018200009F49DCF6130710581F0EB2F512F97CFD7
:101830006430710569F080F06630710509F48FCF6E
:10184000F4CFE42F4B2F592F8ACFE42F412F87CF8E
:10185000EB2F542F492F83CF4B2F5D2DE12F7FCFBF
:101860000F93E0913405F091350500E02BE740EB54
:1018700063E070E084E395E009950F91089580910D
:10188000920481110C94300C0895F894E82FE2959D
:10189000EF70F0E031A1282F2F7081E090E001C0BF
:1018A000880F2A95EAF7982F9095932391A392A1F8
:1018B000892B82A37894089524E0829FC00111248B
:1018C000FC01E70FF11DEE0FFF1FEE0FFF1FE60FEC
:1018D000F11DEE0FFF1FED54FD4F25913491C9010D
:1018E0002238310591F1C0F52133310509F490C05A
:1018F00028F52932310509F484C02A32310509F46A
:101900008EC0211540E5340708F09DC0211540E444
:10191000340708F01FC12F3B310508F087C0283A73
:10192000310508F00CC1253A310508F0FFC024301C
:10193000310500F521303105E9F03CC02533310592
:1019400009F458C029333105E1F62091AC04237025
:1019500089F080EE90E00895233E310571F158F44E
:10196000203E3105E9F0223E310559F62091AC04C4
:1019700022FD1EC00895263E310551F1273E310556
:1019800071F1243E310509F0BCCF2091AD0421FF57
:10199000F1CF8091AC0484FD0DC087EE90E00895F6
:1019A0002091AC0420FD05C13091AD0430FFE2CFA1
:1019B00024FF02C190E080E0DDCF2091AC0422FD45
:1019C000FEC03091AD0430FDC4CF24FFD3CFF2CFA1
:1019D0002091AC0423FFCECF24FDECCFDECF2091AD
:1019E000AC0423FDEFC03091AD0431FFEECF84EEA7
:1019F00090E008952091AC0425FFBCCF89E290E0EF
:101A000008952091AC0425FFB5CF85E390E00895BB
:101A10002091AC0426FFAECF8AE290E00895209199
:101A2000AC0426FFA7CF81E390E00895213E310565
:101A300008F2283E310508F49DCF3A9521153F4123
:101A400008F498CFB7CF211583E5380738F521156D
:101A500042E5340708F087C0211581E5380708F012
:101A60007DC0C90164E0969587956A95E1F7382FA6
:101A70003370822F86958695837040E2849FC001E3
:101A80001124932B237041E050E002C0440F551FF6
:101A90002A95E2F7842B952B9C680895211549E53A
:101AA0003407F0F4211588E5380708F06FC02115D8
:101AB00044E5340708F07ECFA9014370552781E043
:101AC00090E002C0880F991F4A95E2F72695269567
:101AD00040E2249F90011124822B932B9A68089551
:101AE00021158AE5380708F065CF822F8F70409165
:101AF000AC0442FF05C023FF4EC0822F8770846074
:101B00009091AD0490FF07C0982F9871983009F01C
:101B100048C0877F816044FD877E94E03695279595
:101B20009A95E1F72F70922F90690895255AE22F28
:101B3000F0E0EA53FC4F808190E090640895285AC9
:101B4000E22FF0E0EE0FFF1FE753FC4F8081918101
:101B500094640895C9019F70906A0895922F882710
:101B6000816F906A0895A9014370552781E090E044
:101B700002C0880F991F4A95E2F72695269540E204
:101B8000249F90011124822B932B86CF922F88279C
:101B9000806F906A089522FFB3CF822F8B70886088
:101BA000AFCF982F9171913009F0B5CF8E7F8860BB
:101BB000B2CF89E390E0089583EE90E0089582EE3D
:101BC00090E0089586EE90E00895BF92CF92DF9264
:101BD000EF92FF920F931F93CF93DF938C01C090EE
:101BE000CE04D090CF04E090D004F090D104809146
:101BF000A4049091A504A091A604B091A704C82ABA
:101C0000D92AEA2AFB2ACFE1D0E0BC2ED701C601AF
:101C10000C2E04C0B695A795979587950A94D2F790
:101C200080FD0EC0219788F7B12C8B2DDF91CF91CD
:101C30001F910F91FF90EF90DF90CF90BF9008958C
:101C4000B8018C2F0E945C0C019761F3EECFCF920C
:101C5000DF92EF92FF926C01EE24FF2420E0C1148A
:101C6000D104E104F10419F0C701B60120E1C72E47
:101C7000D82EE92EFF24C114D104E104F10419F097
:101C8000285FC701B6016B017C0154E0F694E7942C
:101C9000D794C7945A95D1F7C114D104E104F10443
:101CA00019F02C5FC701B6016B017C0142E0F6948C
:101CB000E794D794C7944A95D1F7C114D104E104AD
:101CC000F10419F02E5FC701B601969587957795B7
:101CD0006795672B682B692B09F02F5F822FFF9088
:101CE000EF90DF90CF900895FC018081813069F4FE
:101CF0008AE1809352038EE48093CD0482E3809343
:101D0000570386E3809358030895823059F484E39F
:101D1000809352038EE48093CD0485E38093570330
:101D200082E3F0CF833081F78EE480935203809377
:101D3000CD0487E38093570388E3E4CFFC018081DF
:101D4000813069F489E1809352038EE48093CD045D
:101D500082E38093570385E380935803089582308C
:101D600059F483E3809352038EE48093CD0485E39A
:101D70008093570381E3F0CF833081F78DE4809324
:101D800052038EE48093CD0487E380935703E4CF1E
:101D9000FC018081813069F488E18093520382E400
:101DA0008093CD0482E38093570384E380935803A8
:101DB0000895823059F482E38093520382E4809341
:101DC000CD0485E38093570380E3F0CF833081F720
:101DD0008CE48093520382E48093CD0487E3809364
:101DE000570386E3E3CFFC018081813069F487E10A
:101DF0008093520386E58093CD0482E3809357035A
:101E000083E3809358030895823059F481E38093EB
:101E1000520386E58093CD0484E38093570389E3DE
:101E2000F0CF833081F78BE48093520386E5809373
:101E3000CD0487E38093570385E3E3CFFC018081E2
:101E4000813061F486E18093520383E48093CD0472
:101E500082E380935703809358030895823059F4A6
:101E600080E38093520383E48093CD0484E38093E2
:101E7000570388E3F0CF833081F78AE480935203DD
:101E800083E48093CD0487E38093570384E3E3CF17
:101E9000FC018081813069F485E18093520388E5FB
:101EA0008093CD0482E38093570381E380935803AA
:101EB0000895823059F48FE28093520388E580932D
:101EC000CD0484E38093570387E3F0CF833081F719
:101ED00089E48093520388E58093CD0487E380935F
:101EE000570383E3E3CFFC018081813069F484E10F
:101EF000809352038AE58093CD0482E38093570355
:101F000080E3809358030895823059F48EE28093E1
:101F100052038AE58093CD0484E38093570386E3DC
:101F2000F0CF833081F788E4809352038AE5809371
:101F3000CD0487E38093570382E3E3CFFC018081E4
:101F4000813069F483E1809352038CE48093CD0463
:101F500081E38093570389E3809358030895823087
:101F600059F48DE2809352038CE48093CD0484E392
:101F70008093570385E3F0CF833081F787E4809324
:101F800052038CE48093CD0487E38093570381E36D
:101F9000E3CFFC018081813069F482E180935203B8
:101FA0008BE48093CD0481E38093570388E380938F
:101FB00058030895823051F48CE2809352038BE4ED
:101FC0008093CD0484E380935703F1CF833089F766
:101FD00086E4809352038BE48093CD0487E380935F
:101FE000570380E3E4CFFC018081813069F481E113
:101FF000809352038AE48093CD0481E38093570356
:1020000087E3809358030895823059F48BE28093DC
:1020100052038AE48093CD0484E38093570383E3DF
:10202000F0CF833081F785E4809352038AE4809374
:10203000CD0486E38093570389E3E3CFFC018081DD
:10204000813069F480E18093520388E48093CD0469
:1020500081E38093570386E3809358030895823089
:1020600059F48AE28093520388E48093CD0484E398
:102070008093570382E3F0CF833081F784E4809329
:10208000520388E48093CD0486E38093570388E36A
:10209000E3CFFC018081813069F48FE080935203AB
:1020A00087E48093CD0481E38093570385E3809395
:1020B00058030895823059F489E28093520387E4EB
:1020C0008093CD0484E38093570381E3F0CF833082
:1020D00081F783E48093520387E48093CD0486E301
:1020E0008093570387E3E3CFFC018081813069F45B
:1020F0008EE08093520386E48093CD0481E3809345
:10210000570384E3809358030895823059F488E29A
:102110008093520386E48093CD0484E38093570335
:1021200080E3F0CF833081F782E48093520386E42A
:102130008093CD0486E380935703E4CFFC01808134
:10214000813069F48DE08093520384E48093CD0460
:1021500081E38093570383E380935803089582308B
:1021600059F487E28093520384E48093CD0483E39F
:102170008093570389E3F0CF833081F781E4809324
:10218000520384E48093CD0486E38093570385E370
:10219000E3CFFC018081813069F48CE080935203AD
:1021A00083E58093CD0481E38093570382E380939A
:1021B00058030895823059F486E28093520383E5F0
:1021C0008093CD0483E38093570388E3F0CF83307B
:1021D00081F780E48093520383E58093CD0486E306
:1021E0008093570384E3E3CFFC018081813061F465
:1021F0008BE08093520381E48093CD0481E380934C
:102200005703809358030895823059F485E28093F0
:10221000520381E48093CD0483E38093570387E3E3
:10222000F0CF833081F78FE38093520381E4809372
:10223000CD0486E38093570383E3E3CFFC018081E1
:10224000813069F48AE08093520380E58093CD0465
:1022500081E38093570380E380935803089582308D
:1022600059F484E28093520380E58093CD0483E3A4
:102270008093570386E3F0CF833081F78EE380931A
:10228000520380E58093CD0486E38093570382E375
:10229000E3CFFC018081813069F489E080935203AF
:1022A0008FE48093CD0480E38093570389E3809388
:1022B00058030895823059F483E2809352038FE4E7
:1022C0008093CD0483E38093570385E3F0CF83307D
:1022D00081F78DE3809352038FE48093CD0486E3EE
:1022E0008093570381E3E3CFFC018081813069F45F
:1022F00088E08093520389E48093CD0480E3809347
:10230000570388E3809358030895823059F482E29A
:102310008093520389E48093CD0483E38093570331
:1023200084E3F0CF833081F78CE38093520389E418
:102330008093CD0486E38093570380E3E3CFFC01D1
:102340008081813069F487E08093520385E5809332
:10235000CD0480E38093570387E380935803089567
:10236000823051F481E28093520385E58093CD045D
:1023700083E380935703F1CF833089F78BE3809316
:10238000520385E58093CD0485E38093570389E369
:10239000E4CFFC018081813069F486E080935203B0
:1023A00089E58093CD0480E38093570386E380938F
:1023B00058030895823059F480E28093520389E5EE
:1023C0008093CD0483E38093570382E3F0CF83307F
:1023D00081F78AE38093520389E58093CD0485E3F6
:1023E0008093570388E3E3CFFC018081813069F457
:1023F00085E08093520384E58093CD0480E380934D
:10240000570385E3809358030895823059F48FE190
:102410008093520384E58093CD0483E38093570334
:1024200081E3F0CF833081F789E38093520384E521
:102430008093CD0485E38093570387E3E3CFFC01CA
:102440008081813069F484E08093520382E5809337
:10245000CD0480E38093570384E380935803089569
:10246000823059F48EE18093520382E58093CD044B
:1024700083E38093570380E3F0CF833081F788E3D1
:102480008093520382E58093CD0485E380935703C4
:1024900086E3E3CFFC018081813069F483E080939F
:1024A000520385E48093CD0480E38093570383E354
:1024B000809358030895823059F48DE1809352033C
:1024C00085E48093CD0482E38093570389E3F0CFC2
:1024D000833081F787E38093520385E48093CD04B2
:1024E00085E380935703E4CFFC018081813069F458
:1024F00082E08093520387E58093CD0480E380934C
:10250000570382E3809358030895823059F48CE195
:102510008093520387E58093CD0482E38093570331
:1025200088E3F0CF833081F786E38093520387E519
:102530008093CD0485E38093570384E3E3CFFC01CC
:102540008081813061F48093520381E58093CD04D2
:1025500080E38093570381E380935803089582308A
:1025600059F48BE18093520381E58093CD0482E39B
:102570008093570387E3F0CF833081F785E380931F
:10258000520391E59093CD048093570383E3E4CF06
:102590001092A30480917703EAE2F4E0882359F0D3
:1025A0008091AC0487FF07C08EE1DF011D928A9500
:1025B000E9F70C949E0A86E0F8CF1F93CF93DF9340
:1025C000CDB7DEB7AA970FB6F894DEBF0FBECDBF6A
:1025D0008CE295E02091F100FC012193CF01F5E020
:1025E00084339F07B9F780912D05833009F46FC0BC
:1025F000B8F4813009F446C0823009F4B0C080914B
:10260000E80083FF85C280912C0590912D059A30BA
:1026100008F07EC2E92FF0E0E554FC4C0C94E33066
:102620008A3009F48BC08B3009F46EC0893039F7D9
:1026300080912C05813219F78091300590913105F8
:102640000297E8F68091E800877F8093E800809108
:10265000E80082FF37C09091F3008091F20002976A
:1026600029F48091F1008B7F813021F48091F10079
:10267000809307058091E8008B778093E8000E94A3
:102680002607BDCF80912C05813A09F0B8CF809103
:10269000E800877F8093E8008091300590913105B4
:1026A000892B61F460E288E095E070E00E94D80731
:1026B0008091E8008B778093E800A1CF60E090E004
:1026C00080E0F3CF80912A058111C1CF98CF80910E
:1026D0002C05813A09F093CF809130059091310516
:1026E000892B09F08CCF8091E800877F8093E800E8
:1026F0008091E80080FFFCCF809177038093F10008
:102700008091E8008E77B9CF80912C05813209F055
:1027100076CF8091300590913105892B09F06FCFEC
:102720008091E800877F8093E8000E9426078091CF
:102730002E05809377030E94C81261CF80912C05EB
:10274000813209F05CCF8091E800877F8093E800B8
:102750000E94260780912F058093060550CF809117
:102760002C05813A09F04BCF8091E800877F809358
:10277000E8008091E80080FFFCCF80910605BECF85
:10278000803899F0823809F0C3C1809130058F708C
:10279000873008F0BDC18093E9008091EB0085FB94
:1027A000882780F91092E90006C080912805909151
:1027B0002905911182609091E800977F9093E8003D
:1027C0008093F1001092F1008091E8008E779CC117
:1027D000882309F48AC1823009F09AC180912E05BC
:1027E00081118DC1809130058F702FEF280F263019
:1027F00008F08EC18093E9002091EB0020FF7FC19B
:10280000933031F48091EB0080628093EB0077C1CC
:102810009091EB0090619093EB0021E030E001C0DB
:10282000220F8A95EAF72093EA001092EA0080913D
:10283000EB008860EACF81116BC110912E051F77E4
:102840008091E3008078812B8093E3008091E80001
:10285000877F8093E8000E9426078091E80080FF30
:10286000FCCF8091E30080688093E30082E0111147
:1028700083E080932A054CC18058823008F048C11B
:1028800080912E0590912F058C3D23E09207A1F5B4
:1028900083E08A838AE289834FB7F894DE01139636
:1028A00020E03EE051E2E32FF0E050935700E49146
:1028B00020FF03C0E295EF703F5FEF708E2F90E036
:1028C000EA30C0F0C7968D939D932F5F243159F75E
:1028D0004FBF8091E800877F8093E8006AE270E054
:1028E000CE0101960E94D8078091E8008B778093F3
:1028F000E8000EC1C096E7CF4091300550913105F8
:10290000292F33272330310509F444C078F52130CD
:10291000310509F46FC08FE990E0E6ECF4E0223075
:10292000310509F0F5C02091E800277F2093E800E9
:1029300020913205309133058217930708F49C01EA
:1029400040E02115310509F064C0411162C0809159
:10295000E80082FDC9CF80912A05882329F28530BD
:1029600019F28091E80083FFF2CFBECF213231050A
:10297000A9F12232310509F0CBC04115510509F406
:1029800043C04130510509F0C3C08DE690E0E9E154
:10299000F4E0C9CF992781309105C1F0009759F033
:1029A000029709F0B5C0E7E7F5E0E4918E2F90E0DB
:1029B000E7E7F5E007C0EDE9F5E0E4918E2F90E060
:1029C000EDE9F5E0009709F4A3C0ADCFE5E8F5E047
:1029D000E4918E2F90E0E5E8F5E0F4CF4115510544
:1029E00071F04130510509F093C089E090E0E1EFCA
:1029F000F4E099CF82E190E0E5E6F5E094CF89E05C
:102A000090E0E8EDF4E08FCF80E490E0E6E8F4E0D9
:102A10008ACF80912A05882309F466CF853009F48E
:102A200063CF8091E80083FD5FCF8091E80082FD55
:102A30008ECF8091E80080FF84CF9091F300809149
:102A4000F2002115310519F08830910550F041E070
:102A5000089709F040E08091E8008E778093E800C5
:102A600070CF44914093F100319621503109019685
:102A7000E8CF803809F04CC08091E800877F8093D0
:102A8000E80080912B058093F1009ECE811140C01B
:102A900010912E051230E0F58091E800877F809339
:102AA000E80010932B050E942607112311F084E003
:102AB00005C08091E30087FDFACF81E080932A056D
:102AC00042E061EC81E00E94450742E261EC82E075
:102AD0000E94450742E361E883E00E94450742E324
:102AE00061E884E00E94450713C080912E05813083
:102AF00079F481E0933009F080E080932905109209
:102B0000E9008091E800877F8093E8000E94260713
:102B10008091E80083FF0AC08091E800877F80935E
:102B2000E8008091EB0080628093EB00AA960FB6DC
:102B3000F894DEBF0FBECDBFDF91CF911F910895F6
:102B40000F931F9341E050E060E070E08A019B0129
:102B500004C0000F111F221F331F8A95D2F7C9012D
:102B6000B8010E94B60A1F910F910C94C812CF931E
:102B7000DF93682F81E06A3019F06D3029F480E02E
:102B8000DF91CF910C94461680912D0890912E08DC
:102B900026E0FC01A7E2B8E001900D922A95E1F74A
:102BA000603E08F45AC026E0FC0111922A95E9F72C
:102BB000C0912D08D0912E0846E050E0BE0187E27A
:102BC00098E00E946A319E0127523640892B41F1DC
:102BD000C90145E0969587954A95E1F741E050E0B7
:102BE000BA0102C0660F771F8A95E2F7CB016091A8
:102BF000250670912606862B972BB9016B5F7F4FB8
:102C0000E5E076956795EA95E1F702C0440F551F18
:102C10006A95E2F7842B952B9093260680932506E0
:102C20002A5F3F4F40912406642F70E0C9010E9443
:102C3000BB30481B463010F4240F311D211572E0C3
:102C4000370710F030E020E0295D394F30932E082F
:102C500020932D08DF91CF910895F6E06F9FB0018A
:102C600011246F557A4F46E050E00E945431A0CFB6
:102C7000CF93DF93EC01FE018491811103C0DF91BA
:102C8000CF9108950E94B7152196F5CFCF93382F95
:102C9000E0912D08F0912E08E752F640209124068D
:102CA000622F70E0CF010E94BB30281B822F33239C
:102CB00061F066E00E94AF30C82FC15010F4CF9190
:102CC000089580E20E94B715F8CF9F01280F311DAB
:102CD0002115324018F080E0F0E0E0E08E0F9F2FE9
:102CE000911D895D994F90932E0880932D08E7CF11
:102CF0000F931F93CF93DF93EC01FC010190002011
:102D0000E9F78F0101501109C017D10728F0DF91B1
:102D1000CF911F910F91089589910E94B715F4CF1B
:102D2000CF92DF92EF92FF920F931F93CF93DF9397
:102D30006C017B0164E670E088E70E94CC2FEC0117
:102D400097FD12C010E000E0F601E00FF11F849142
:102D500064E670E00E942830EC01892B29F40F5FB3
:102D60001F4F0E151F0581F70E94AB30CE01DF917A
:102D7000CF911F910F91FF90EF90DF90CF9008952A
:102D8000CF93C091F8048091F9048823D1F00E9478
:102D9000780960547B428E4F9F4F6093F404709388
:102DA000F5048093F6049093F704C11108C062E023
:102DB00070E081EB92E00E949016892B29F0C0917F
:102DC000F8048C2FCF91089581E08093F804F7CF19
:102DD000CF93DF9300D00F92CDB7DEB790912A0545
:102DE000943019F589837B836A8382E08093E900BC
:102DF0008FEF9091E800815095FD06C095ED9A9572
:102E0000F1F700008111F5CF8091E80085FF0DC03A
:102E100050E040E063E070E0CE0101960E94FC06C5
:102E20008091E8008E778093E8000F900F900F90CC
:102E3000DF91CF910895BC0184E00C94E816BC01A9
:102E400083E00C94E816CF93DF93EC018091770335
:102E50008823B1F18091AC0487FF32C060E282E048
:102E60008093E9008FEF9091E800815095FD06C0B6
:102E700095ED9A95F1F700008111F5CF8091E8006A
:102E800085FF1BC08091770370E050E040E0811126
:102E900004C050E040E068E070E0CE010E94FC0613
:102EA0008091E8008E778093E80080E2FE01A8E040
:102EB000B5E001900D928A95E1F7DF91CF910895E9
:102EC00068E081E0CDCF8091010580FD0AC0EBE490
:102ED000F4E0118210821282339654E0E336F50753
:102EE000C1F7849A31B33F7E21B320614FB7F89484
:102EF0008BE494E0FC015191CF0168E021BB00001C
:102F000000C057FF31BB550F000000C000C000C01B
:102F100031BB00C06A9591F7F4E083369F0751F703
:102F20004FBF8FE594E00197F1F700C000000895CE
:102F30004F925F926F927F928F929F92AF92BF92C9
:102F4000CF92DF92EF92FF920F931F93CF93DF9375
:102F5000FC016280448081E08483E1EBF1E07490C5
:102F6000E0E3F2E0E491C3E6D4E03BE4E32E34E0B6
:102F7000F32E4BE8C42E44E0D42E52E0A52EBB2401
:102F8000B39488248A94912C55245A94E7190E2FCF
:102F900010E082E0861530F08091020588838091F0
:102FA00003058983411021C01B821A8297014A813F
:102FB000698188810E949A0B259683E0E80EF11CB6
:102FC000CC16DD0631F7DF91CF911F910F91FF9065
:102FD000EF90DF90CF90BF90AF909F908F907F90B9
:102FE0006F905F904F900C9463178B818823E9F06A
:102FF00081508B83859DC00111246C8170E00E94FB
:10300000BB30FB01FF27EF54FE4F8491E82FE719F7
:10301000E59DC0011124B8010E94BB3080910405D8
:10302000689FB00111247A83C1CF0E94443120915E
:103030000405269521582A9DA0012B9D500D112491
:10304000452F5527841795070CF0B0CF82E08615E1
:1030500088F40E944431B4010E94CF3088830E94DA
:103060004431209103052695622F70E00E94CF30F5
:10307000280F29831A8280910405893C20F088EC6E
:103080008C838B8393CF8431D8F784E1F9CFEF928F
:10309000FF921F93CF93DF93EC018BE4E82E84E043
:1030A000F82E10E08C819701409104056091030592
:1030B000810F0E949A0B115E83E0E80EF11C183F0D
:1030C00089F70E9463179A818C8190FF08C08F5FF7
:1030D0008C83DF91CF911F91FF90EF9008958150E5
:1030E000F7CFCF92DF92EF92FF920F931F93CF9380
:1030F000DF93FC018281DD24DA9480FD02C0DD24AF
:10310000D394CBE4D4E010E000E0198218821A8254
:1031100094E0E92EF12CC12C809148048C0D89306B
:10312000CCF18770082E000C990B8017910791F451
:10313000809104058E9DA0018F9D500D1124559501
:103140004795559547959E0160910305809102052D
:103150000E949A0BCD0CF1E0EF1AF108E9F60F5F2F
:103160001F4F23960830110581F60E946317809146
:10317000480491E0D91214C0811110C087E08093F7
:103180004804DF91CF911F910F91FF90EF90DF9056
:10319000CF90089587FFC6CF885FC4CF8150EFCF0F
:1031A00090E0019687709927EACF0F931F93CF93F2
:1031B000DF93CBE4D4E0FE011182108212823396B9
:1031C00084E0E336F807C1F710E000E0809149049D
:1031D000082E000C990B081719078CF1809110012B
:1031E000082E000C990B801791074CF19E0140911D
:1031F000040560910305809102050E949A0B0F5F00
:103200001F4F23960830110509F70E94631780911C
:103210000F0190914904980F909349042091100157
:10322000280F20931001121614F497301CF081958A
:1032300080930F01DF91CF911F910F910895198213
:1032400018821A82DCCF8F929F92AF92BF92CF9258
:10325000DF92EF92FF920F931F93CF93DF93EC01D6
:103260004C81042F10E09801D8010E9413329B0179
:10327000AC010E94DE314B015C01E0E2F0E0E01BBA
:10328000F10BA5E5B0E0AC019B010E94DE316B01C2
:103290007C019F01DF010E94E9309B01AC010E948B
:1032A000E9319B01AC01280D391D4A1D5B1DC70189
:1032B000B6010E94F131F22E822F90E039E23F15E3
:1032C000D8F143E0249F9001112435952795122FC2
:1032D00010959BE4C92E94E0D92E00E085E5E82EF8
:1032E000EF188E2D01FD8F2D9601412F6091030562
:1032F0000E949A0B0F5F53E0C50ED11C083089F76E
:103300000E9463179C8181E0992319F0903219F48F
:103310008FEF8093110180911101890F8C83DF91D0
:10332000CF911F910F91FF90EF90DF90CF90BF90C2
:10333000AF909F908F90089525E530E0A901481B3C
:10334000590BCA019A01220F331F280F391F37FF6B
:10335000BCCF2F5F3F4FB9CFEF92FF920F931F93D8
:10336000CF93DF938C01CBE4D4E0F12CE12CF80176
:1033700094816091030580910205F4E0EF16F10459
:10338000FCF49923F9F09E01409104050E949A0BE8
:103390002FEFE21AF20A239688E0E816F10439F7D3
:1033A0000E946317F801848190E00196817099274B
:1033B0008483DF91CF911F910F91FF90EF9008953B
:1033C000992309F39E0140E0E1CF9091010590FF20
:1033D0000CC0EBE4F4E0818360834283339694E095
:1033E000E336F907C1F70C94631708950F931F9301
:1033F000CF93DF9300D00F92CDB7DEB78C018091D1
:103400004A0481110AC09E012F5F3F4F4FEF6FEFBB
:103410000E949A0B8A8180934A04F801648161308A
:1034200069F080914A0440E0662361F040E0623038
:1034300011F440914A0480E060E004C060914A04C5
:1034400040E080E00E94E519F801848190E0019657
:1034500063E070E00E94CF3084830F900F900F9054
:10346000DF91CF911F910F910895CF93DF9300D0FB
:103470000F92CDB7DEB79091010590FF0AC09E0173
:103480002F5F3F4F0E949A0B4B8169818A810E9476
:10349000E5190F900F900F90DF91CF910895CF9382
:1034A000DF93EC01EC81F0E0EF54FE4F4491E1E05A
:1034B000F5E0628181810E94351A8C818F5F8C8357
:1034C000DF91CF910895CF93DF93EC01E1E0F5E038
:1034D000438162818C810E94351A8C818F5F8C833D
:1034E000DF91CF9108950E94C8120E94300C2FEFF7
:1034F00084E39CE0215080409040E1F700C0000050
:1035000087E797E7909301088093000888E19AE0A5
:103510000FB6F894A895809360000FBE909360005A
:10352000FFCFCF9384E090E00E947731C82F82E2F2
:1035300090E00E947731982F8C2FCF910895CF92F1
:10354000DF92EF92FF926B017C010E948B0BB7011F
:10355000A60188E090E0FF90EF90DF90CF900C9470
:103560009D317F928F929F92AF92BF92CF92DF92C6
:10357000EF92FF920F931F93CF93DF9300D00F92A0
:10358000CDB7DEB7182FD62E042FC22E909101058D
:1035900090FF29C0E92FE695AE2FB0E0A556BC4FAD
:1035A0008C918093C6049E7F923071F59E012F5FAF
:1035B0003F4F812F0E949A0B4B8169818A810E9423
:1035C000E51910930205D092030500930405CC2061
:1035D00051F0609101057091020580910305909171
:1035E00004050E949F1A0F900F900F90DF91CF91CA
:1035F0001F910F91FF90EF90DF90CF90BF90AF9011
:103600009F908F907F900895823019F40091040567
:10361000D8CF863019F410910205D3CF8930D9F371
:10362000893179F6E9512E2F2170722EE695F0E05E
:10363000E455FE4F8590949099243BE4E32E34E0CA
:10364000F32EB12CA12CC50123E0969587952A95E0
:10365000E1F7711013C0810F9701402F6D2D0E946B
:103660009A0BA80CB91C83E0E80EF11C23E6E216C5
:1036700024E0F20641F70E946317A3CF212F281BF5
:10368000822FEACFE1E0F5E0438128E0421B08F415
:1036900040E021E0628181810C94B11AE1E0F5E023
:1036A000438128E0420F08F44FEF21E062818181DD
:1036B0000C94B11AE1E0F5E0628128E0621B08F4A5
:1036C00060E021E0438181810C94B11AE1E0F5E0F2
:1036D000628128E0620F08F46FEF21E0438181816D
:1036E0000C94B11AE1E0F5E0818121E0438162812F
:1036F00088500C94B11AE1E0F5E0818121E043812A
:103700006281885F0C94B11A80910505882319F0B5
:1037100081508093050560910105709102058091AB
:103720000305909104050C949F1A80910505833040
:1037300018F48F5F80930505609101057091020573
:1037400080910305909104050C949F1AE1E0F5E047
:1037500083E0808311828FEF828383831482608170
:103760007181828193810C949F1A6AEE7EEF90E0C2
:1037700080E00E94A93160E082E090E00E948B31FD
:1037800060E083E090E00E948B311092A4041092DC
:10379000A5041092A6041092A70460E084E090E0D3
:1037A0000E948B3160E082E290E00E948B3160E009
:1037B00085E090E00E948B3160E086E090E00E941E
:1037C0008B316FEF87E090E00E948B3140E050E05A
:1037D000BA0188E090E00E949D3160E08DE090E0C9
:1037E0000E948B3140E050E0BA0188E190E00E94F5
:1037F0009D3160E087E190E00E948B3140E050E035
:10380000BA018CE190E00E949D3170E060E080E2BE
:1038100090E00E94A93140E050E0BA0188E190E0D8
:103820000E949D3140E050E0BA018FE090E00E949C
:103830009D3140E050E0BA0183E190E00C949D316D
:10384000EBEFE80FEF3308F059C0F0E0EB53FC4C1E
:103850000C94E3300E94B51B81E008958091FB0435
:10386000807F8093FB0481E08093970408950E94F9
:10387000731A9091FB04892F8E7F90FF8160809353
:10388000FB0480FDE9CF817F8093FB04E5CF90911D
:10389000FB04892F8D7F91FF82608093FB0481FF61
:1038A000DBCF8091FB048160EFCF9091FB04892FE7
:1038B0008B7F92FF84608093FB0482FDF2CFCCCF9C
:1038C0009091FB04892F877F93FF88608093FB048E
:1038D00083FDE7CFC1CF0E94C8129091AC04892F1D
:1038E00097FB87F980588093AC04B6CF80E00E94A4
:1038F000A015B2CF8953FBCF8D51F9CF80E0089549
:10390000CF93C82F882309F481C08238C1F40E9464
:10391000C00A81FD7BC089E30E94DA090E948B09FD
:103920002FEF81EE94E0215080409040E1F700C0FD
:10393000000089E30E94AF09CF910C948B09833872
:10394000A1F40E94C00A80FD61C083E50E94DA09EB
:103950000E948B092FEF81EE94E02150804090402F
:10396000E1F700C0000083E5E5CF8438A1F40E94B0
:10397000C00A82FD4BC087E40E94DA090E948B09CD
:103980002FEF81EE94E0215080409040E1F700C09D
:10399000000087E4CFCF8CEF8C0F813A08F05BC03A
:1039A00080919704882349F1813091F11092970416
:1039B00080917703882309F440C08091AC0487FF8D
:1039C0003CC0EC2FE695E695E695F0E0E85DFB4F10
:1039D000828190E04C2F477021E030E002C0220F3E
:1039E000331F4A95E2F782239323892B81F18C2F91
:1039F0000E94AF090E948B092AC08091A3048232E1
:103A0000B9F68C2F0E94201C882391F2CF91089543
:103A10008091A3048232A9F3C43161F028F4CB3041
:103A200039F080E08170F0CFC93221F0C833C9F796
:103A300081E0F8CF10929704F4CFEAE2F4E080E35B
:103A400094E02191C21799F28E179F07D1F78C2F1E
:103A50000E94DA0971CF80E28C0F883068F4C77059
:103A600021E030E001C0220FCA95EAF78091A3045B
:103A7000822B8093A30460CFEBE5EC0FE33040F49E
:103A8000F0E0EA53FC4F808190E0CF910C94880ADB
:103A9000C85AC73108F0BACFEC2FF0E0EE0FFF1F85
:103AA000E753FC4F80819181CF910C94720A1F9350
:103AB000CF93DF93182FEB010E94801C209731F4E5
:103AC000812FDF91CF911F910C94CC0A8FE99FE059
:103AD0000197F1F700C000002197F0CF1F920F92DD
:103AE0000FB60F9211242F933F934F935F936F93D1
:103AF0007F938F939F93AF93BF93CF93DF93EF9376
:103B0000FF93D091E900DF708091EC00C82FC17065
:103B100080FDC0E81092E9008091F000877F8093DB
:103B2000F00078940E94DD121092E9008091F0007C
:103B300088608093F000CD2BCF70C093E900FF9197
:103B4000EF91DF91CF91BF91AF919F918F917F9135
:103B50006F915F914F913F912F910F900FBE0F90FA
:103B60001F90189578941F921FB61F9211248F935F
:103B70009F93AF93BF938091A8049091A904A091C3
:103B8000AA04B091AB040196A11DB11D8093A804B5
:103B90009093A904A093AA04B093AB04BF91AF91F2
:103BA0009F918F911F901FBE1F9018952FB7F8946B
:103BB0008091A8049091A904A091AA04B091AB04AB
:103BC0002FBF08950F931F93CF93DF93C62FD42F4A
:103BD000022FFC0182818823A1F0609323060E94BA
:103BE000D61D9093220680932106C77081E001C004
:103BF000880FCA95EAF7DF91CF911F910F910C942E
:103C0000680A80912306681337C08091210690913D
:103C100022060E946909883C910570F510E21D0F8B
:103C2000CD17B9F080E28C0F883040F4C77081E086
:103C300001C0880FCA95EAF70E94610A183048F45B
:103C400081E09D2F977001C0880F9A95EAF70E9436
:103C5000680A70E060E0802F0E94571D183098F4C9
:103C6000D77081E001C0880FDA95EAF7DF91CF9134
:103C70001F910F910C94610AC77081E001C0880FF9
:103C8000CA95EAF7F3CFDF91CF911F910F91089575
:103C900060910105669570E04BE050E084E091E0B2
:103CA0000E945D31892B19F481E08093C7040E9442
:103CB000D61D9093C1048093C0040895909101058E
:103CC00090FF36C09170811129C0926090930105D8
:103CD000662351F060910105709102058091030502
:103CE000909104050E949F1A60910105669570E00D
:103CF0004BE050E084E091E00E945D31892BA9F017
:103D00001092C70481E08093C30420E04091040531
:103D100060910305809102050C94B11A8B3210F06A
:103D20009465D4CF880F982BD1CF0E94481EEACF3C
:103D300008951F920F920FB60F9211242F933F9365
:103D40004F935F936F937F938F939F93AF93BF93A3
:103D5000EF93FF938091E10082FF09C08091E20020
:103D600082FF05C08091E1008B7F8093E10080910C
:103D7000DA0080FF24C08091D80080FF20C08091AD
:103D8000DA008E7F8093DA008091D90080FFA1C095
:103D900080E189BD82E189BD09B400FEFDCF81E0EB
:103DA00080932A0580910005811109C00E94AC060C
:103DB0000E9477078091E20084608093E200809106
:103DC000E10080FF17C08091E20080FF13C0809166
:103DD000E2008E7F8093E2008091E2008061809318
:103DE000E2008091D80080628093D80019BC85E001
:103DF00080932A058091E10084FF2FC08091E2002A
:103E000084FF2BC080E189BD82E189BD89B5982FEF
:103E1000917080FFFBCF8091D8008F7D8093D80078
:103E20008091E1008F7E8093E1008091E2008F7E9F
:103E30008093E2008091E20081608093E2008091B3
:103E40002B05882309F44BC084E080932A050E9447
:103E5000C8120E94C00A0E94481E8091E10083FFA0
:103E600027C08091E20083FF23C08091E100877F1B
:103E70008093E10082E080932A0510922B058091C7
:103E8000E1008E7F8093E1008091E2008E7F80933D
:103E9000E2008091E20080618093E20042E060E015
:103EA00080E00E9445078091F00088608093F000D8
:103EB000FF91EF91BF91AF919F918F917F916F9102
:103EC0005F914F913F912F910F900FBE0F901F90D8
:103ED000189519BC10922A051092000570CF809198
:103EE000E30087FD93E090932A05B1CF809101050F
:103EF0008695815009F48AE261E00C945E1E8091FF
:103F0000010586958F5F8B3208F081E061E00C94AB
:103F10005E1E9091010590FF07C09695981720F0BE
:103F2000961710F40C947F1F61E00C945E1E4F9264
:103F30005F926F927F928F929F92AF92BF92CF9239
:103F4000DF92EF92FF920F931F93CF93DF93CDB742
:103F5000DEB7A8970FB6F894DEBF0FBECDBF6C01D9
:103F6000DC0113968D919C911497892B49F01C913B
:103F700011960C91812F80238F3F11F00C941C28F7
:103F8000A8960FB6F894DEBF0FBECDBFDF91CF91DC
:103F90001F910F91FF90EF90DF90CF90BF90AF9067
:103FA0009F908F907F906F905F904F9008950E94A8
:103FB000E50DF82E682F89819A810E94350AB4E0B8
:103FC000FB9EF0011124E00FF11DEE0FFF1FEE0F1D
:103FD000FF1FE10FF11DEE0FFF1FED54FD4FE590A8
:103FE000F490F6018281811186C0F4ECEF16FCE5B5
:103FF000FF0609F44BC108F046C03BEAE316F104A2
:1040000009F4BCC1F8F474E0E716F10458F08EE14D
:10401000E816F10410F40C94312898EAE916F1043A
:1040200009F49BC1F6E2EF16FCE5FF0609F0B3C107
:10403000D60112968C91882309F4BCC181E080934B
:1040400093049ECFAEEAEA16F10409F474C1B3EC0E
:10405000EB16BCE5FB0609F4F8C0ECEAEE16F10439
:1040600009F7D60112968C91882309F400C180E5E6
:104070008093530382E58093540386E58093550330
:1040800085E090E012C1F8ECEF16FCE5FF0609F4BC
:1040900029C1B0F4D60112968C91B6ECEB16BCE5B2
:1040A000FB0609F415C108F405C1882309F4DFC033
:1040B00088E48093530385E58093540385E403C12A
:1040C000FAECEF16FCE5FF0609F427C108F418C165
:1040D0003BECE3163CE5F30609F0A4CFF601828140
:1040E000882309F4C4C086E58093530381E4809358
:1040F00054038CE4E8C0C7019056811560E296072E
:1041000050F0905E811570E1970728F0915C811561
:104110009F4108F04AC0C70199279C0124503109EA
:104120002432310508F44BC08B970E9708F447C032
:10413000809151038F3F09F458CF05E111E0B12C74
:10414000A12C9924939480915103082E000C990B73
:104150008A159B050CF449CFD80116968C911697B9
:104160008823E9F019968D919C91E816F90639F4A7
:104170008091940490919504E816F90681F0F80175
:104180009786F486E3868189811103C0C8010E9465
:104190001B0BC80106960E943C0B1092BF04FFEF58
:1041A000AF1ABF0A0A5E1F4FCECF90E080E0BFEF8C
:1041B000EB16F10411F008F0B0CFC701AECF80913B
:1041C000B5049091B6040097A9F10E946909109175
:1041D000B4049C0150E040E060E67AEE80E090E0BC
:1041E0000E94BF31CA01B90125E030E040E050E053
:1041F0000E94BF31CA01B901611B7109810991098E
:104200000E94C03227EA39E747E45DE30E944C335D
:104210004B015C01612F70E090E080E00E94C032B1
:104220009B01AC01C501B4010E9423320E948F3270
:104230006093B4040E94D61D9093B6048093B50495
:10424000F6018281811174CFD0CED60112968C9165
:10425000882369F082E58093530387E480935403B5
:1042600082E4809355031092CC041092CB04BCE2FC
:10427000EB16BCE5FB0609F09DC0F60182818823A0
:1042800009F4CAC081E0809392047ACEF60182815B
:10429000882369F38DE4809353038FE48093540360
:1042A00084E48093550381E090E09093CC04809364
:1042B000CB04DDCF8823D9F28DE4809353038FE4C0
:1042C0008093540384E48093550382E090E0EDCF23
:1042D000882369F288E48093530385E5809354032F
:1042E00085E4DFCFD60112968C91882309F4BFCFE5
:1042F00083E58093530381E48093540384E5D1CF15
:10430000F6018281882309F4B2CF83E580935303B9
:1043100081E48093540384E5D6CFD60112968C9124
:10432000882309F4A4CF86E58093530381E4809326
:1043300054038CE4B6CFD60112968C91882309F4ED
:1043400096CF80E5809353038CE48093540389E5F2
:104350008093550384E090E0A8CFF6018281882302
:1043600009F485CF8DE48093530385E5809354034E
:1043700084E58093550386E090E097CFF601828133
:10438000882309F474CF8EE48093530388E58093E7
:10439000540384E573CEB7E2EB16BCE5FB0609F0E7
:1043A00060C6F6018281882311F10E943F0C1092B1
:1043B0009304E6CDFDE2EF16FCE5FF0651F4D601CD
:1043C00012968C91882341F10E94300C1092920435
:1043D000D7CDBEE2EB16BCE5FB0649F4F6018281BF
:1043E0008823D1F0809192048111EECF4BCFF9E276
:1043F000EF16FCE5FF0681F4D60112968C91882316
:1044000059F00E943F0C8091120190E00196837058
:10441000992780931201B4CD80919304811129C012
:1044200080919204811125C0C70197558F3F910556
:1044300009F008F4E3C0F4EFEF16FCE5FF0609F419
:10444000C6C108F098C139EDE3163CE5F30609F45E
:10445000BAC16AEDE6166CE5F60609F4C4C178ED5A
:10446000E7167CE5F70609F00EC126E241EE61EEA3
:1044700091C1F6014281442309F440C0F0EEEF16E9
:10448000F10451F40E943F0C81E08093910410925A
:10449000900410928F0474CD22EEE216F10461F4C0
:1044A0000E943F0C80919104882319F081E0809351
:1044B00090041092910464CD33EEE316F10439F4C4
:1044C000809190048823D1F00E943F0CF2CF80911C
:1044D0001301909114010A9762E5E616F10449F080
:1044E00071E5E716F10451F48091130190911401E4
:1044F0000A96909314018093130142CD809112018A
:1045000081110FC0D60111962C91119784E090E093
:10451000821B91092C91205FBCE08B9F200D112400
:1045200010C0813081F5F601818124E030E0B901CD
:10453000681B7109262F220F220F260F80818D5CA8
:10454000280F80919204442309F449C0882361F024
:104550002F77E0913405F09135050FE740E963E0EE
:1045600070E084E395E0099580919104882329F017
:1045700080918F048F5F80938F04EFEFEE16F1042C
:1045800008F052CFFDCC823061F4D60111962C9107
:10459000119784E090E0821B91092C912D5CB7E08B
:1045A000BCCF2CE0833069F683E2E8E7F3E0DE017C
:1045B000119601900D928A95E1F7D601EC91EC0FDE
:1045C000FD2FF11D11962C9184E090E0821B910942
:1045D0002085BCE08B9F200D1124275FB2CF88235C
:1045E00061F22F77E0913405F091350500E040E865
:1045F00063E070E084E395E00995BFCF209151031B
:10460000022E000C330B2817390714F48093510342
:10461000D60112962C91129736E1389F5001399F9E
:10462000B00C112485010B5E1E4FF801208B1296F1
:104630009C918681992309F491C0F286E1868F5F6F
:1046400086830E94D61DD8011E969C938E931D973B
:1046500017961C9217978091BF049091A304892B01
:1046600018968C931897ED91FC911197309739F02B
:1046700054966D917C91C501855E9E4F0995F0928F
:104680009504E0929404F6019281992309F4FBC405
:1046900010922306F2E0EF16FCE5FF0608F401C5D0
:1046A00026E1E2162CE5F20638F097012B5F3C4537
:1046B0002930310508F0F5C40E94911A9093AD0499
:1046C0008093AC0430E1E3163CE5F30609F448C1FD
:1046D00008F0D1C078E0E7167CE5F70609F436C1AA
:1046E00008F09AC094E0E9169CE5F90609F426C1A1
:1046F00008F07CC0B2E0EB16BCE5FB0609F418C17B
:104700008091AC048260E3E0EE16ECE5FE0609F46D
:1047100012C16091AC041091AD0484E090E00E945D
:104720008B31612F82E290E00E948B31A8960FB608
:10473000F894DEBF0FBECDBFDF91CF911F910F91D7
:10474000FF90EF90DF90CF90BF90AF909F908F90B1
:104750007F906F905F904F900C94C812882309F45B
:1047600092CF8189882309F48ECFC501855E9E4F43
:104770000E943C0B88CF86EFE8168CE5F80679F1AD
:1047800050F127E245EE66EEA7EFEA16ACE5FA0631
:1047900009F079CFC601A8960FB6F894DEBF0FBE18
:1047A000CDBFDF91CF911F910F91FF90EF90DF90E0
:1047B000CF90BF90AF909F908F907F906F905F90C1
:1047C0004F900C94E21D27E245EE65EEE3CF26E222
:1047D00041EE60EEDFCF27E245EE64EEDBCF26E26E
:1047E00041EE62EED7CF28E241E0EFCF8091AC04FA
:1047F0008061F6E0EF16FCE5FF0609F49CC08091AD
:10480000AC04886027E0E2162CE5F20608F493C0B9
:104810008091AC0480628FC08091AC048D7F3CE0BD
:10482000E3163CE5F30609F486C078F48091AC0405
:104830008C607AE0E7167CE5F70609F47CC008F4A2
:1048400089C08091AC048E7F76C08091AC04877F54
:104850009EE0E9169CE5F90609F46DC08091AC0470
:104860008B7FAFE0EA16ACE5FA0608F464C08091ED
:10487000AC048F7E60C0BCEFEB16BCE5FB0609F410
:1048800061C068F5F3E1EF16FCE5FF0609F470C0BE
:1048900090F431E1E3163CE5F30609F465C062E10A
:1048A000E6166CE5F60609F034CF0E94C812809136
:1048B000AC048F7740C075E1E7167CE5F70609F494
:1048C0005FC008F473C08091AD0481609BEFE9166E
:1048D0009CE5F90609F01DCF8093AD041ACFE114D1
:1048E000ADE5FA0609F448C0A0F48091AD048D7FCF
:1048F000EEEFEE16ECE5FE0679F38091AD048E7FC7
:10490000FFEFEF16FCE5FF0638F38091AD048360FE
:10491000E3CF22E0E2162DE5F20609F450C0E0F103
:1049200063E0E6166DE5F60609F0F3CE60E048C0F8
:104930008091AC0481608093AC04EBCE8091AC0498
:104940008460F9CF8091AD048260C6CF8091AC04C1
:104950008064F1CF0E94C8128091AC048068EBCFD4
:104960008091AC048F7DE7CF8091AC048F7BE3CF47
:104970008091AC04837FDFCF8091AD048C7FACCF7E
:104980008091AC0482FB992790F921E0922790FB5B
:1049900082F990FB83F9CFCF8091AD04982F909549
:1049A00091708E7F892B90FB81F996CF0E94C8125F
:1049B0009091AC04892F97FB87F98058BCCF61E0B8
:1049C0008EE090E00E948B31A4CE85E37BC385E32B
:1049D00065C3992361F18091A30482727DECE7168F
:1049E0007CE5F70609F487C108F0BCC0B7ECEB160C
:1049F000BCE5FB0609F46BC108F075C0F4ECEF16DA
:104A0000FCE5FF0609F459C108F05CC033ECE3167D
:104A10003CE5F30609F400C1E114ECE5FE0609F4F7
:104A200084C1FFEDEF16FCE5FF0609F480C1D60155
:104A30000D911C91992309F492C1C8010E94E50DC2
:104A4000F82E682FC8010E94350AB8018F2D0E94E8
:104A50005C0C082FE82EF6018281192F12951F7029
:104A6000143009F4E3C108F07FC1123008F4A3C187
:104A7000212F2850330B2230310510F40E94C00A38
:104A800085E0F601DE01949601900D928A95E1F79A
:104A90008CA19DA10E940E0A34E0839FC0011124C5
:104AA000EDA18E0F911D880F991F880F991FECA102
:104AB000E80FF92FF11DEE0FFF1FED54FD4F85910B
:104AC00094915ECA65ECE6166CE5F60609F4FAC048
:104AD00076ECE7167CE5F70609F09ECF42E75BE14E
:104AE0006BE77BE117C0AAECEA16ACE5FA0609F41D
:104AF000F8C040F5E8ECEE16ECE5FE0609F4ECC073
:104B000046E65BE16AE57BE1F9ECEF16FCE5FF06C2
:104B100009F082CFA8960FB6F894DEBF0FBECDBFC6
:104B2000DF91CF911F910F91FF90EF90DF90CF9089
:104B3000BF90AF909F908F907F906F905F904F90BD
:104B40000C94860B2BECE2162CE5F20609F4CEC091
:104B500044E85BE165E97BE13CECE3163CE5F30608
:104B6000C9F25ACF62EDE6166CE5F60609F4D1C03B
:104B700070F58FECE8168CE5F80609F4C4C008F46B
:104B8000BFC0B0EDEB16BCE5FB0609F4BFC06EE09C
:104B900089E0E1EDEE16ECE5FE0609F03DCFA896C2
:104BA0000FB6F894DEBF0FBECDBFDF91CF911F913E
:104BB0000F91FF90EF90DF90CF90BF90AF909F90BC
:104BC0008F907F906F905F904F900C94891FF5EDC0
:104BD000EF16FCE5FF0609F4A2C078F433EDE31606
:104BE0003CE5F30609F498C064EDE6166CE5F606BC
:104BF00009F012CF61E088E148C076EDE7167CE568
:104C0000F70609F48FC08EE5E8168DE5F80609F081
:104C100003CF6AE285E2C3CF8091010580FF30C0F7
:104C20008E7F80930105609101057091020580914E
:104C30000305909104050E949F1A1092C7049FEFEC
:104C4000A0E7B2E09150A040B040E1F700C0000002
:104C5000A8960FB6F894DEBF0FBECDBFDF91CF91FF
:104C60001F910F91FF90EF90DF90CF90BF90AF908A
:104C70009F908F907F906F905F904F900C946317F0
:104C800081608093010561E08695A8960FB6F8943F
:104C9000DEBF0FBECDBFDF91CF911F910F91FF906F
:104CA000EF90DF90CF90BF90AF909F908F907F90CC
:104CB0006F905F904F900C945E1E46E75FE16FE748
:104CC0007FE128CF4FE75FE166E77FE123CF4BE746
:104CD0005BE162E77BE11ECF4AE55BE166E67BE1F3
:104CE00019CF42E45BE16EE47BE114CF4EE45BE17B
:104CF00062E47BE10FCF45E95BE164E87BE10ACF49
:104D000061E081E0C2CF65E082E049CF68E086E003
:104D100046CF64E18FE043CF67E185E140CF62E2B7
:104D200089E13DCF61E083E2B0CF0E94731AA8967B
:104D30000FB6F894DEBF0FBECDBFDF91CF911F91AC
:104D40000F91FF90EF90DF90CF90BF90AF909F902A
:104D50008F907F906F905F904F900C94B51BC8011F
:104D60000E940E0AF82E71CE183009F47BC019305B
:104D700009F07ECE9F70812C912C5401839404C045
:104D8000880C991CAA1CBB1C9A95D2F7882309F49D
:104D90003DC16091CE047091CF048091D004909178
:104DA000D104682979298A299B290E94AC0A802F7D
:104DB0000E94680A5DCEF92FFF70FF2E907F19F0D8
:104DC000F29450EFF5228823C9F0FF2069F080E2C9
:104DD000800F883010F001110BC08091A304F82AD5
:104DE000F092A3040E948B09802F0E94801C40CE69
:104DF0008091BF04F82AF092BF04F4CF802F0E9464
:104E0000CC0AFF2009F434CE005E083010F0E11027
:104E100006C08F2D0E9484090E948B0929CEF09430
:104E20008091BF04F822F092BF04F6CF292F269577
:104E30002695237051F0213009F01ACE882379F09D
:104E4000802F93700E94720A13CE882329F0802F3E
:104E500093700E94880A0CCE90E080E0FACF90E038
:104E600080E0F0CF292F237009F065C0811100CEBA
:104E7000802F829586958770880F880F602F6F70BE
:104E8000862E912CB12CA12C082E04C0880C991CC4
:104E9000AA1CBB1C0A94D2F740E050E0BA0104FF00
:104EA0000FC04FE050E060E070E004C0440F551FB9
:104EB000661F771F8A95D2F740955095609570953B
:104EC000969596959370923019F1D8F44090A40479
:104ED0005090A5046090A6047090A704913069F0EA
:104EE000482959296A297B29CB01BA0164217521F6
:104EF000862197210E94B60ABBCD84289528A62832
:104F0000B728CB01BA01682979298A299B29F2CFD0
:104F1000482959296A297B298090A4049090A504E6
:104F2000A090A604B090A704CB01BA01682579250A
:104F30008A259B25DFCF2695882311F0292F217004
:104F4000222309F495CD802F829586958770880F4E
:104F5000880F602F6F70862E912CB12CA12C082EFB
:104F600004C0880C991CAA1CBB1C0A94D2F740E010
:104F700050E0BA0104FF0FC04FE050E060E070E085
:104F800004C0440F551F661F771F8A95D2F74095BE
:104F9000509560957095969596959370923019F10D
:104FA000D8F44090CE045090CF046090D00470901C
:104FB000D104913069F0482959296A297B29CB010C
:104FC000BA0164217521862197210E94AC0A50CD37
:104FD00084289528A628B728CB01BA016829792901
:104FE0008A299B29F2CF482959296A297B2980904F
:104FF000CE049090CF04A090D004B090D104CB0107
:10500000BA01682579258A259B25DFCF802F0E944C
:10501000610AC501B4016095709580959095809066
:10502000CE049090CF04A090D004B090D104682119
:1050300079218A219B21C9CF85E0F601DE011196F5
:1050400001900D928A95E1F7D60112962C918981F3
:105050009A8121110C94D71F0E940E0AF82E0C94ED
:10506000DF1FB8E2EB16BCE5FB0609F000C9D6016C
:1050700012968C91882309F4BAC980919304811106
:1050800094C90C941E20E6E1EE16ECE5FE0609F04C
:10509000CECC8091960481119ACC89E20E94AF090E
:1050A00013C0F6E1EF16FCE5FF0609F092CC809103
:1050B000A3048A7A91E009F490E090939604811118
:1050C00084CC89E20E94DA09A8960FB6F894DEBF74
:1050D0000FBECDBFDF91CF911F910F91FF90EF9049
:1050E000DF90CF90BF90AF909F908F907F906F9008
:1050F0005F904F900C948B09CDB7DEB72A970FB60F
:10510000F894DEBF0FBECDBF1092590510925B051B
:1051100010925A0580EC80931E068CE595E09093E2
:10512000200680931F0610921D0610921C061092F6
:1051300039051092380510923B0510923A051092ED
:105140003D0510923C0510923F0510923E051092CD
:1051500041051092400510924305109242051092AD
:10516000450510924405109247051092460510928D
:1051700049051092480510924B0510924A0510926D
:105180004D0510924C0510924F0510924E0510924D
:1051900053051092520582E698E09093350580936E
:1051A00034058DEB98E0909355058093540589E381
:1051B00098E090935105809350058AE398E090938E
:1051C00037058093360584B7877F84BF0FB6F89480
:1051D000A8958091600088618093600010926000C3
:1051E0000FBE80E890E00FB6F89480936100909332
:1051F00061000FBE85B7806885BF85B7806885BFB1
:1052000087E398E090932704809326040E94AC06DD
:105210000E9477078091E20084608093E200789496
:1052200080912A058823A1F01091E9001F709091C8
:10523000EC00892F817090FD80E8182B1092E90016
:105240008091E80083FD0E94DD121F701093E90039
:1052500082E084BD93E095BD9AEF97BD80936E0088
:1052600081E30E94450C86E30E94450C82E30E9484
:10527000450C83E30E94450C86E60E94450C84E3BE
:105280000E94450C86EC0E94450C87E90E94450C63
:105290001092B7041092BB041092B8041092BC0490
:1052A0001092B9041092BD041092BA041092BE0478
:1052B00090E080E00E9485318A3E9E4F11F00E946E
:1052C000B51B82E090E00E9477318093FB040E943E
:1052D000911A9093AD048093AC0483E090E00E9417
:1052E0007731682F70E090E080E00E94B60A81E09C
:1052F0008093F20480E2809324060E94C62F6DE022
:1053000070E086E093E00E949016892BE9F5809189
:10531000F20463E070E081FD0FC183E093E00E943E
:105320009016892B89F56DE070E083EF92E00E9482
:105330009016892B49F50E94780960547B428E4F64
:105340009F4F6093F4047093F5048093F604909358
:10535000F704E7E2F6E080E092E0DF019C011D92B5
:1053600021503040E1F7F0932E08E0932D088FEFA5
:105370009FEF909326068093250681E08093F904A1
:105380008093F8041092F3048091AE04811136C02A
:1053900090E080E00E9485318A3E9E4F21F00E947D
:1053A000B51B0E94A61B88E090E00E947F316093AD
:1053B00001057093020580930305909304056E7FA9
:1053C00071F40E94A61B88E090E00E947F316093F8
:1053D00001057093020580930305909304050E94D4
:1053E0008B0B1092C7048091010580FF04C060E020
:1053F00086950E945E1E81E08093AE0487988F9A06
:1054000086988E9A8FB190E0880F892F881F990B0C
:105410007E9995C020E0822B8093CA048DE693E0AC
:105420009093B0048093AF04AA24A394B12C442495
:105430004394512CB6E1CB2E06E014E0A7EBEA2E04
:10544000A4E0FA2ED12CD8018D918D01F894E82F8B
:10545000E295EF70F0E021A18F70A50102C0440F2A
:10546000551F8A95E2F7CA01922F982B91A392A11A
:105470008095892382A3789400C0EAE0F4E030E0CC
:1054800020E0712C4191A42FA295AF70B0E09096CE
:105490008C9190E04F7002C0959587954A95E2F700
:1054A00080FD4FC08A2D022E01C0880F0A94EAF7B2
:1054B000782A2F5F3F4F2430310521F7F8013197CB
:1054C00080810E94450C50EA5A95F1F7D7018C91E2
:1054D0007816C9F17C9281E0D82ABFEFEB1AFB0A5B
:1054E000EAE0F4E0E017F10709F0ADCFDD2069F163
:1054F000F1E0F093B3040E94D61D9093B204809320
:10550000B1048091B1049091B2040E946909069798
:1055100000F18091B7048093BB048091B80480931C
:10552000BC048091B9048093BD048091BA04809337
:10553000BE041092B3040DC080E093E0F0CE22E0F0
:105540006ACF80E0B5CF80E0C7CF8091B3048111EE
:10555000D8CF80915103712C8F3F09F05EC18091AB
:10556000B5049091B6040E946909893E934058F1B0
:105570000091B40410E066277727601B710B072E9B
:10558000000C880B990B0E94C03227EA39E747E4E8
:105590005DE30E944C333B014C01B801110F880BB5
:1055A000990B0E94C0329B01AC01C401B3010E945F
:1055B00023320E948F326093B4040E94D61D9093D0
:1055C000B6048093B504D1100E947809ABEBB4E027
:1055D000ECEFF4E010E000E0602E8D9191919817CF
:1055E00009F42CC19827712CEE24E394292F2E2145
:1055F00009F41FC1FE2CF82233243394F11001C0AA
:10560000312C0E94D61D8160F1101092BF04798266
:105610006A823B829D838C83CE0101960E94971FF4
:10562000F801E450FB4F8081E826E0828091C704B6
:105630008823D1F18091C604E0910105E695E81B2D
:10564000E093C204823009F00DC1F0E0EC5DFC4F44
:10565000E4910E2F10E0EFE4EE2EEAE1FE2E8091B1
:10566000C304882361F01092C3040E94D61D909356
:10567000C1048093C0041092C5041092C4040E9417
:10568000D61DE091C004F091C1048E1B9F0B8F3F8B
:105690009F4750F4E00FF11FF093C104E093C00462
:1056A00080EC94E0F7010995E091CA04EE0FEE0F4B
:1056B000E093CA048FB190E0880F892F881F990B5F
:1056C0007E993CC120E0822BE82BE093CA04EF7066
:1056D000F0E0E25FFB4F80819091C904890F8093D5
:1056E000C904F12C8430BCF08091C8048F5F809392
:1056F000C8046091CE047091CF048091D004909141
:10570000D1040E94270E882309F41BC1813009F4BB
:1057100027C1FF24F3948091C9048D3FBCF480918C
:10572000C80481508093C8046091CE047091CF0466
:105730008091D0049091D1040E94270E882309F40F
:1057400015C1813009F421C1FF24F3948091C9046B
:10575000082E000C990B64E070E00E94CF3080931B
:10576000C904F1100E9478098091F904882309F492
:10577000F4C187E296E090932E0880932D08609103
:10578000CE047091CF048091D0049091D1040E94F6
:10579000270E882309F4FFC0813009F431C284E068
:1057A00094E00E94381681E00E944616F8C0C29E1E
:1057B000F001C39EF00D1124EB5EFE4FE288F388EA
:1057C000E114F10419F4F8ECEF2EF12CC29E8001E3
:1057D000C39E100D11240B5E1E4FD80116968C919E
:1057E00016978823C9F01D968D919C910E94690996
:1057F000E816F90688F47C9C70011124F80181896F
:10580000811105C0C7018B5E9E4F0E941B0BC70113
:10581000855E9E4F0E943C0B7394272D30E0809153
:105820005103082E000C990B821793070CF0BFCF81
:1058300096CE7394EE0C24E07212D8CE0F5F1F4FF9
:105840000430110509F0C8CE0E94D61D2FEF298320
:105850002A831B8281609D838C83CE0101960E94E6
:10586000971FE4CE863059F4F0E0EF5DFC4FE491F1
:105870000E2F10E073E6E72E7AE1F72EF0CE893096
:1058800061F4E695F0E0E25EFC4FE4910E2F10E04B
:1058900067E4E62E68E1F62EE2CE8F3061F4E695FD
:1058A000F0E0E55EFC4FE4910E2F10E051E7E52EAD
:1058B00058E1F52ED4CE853159F4F0E0E85EFC4F86
:1058C000E4910E2F10E045EDE42E48E1F42EC7CE12
:1058D00008E210E093E2E92E99E1F92E883109F40B
:1058E000BECE833249F4E6E1F3E00591149136EF40
:1058F000E32E39E1F32EB3CE8432C9F000ED17E088
:10590000B6E3EB2EB8E0FB2E853209F0A8CE8E2F41
:1059100063E00E94AF30E92FF0E0ED5EFC4FE491D0
:105920000E2F10E028E9E22E27E1F22E98CE04EFA8
:1059300011E08CEAE82E89E1F82E91CE22E030E0E9
:10594000C2CE209152032F77E0913405F0913505B6
:105950000FE340EB63E070E084E395E00995D9CE76
:1059600070E060E08AEA0E94571DD3CE2091520376
:105970002F77E0913405F091350501E440EB63E0C9
:1059800070E084E395E00995DFCE70E060E089EA9D
:105990000E94571DD9CE81E194E00E9438168EEF07
:1059A00093E00E94381688EF93E00E94381681E059
:1059B0000E94461682EF93E00E9438168CEE93E028
:1059C0000E94381686EE93E00E94381681E00E940D
:1059D00046166091CE047091CF048091D0049091CE
:1059E000D1040E94270E882309F40DC1813009F4E7
:1059F00026C180912406FBE08F9FC00111248115F0
:105A000022E0920714F090E080E0895D994F909336
:105A10002E0880932D08875296409C0120583F4FB6
:105A20002130324008F441C140E052E0481B590B9C
:105A30002091250630912606E8E2F3E0480F591F31
:105A40008417950708F434C1309326062093250661
:105A50008091F904882309F45BC02115310509F40C
:105A600057C08091F304811153C0082F10E0350115
:105A7000082E02C0660C771C0A94E2F7A9014621A1
:105A80005721452B09F42EC19091F20490FD2CC1B1
:105A90008295880F807680935C03980136952795D0
:105AA0003695279520935F03815E80935D03109266
:105AB000600324E630E047E050E06AE573E088E701
:105AC0000E945730892B21F5A80175E0440F551F1E
:105AD0007A95E1F78091F20480FD14C1495D594F38
