:100000000C9421030C9468030C9468030C9468030B
:100010000C9468030C9468030C9468030C946803B4
:100020000C9468030C9468030C9415220C94D12151
:100030000C94E3280C9468030C9468030C946803F4
:100040000C9468030C9406290C9468030C946803C0
:100050000C9468030C94BF280C9468030C946803F8
:100060000C9468030C9468030C9468030C94680364
:100070000C9468030C9468030C9468030C94680354
:100080000C9468030C9468030C9468030C94680344
:100090000C9468030C9468030C9468030C94680334
:1000A0000C9468030C9468030C946803076342364D
:1000B000B79BD8A71A39685618AEBAAB558C1D3CF9
:1000C000B7CC5763BD6DEDFD753EF6177231BF00BD
:1000D0000000803F08000000BE922449123EABAAF7
:1000E000AA2ABECDCCCC4C3E00000080BEABAAAA52
:1000F000AA3E00000000BF000000803F000000009A
:1001000000084178D3BB4387D1133D190E3CC3BDD2
:100110004282AD2B3E68EC8276BED98FE1A93E4C7F
:1001200080EFFFBE01C4FF7F3F000000000005011B
:100130000980A101850319012AB700150126B7001E
:10014000950175108100C0050C0901A101850419F4
:10015000012AA002150126A002950175108100C098
:1001600005010906A1018505050719E029E7150024
:1001700025019508750181020507190029EF150071
:10018000250195F0750181020508190129059505DC
:1001900075019102950175039101C00660FF096127
:1001A000A1010962150026FF00952075088102094A
:1001B00063150026FF00952075089102C00501090E
:1001C00006A101050719E029E71500250195087525
:1001D0000181029501750881010507190029FF15A4
:1001E0000026FF00950675088100050819012905FC
:1001F000950575019102950175039101C0000101FA
:1002000001010101010101020202020202020202D5
:1002100003030303030303030404040404040405A5
:100220000505050506060606060707070707080869
:100230000808090909090A0A0A0B0B0B0C0C0C0D1A
:100240000D0D0E0E0E0F0F0F1010111111121213B3
:10025000131414151516161717181819191A1A1B2E
:100260001B1C1D1D1E1E1F2020212222232424258D
:100270002626272829292A2B2C2D2D2E2F303132C6
:1002800032333435363738393A3B3C3D3E3F4041D6
:1002900042434445464748494A4C4D4E4F505153BE
:1002A00054555658595A5B5D5E5F61626465666875
:1002B000696B6C6D6F7072737577787A7B7D7E80F9
:1002C00082838587888A8C8E8F91939596989A9C45
:1002D0009EA0A2A3A5A7A9ABADAFB1B3B5B7BABC59
:1002E000BEC0C2C4C6C9CBCDCFD1D4D6D8DBDDDF2A
:1002F000E2E4E7E9EBEEF0F3F5F8FAFDFFFFAA7FA1
:1003000055402223252628292A2C2D2F30323335FB
:1003100036383A3B3D3E4042434547494A4C4E50B1
:1003200051535557595A5C5E6062646668696B6DDB
:100330006F71737577797B7D7F81838587898A8CDF
:100340008E90929496989A9C9E9FA1A3A5A7A8AAE6
:10035000ACAEAFB1B3B4B6B8B9BBBCBEBFC1C2C31B
:10036000C5C6C7C9CACBCCCDCED0D1D2D2D3D4D5B5
:10037000D6D7D7D8D9D9DADADBDBDBDCDCDCDCDCDE
:10038000DDDDDDDDDCDCDCDCDCDBDBDBDADAD9D9B6
:10039000D8D7D7D6D5D4D3D2D2D1D0CECDCCCBCA44
:1003A000C9C7C6C5C3C2C1BFBEBCBBB9B8B6B4B36A
:1003B000B1AFAEACAAA8A7A5A3A19F9E9C9A989600
:1003C0009492908E8C8A89878583817F7D7B7977D3
:1003D0007573716F6D6B6968666462605E5C5A59B3
:1003E00057555351504E4C4A4947454342403E3D74
:1003F0003B3A3836353332302F2D2C2A2928262502
:1004000023221150050006000700080009000A0019
:100410000B000C000D000E000F0010001100120068
:100420001300125001000100010001000100010051
:1004300001000100010001000100010001000100B4
:100440000100135001000100010001000100010042
:100450000100010001000100010001000100010094
:100460000100105001000100010001000100010025
:100470000100010001000100010001000100010074
:10048000010000000000000000000000000000006B
:10049000000000000000000000000000000000005C
:1004A0000000000000007E0F00D4FFFFFFC7000027
:1004B000007800000000000000002A2B2800000047
:1004C0000000000000000000000000000029000003
:1004D00000002C1E3420212224342627252E362DE0
:1004E0003738271E1F202122232425263333362E7A
:1004F00037381F0405060708090A0B0C0D0E0F10EC
:100500001112131415161718191A1B1C1D2F313030
:10051000232D350405060708090A0B0C0D0E0F10D4
:100520001112131415161718191A1B1C1D2F313010
:10053000354C1E0F0500047F3F1F643214643214D3
:10054000783C1E1E140A050902BF00050100A0FA2E
:100550000904000001030101000921110100012229
:1005600040000705810308000A0904010002030096
:100570000000092111010001222200070582032049
:100580000001070503032000010904020001030024
:100590000000092111010001226D000705840320DC
:1005A000000A080B03020101000009040300000116
:1005B00001000009240100010900010409040400EC
:1005C000020103000007240100014100062402018A
:1005D00001000624020202000924030103010201B2
:1005E000000924030204010101000905060240007C
:1005F00005000005250101010905850240000500EF
:100600000005250101031201100100000008504BF4
:100610006B010100010200010C0362006D0031005A
:1006200036007300000016034B0050007200650096
:100630007000750062006C00690063000000040334
:10064000090411241FBECFEFDAE0DEBFCDBF04B630
:1006500003FE27C08091540590915505A091560541
:10066000B09157058730904BA740B04BD1F4109212
:10067000540510925505109256051092570514BE58
:1006800084B7877F84BF0FB6F894A89580916000E7
:10069000886180936000109260000FBEE0E0F8E394
:1006A000099525E0ACE2B3E001C01D92A435B20784
:1006B000E1F713E0A0E0B1E0E6E4F0E602C0059067
:1006C0000D92AC32B107D9F70E94F2220C94C52FDB
:1006D0000C940000CF92DF92EF92FF92E0915305CD
:1006E000EE2309F1E15088E0E802F0011124ED5E0B
:1006F000FA4FC280D380E480F58020E030E0A90189
:10070000C701B6010E940E2C18166CF480911205D8
:10071000811102C010921105C701B601FF90EF9040
:10072000DF90CF900895C12CD12C7601F5CFCF92D8
:10073000DF92EF92FF920F931F93CF93DF9300D03E
:100740000F92CDB7DEB77C01162FD42EC22E80912A
:1007500032048430B9F5E0912704F09128043097F1
:1007600009F440C0C701019763E070E00E94B62A17
:10077000CB01880F991F860F971F19834A83CB825D
:100780004E2D481B9E012F5F3F4FBC018DE094E032
:100790000995E0912B04F0912C04309739F00C2D41
:1007A0002D2D412FB7018DE094E009950F900F900A
:1007B0000F90DF91CF911F910F91FF90EF90DF90FD
:1007C000CF90089582E0E816F10409F45AC083E05E
:1007D000E816F104A9F081E0E816F10409F484C0F8
:1007E000F12CE12CE0912904F0912A04309789F250
:1007F0000C2D2D2D412FB7018DE094E00995C9CF27
:10080000862F807F803A11F188F48038D1F0E09112
:100810001104F0911204803929F7309719F3123F2F
:1008200049F12C2D4D2D612F6F7027C0803E99F01E
:10083000803FB1F0E0910F04F0911004803B91F6FD
:10084000ECCFE0911304F0911404E7CFE09115048C
:10085000F0911604E2CFE0911704F0911804DDCF77
:10086000623F09F0BFCFE0911904F0911A0430976C
:1008700009F4B8CF2C2D4D2D62EF8DE094E0099551
:1008800088CF862F807F803DB9F0803FD1F0E09106
:100890001B04F0911C04803C09F0A4CF309709F4AC
:1008A000A1CF812F8D7F4D2D612F6F70813FC9F0BA
:1008B0008DE094E009956DCFE0911D04F0911E0448
:1008C000EDCFE0911F04F0912004633F39F0613FC8
:1008D00009F088CFE0912104F0912204309709F4C7
:1008E00081CF4D2D612FE4CFE0912304F0912404BA
:1008F000683F38F4663F09F075CFE0912504F09128
:100900002604309709F46ECF612F8DE094E00995AD
:1009100040CFE8EDF0E080818E7F80831092E2008E
:100920001092DA001092E100A0EEB0E08C918160AC
:100930008C9380818F77808319BCA7EDB0E08C9178
:100940008E7F8C9380818F7E80831092D90308954F
:100950002091E4003091E50095E6A9012091EC009A
:10096000822F817020FF06C08091E80080FF06C0C2
:1009700080E008952091E80022FD1AC080910304D0
:10098000882389F0853089F08091EB0085FD0FC0C8
:100990002091E4003091E50042175307F9F291509D
:1009A000E1F684E0089582E0089583E0089581E00F
:1009B0000895EF92FF920F931F93CF937C018B01C9
:1009C0000E94A804C82F811117C08091E80085FDFE
:1009D0000BC08091E8008E778093E8000E94A80405
:1009E000882399F3C82F08C0F70181917F01809374
:1009F000F1000150110949F78C2FCF911F910F91F0
:100A0000FF90EF900895EF92FF920F931F93CF9373
:100A10007C018B010E94A804C82F811117C080910E
:100A2000E80085FD0BC08091E8008B778093E8009B
:100A30000E94A804882399F3C82F08C08091F10070
:100A4000F70181937F010150110949F78C2FCF9154
:100A50001F910F91FF90EF9008958091050487FFFB
:100A600013C08091E80082FF06C08091E8008B7778
:100A70008093E80004C0809103048111F2CF0895AF
:100A8000809103048823D9F38091E80080FFF8CF98
:100A90008091E8008E77ECCF982F9093E900242F77
:100AA000762F50E0891731F07091EC002091ED0025
:100AB0005091F00021FD07C09F5F973071F7809340
:100AC000E90081E008953091EB003E7F3093EB0028
:100AD0003091ED003D7F3093ED003091EB003160BF
:100AE0003093EB007093EC002093ED005093F000F6
:100AF0002091EE0027FDE0CF80E00895CF92DF92B5
:100B0000EF92FF920F931F93CF93DF93C8EDD0E046
:100B100088818F7E8883E7EDF0E08081816080832B
:100B200084E082BF81E08093D90388818E7F8883AF
:100B300002EE10E0F80110821092DA0081EEC82E69
:100B4000D12CF601108288818F7788838881806814
:100B5000888388818F7D888319BC1092030410924A
:100B60000404109202041092010490EEE92EF12C7C
:100B7000F70180818B7F808388818160888342E058
:100B800060E080E00E944C05F60180818E7F8083CA
:100B9000F801808181608083808188608083F70193
:100BA00080818E7F8083888180618883DF91CF916F
:100BB0001F910F91FF90EF90DF90CF900895FC016F
:100BC00080910B0490910C0486179707A0F0611593
:100BD000710529F49091E8009E779093E80090E0E9
:100BE0006115710551F4911108C08091E80082FFF0
:100BF00034C080E00895BC01F2CF809103048823C3
:100C0000C1F18530C1F18091E80083FD30C0809151
:100C1000E80082FDEACF8091E80080FFE1CF80917B
:100C2000F3002091F200382F6115710519F028307A
:100C3000310558F091E02830310509F090E020911D
:100C4000E8002E772093E800CBCF81918093F100CC
:100C5000615071092F5F3F4FE7CF809103048823D4
:100C600041F0853041F08091E80083FFBECF81E004
:100C7000089582E0089583E00895089580E008953E
:100C8000089508958091E0030895982F907F903BF8
:100C9000E9F040F49039D1F0903AC1F09038B1F0D9
:100CA00080E00895903D19F020F4903CC9F782E06F
:100CB0000895903E59F0903F99F7815F8F3080F70B
:100CC000E82FF0E0EA50FD4F8081089583E0089519
:100CD000DF92EF92FF920F931F93CF93DF9300D099
:100CE00000D0CDB7DEB77B01142FD22E4A832B83E1
:100CF0000C83842F0E944506811141C082E0E816D2
:100D0000F104C1F183E0E816F10439F0EA94EF2828
:100D100029F5173F29F485E004C087E0073F09F073
:100D200084E08983809103048430C1F4809184023B
:100D30008F708093E90050E040E064E070E0CE0105
:100D400001960E94D904811109C08091E80085FDB7
:100D500005C08091E8008E778093E8000F900F9097
:100D60000F900F90DF91CF911F910F91FF90EF9017
:100D7000DF90089587EFD812D3CF86E0D2CF1295B7
:100D80001F701983CFCFFF920F931F93CF93DF93E1
:100D900000D000D000D00F92CDB7DEB78C01085143
:100DA0001F4F80910304843009F06CC08091890248
:100DB0008F708093E9008091E80082FF63C080918A
:100DC000E80085FF5FC050E040E064E070E0CE01E5
:100DD00001960E9403058091E80085FD05C0809181
:100DE000E8008B778093E800FA808F2D0E944506FB
:100DF000282FFD828B818E838C818F8321110AC0E5
:100E00008981843039F1873029F1863029F121E058
:100E1000853039F630E0E5E0F0E0EC0FFD1FE30F40
:100E2000F11DF0804FB7F894D8011196EC9111970D
:100E3000F0E0CF01019612966C9170E00E94CA2AF0
:100E4000D8015C915817190649F44FBF3F5F32171C
:100E500010F3A7CF23E0DECF22E0DCCF13968D91F5
:100E60009C911497E80FF91FF08211968C911197BD
:100E700090E0019612966C9170E00E94CA2AF801E7
:100E80008183E3CF27960FB6F894DEBF0FBECDBFA8
:100E9000DF91CF911F910F91FF90089587E797E71A
:100EA000909301088093000888E19AE00FB6F894C7
:100EB000A895809360000FBE90936000FFCF9C01C7
:100EC0004FB7F8948091D5039091D603A091D703A2
:100ED000B091D8034FBF821B930B08952FB7F8949E
:100EE0008091D5039091D603A091D703B091D803F8
:100EF0002FBF08958091B1039091BF03892B9091EA
:100F0000B003892B80932E03E091BD03F091BE03C3
:100F1000309799F090919902992349F09091B603F6
:100F200097FF05C080932F0385E080932E030280F6
:100F3000F381E02D8EE293E0099408959091990257
:100F40009923D1F09091B60397FF16C0E82FE6954C
:100F5000E695E695EE31E0F4F0E0E25DFC4F282FF7
:100F6000277081E090E001C0880F2A95EAF780950C
:100F70009281892382830895E0E3F3E091918913BC
:100F800003C0DF0111971C9293E0E633F907B1F734
:100F90000895909199029923C1F09091B60397FF1B
:100FA00014C0E82FE695E695E695EE31F8F4F0E00A
:100FB000E25DFC4F877021E030E001C0220F8A958E
:100FC000EAF78281822B82830895A0E3B3E0EFEFFA
:100FD00090E02D91821751F0EF3F19F4211101C0DB
:100FE000E92F9F5F9630A9F7EF3F09F408950E2E81
:100FF000000CFF0BE25DFC4FE6CF990F990F890FB4
:10100000982F977086958695869525E0829FF001AA
:101010001124EA55FC4F50E040E080E0219130E09F
:10102000092E02C0369527950A94E2F721703327DE
:10103000042E01C0220F0A94EAF7822B4F5F5F4F04
:101040004530510559F70895990F990F890F982F39
:10105000977041E001C0440F9A95EAF7869586950E
:10106000869595E0899FF0011124EA55FC4F30E008
:1010700020E070E05191DF011197CB01022E02C0F8
:10108000969587950A94E2F7817081958527842348
:1010900085278C932F5F3F4F2530310559F70895F1
:1010A000882341F080959091B10389238093B10307
:1010B0000C947A070895882339F09091B103982B06
:1010C0009093B1030C947A0708952091A203309174
:1010D000A3032817390771F09093A3038093A20309
:1010E000E091BD03F091BE03309721F00084F185BB
:1010F000E02D099408952091A0033091A1032817B1
:10110000390771F09093A1038093A003E091BD0390
:10111000F091BE03309721F00680F781E02D09940D
:10112000089590E080E00E947B0890E080E00E94BB
:1011300065081092BF031092B0030C947A07609375
:10114000B2037093B3038093B4039093B5030C94EC
:101150009108E091BD03F091BE03309721F001901A
:10116000F081E02D099480E00895882309F452C0AD
:10117000823871F40E94A90881FF4CC089E30E9463
:10118000C9070E947A0789E30E949E070C947A0798
:10119000833859F40E94A90880FF3CC083E50E946F
:1011A000C9070E947A0783E5EFCF843859F40E947B
:1011B000A90882FF2FC087E40E94C9070E947A070E
:1011C00087E4E2CF9CEF980F913AF0F290E2980F0B
:1011D000983088F4877021E030E0A90102C0440F04
:1011E000551F8A95E2F7CA0180959091B103892332
:1011F0008093B103CBCF9BE5980F933020F490E020
:1012000080E00C947B08885A873120F490E080E0DD
:101210000C9465080895FA01811101C0FB0109943D
:101220008091DA03982F9E7F29F4817082608093E9
:10123000DA0308958635E8F381708465F8CFAF92BC
:10124000BF92DF92EF92FF920F931F93CF93DF93A2
:10125000082F162FE901E42FF0E0E350FE4F611153
:1012600010C0E4915E2F4E2F4983E8835A83DF91AB
:10127000CF911F910F91FF90EF90DF90BF90AF90B3
:101280000895E62EF12C4491D42EE42FF0E026E0D0
:10129000829FC00111242FEF30E0B9010E94B62ACD
:1012A000802F90E0880F991F55E5569FD001579FDA
:1012B000B00D11248A1B9B0B982F990F890F590190
:1012C000AE18BF08AE9ED001AF9EB00DBE9EB00D51
:1012D00011245B2F189F80011124012F1127590120
:1012E000A01AB10AAE9E8001AF9E100DBE9E100DD9
:1012F00011245901A81AB108AE9CC001AF9C900DF1
:10130000BE9C900D1124892F9927281B390B2E9FE5
:10131000C0012F9F900D3E9F900D1124E92F623048
:101320007105A1F050F46115710509F49DCF61308C
:10133000710581F0EB2F512F97CF6430710569F063
:1013400080F06630710509F48FCFF4CFE42F4B2F76
:10135000592F8ACFE42F412F87CFEB2F542F492FBE
:1013600083CF4B2F5D2DE12F7FCFEFE6F0E0808123
:101370008D7F8083E0E8F0E080818F738083089523
:10138000CF92DF92EF92FF926B017C0120E030E080
:10139000A9010E940E2C81110AC0809180008F73D8
:1013A00080938000FF90EF90DF90CF900895809120
:1013B0008000806880938000C0925503D0925603CD
:1013C000E0925703F092580320E030E040E051E40F
:1013D000C701B6010E94662D9B01AC0160E074E27A
:1013E00084E79BE40E94132C6B017C010E94852CF6
:1013F000709387006093860020E030E048E452E478
:10140000C701B6010E94662D20E030E048EC52E4AE
:101410000E94132C0E94852C709389006093880091
:10142000C1CF8091F401811122C0109253050E9416
:10143000B50910920D0510920E051092020510923A
:101440000105E3E1F5E080E090E0A0E8BFEB118268
:10145000108282839383A483B58317821682389681
:1014600025E0E335F20799F781E08093F4010895D0
:10147000F894E82FE295EF70F0E031A1282F2F705B
:1014800081E090E001C0880F2A95EAF7982F9095A7
:10149000932391A392A1892B82A378940895CF934B
:1014A00084E090E00E94632BC82F82E290E00E94CB
:1014B000632B982F8C2FCF9108950F931F93CF9369
:1014C000DF9328E0629FE001112450E0440F551F94
:1014D000C40FD51F30E2839FC0011124C80FD91F4C
:1014E000CE0187960E94632B082F10E0102F002753
:1014F000CE0188960E94632B9801282BC901DF91A9
:10150000CF911F910F910895462F843038F4743095
:1015100028F4643018F4672F0C945D0A90E080E0A2
:1015200008950E94840A8238910591F1C0F58133B3
:10153000910509F490C028F58932910509F484C019
:101540008A32910509F48EC0811520E5920708F0D2
:101550009EC0811540E4940708F022C18F3B91059D
:1015600008F087C0883A910508F00FC1853A9105C7
:1015700008F002C18430910500F581309105E9F051
:101580003CC08533910509F458C089339105E1F6D3
:101590002091B603237089F080EE90E00895833E99
:1015A000910571F158F4803E9105E9F0823E910574
:1015B00059F62091B60322FD1EC00895863E91057E
:1015C00051F1873E910571F1843E910509F0BCCF40
:1015D0002091B70321FFF1CF8091B60384FD0DC0A8
:1015E00087EE90E008952091B60320FD05C130916B
:1015F000B70330FFE2CF24FF02C190E080E0DDCFEF
:101600002091B60322FDFEC03091B70330FDC4CF58
:1016100024FFD3CFF2CF2091B60323FFCECF24FDFA
:10162000ECCFDECF2091B60323FDEFC03091B7039E
:1016300031FFEECF84EE90E008952091B60325FFB0
:10164000BCCF89E290E008952091B60325FFB5CF85
:1016500085E390E008952091B60326FFAECF8AE29D
:1016600090E008952091B60326FFA7CF81E390E094
:101670000895803E910508F2883E910508F49DCFBB
:101680009C013A9521153F4108F497CFB6CF8115BB
:1016900023E5920740F5811542E5940708F088C0DC
:1016A000811521E5920708F07EC09C0164E0369523
:1016B00027956A95E1F7922F9370282F2695269506
:1016C000237040E2249F90011124392B482F43704E
:1016D00081E090E002C0880F991F4A95E2F7822BC3
:1016E000932B9C680895811549E59407F0F48115C2
:1016F00028E5920708F06DC0811544E5940708F0CD
:101700007CCFAC014370552721E030E002C0220FAE
:10171000331F4A95E2F78695869540E2849FC00183
:101720001124822B932B9A68089581152AE592073C
:1017300008F063CF282F2F704091B60342FF05C0F9
:1017400083FF4CC0282F277024603091B70330FFEF
:1017500007C0322F3871383009F046C0277F21602A
:1017600044FD277E34E0969587953A95E1F78F7092
:10177000982F822F90690895855AE82FF0E0EB5357
:10178000FD4F808190E090640895885AE82FF0E042
:10179000EE0FFF1FE853FD4F8081918194640895FF
:1017A0009F70906A0895982F8827816F906A089596
:1017B000AC014370552721E030E002C0220F331FF7
:1017C0004A95E2F78695869540E2849FC0011124F0
:1017D00086CF982F8827806F906A089582FFB5CFB3
:1017E000282F2B702860B1CF322F3171313009F0A2
:1017F000B7CF2E7F2860B4CF89E390E0089583EEC1
:1018000090E0089582EE90E0089586EE90E00895CD
:10181000BF92CF92DF92EF92FF920F931F93CF93DD
:10182000DF938C01C090FD04D090FE04E090FF0493
:10183000F09000058091B2039091B303A091B4039E
:10184000B091B503C82AD92AEA2AFB2ACFE1D0E011
:10185000BC2ED701C6010C2E04C0B695A79597954E
:1018600087950A94D2F780FD0EC0219788F7B12C96
:101870008B2DDF91CF911F910F91FF90EF90DF9013
:10188000CF90BF900895B8018C2F0E94910A0197C4
:1018900061F3EECF6F927F928F929F92AF92BF9241
:1018A000CF92DF92EF92FF920F931F93CF93DF932C
:1018B00082E0C82E84E0D82E0FE410E0E801A09763
:1018C00036011CC0F50185909490692DC7010E94D6
:1018D000772B682DC70101960E94772B82E0A80E16
:1018E000B11C82E0E80EF11CCE15DF0559F788E047
:1018F000680E711C28960C171D0731F07E0188E0D8
:10190000E81AF1085301DECF005E1F4F80E2C80ED7
:10191000D11C0F3C110591F6DF91CF911F910F91D2
:10192000FF90EF90DF90CF90BF90AF909F908F90FF
:101930007F906F900895CF93DF93C7EAD0E060E087
:10194000CE010E94772B2196C11584E0D807B9F704
:10195000DF91CF910895CF93DF9300D00F92CDB751
:10196000DEB790910304943011F589837B836A83F9
:101970009093E9008FEF9091E800815095FD06C0AB
:1019800095ED9A95F1F700008111F5CF8091E8006F
:1019900085FF0DC050E040E063E070E0CE010196AD
:1019A0000E94D9048091E8008E778093E8000F9020
:1019B0000F900F90DF91CF910895BC0184E00C94BB
:1019C000AB0CBC0183E00C94AB0CCF93DF93EC0128
:1019D000809199028823B1F18091B60387FF32C0CC
:1019E00060E284E08093E9008FEF9091E8008150FD
:1019F00095FD06C095ED9A95F1F700008111F5CFA0
:101A00008091E80085FF1BC08091990270E050E052
:101A100040E0811104C050E040E068E070E0CE0199
:101A20000E94D9048091E8008E778093E80080E2DC
:101A3000FE01A1EEB3E001900D928A95E1F7DF91EE
:101A4000CF91089568E081E0CDCF8091DA0380FDE9
:101A50000AC0E0E6F3E0118210821282339653E06E
:101A6000E837F507C1F7849A31B33F7E21B320618F
:101A70004FB7F89480E693E0FC015191CF0168E004
:101A800021BB000000C057FF31BB550F000000C054
:101A900000C000C031BB00C06A9591F7F3E0883701
:101AA0009F0751F74FBF8FE594E00197F1F700C012
:101AB00000000895EF92FF921F93CF93DF93EC0104
:101AC00080E6E82E83E0F82E10E08C8197014091AB
:101AD000DD036091DC03810F0E941F09115E83E02A
:101AE000E80EF11C183F89F70E94250D9A818C8120
:101AF00090FF08C08F5F8C83DF91CF911F91FF9083
:101B0000EF9008958150F7CFCF92DF92EF92FF923E
:101B10000F931F93CF93DF93FC018281DD24DA942E
:101B200080FD02C0DD24D394C0E6D3E010E000E0E5
:101B3000198218821A8294E0E92EF12CC12C80912E
:101B40005D038C0D8930CCF18770082E000C990B49
:101B50008017910791F48091DD038E9DA0018F9DE8
:101B6000500D112455954795559547959E016091C7
:101B7000DC038091DB030E941F09CD0CF1E0EF1A1A
:101B8000F108E9F60F5F1F4F23960830110581F623
:101B90000E94250D80915D0391E0D91214C081113E
:101BA00010C087E080935D03DF91CF911F910F916B
:101BB000FF90EF90DF90CF90089587FFC6CF885FAA
:101BC000C4CF8150EFCF90E0019687709927EACF7C
:101BD0000F931F93CF93DF93C0E6D3E0FE011182F2
:101BE00010821282339683E0E837F807C1F710E0DD
:101BF00000E080915E03082E000C990B081719076E
:101C00008CF180910102082E000C990B801791072E
:101C10004CF19E014091DD036091DC038091DB0378
:101C20000E941F090F5F1F4F23960830110509F707
:101C30000E94250D8091000290915E03980F909371
:101C40005E0320910102280F20930102121614F462
:101C500097301CF0819580930002DF91CF911F9106
:101C60000F910895198218821A82DCCF8F929F9269
:101C7000AF92BF92CF92DF92EF92FF920F931F939A
:101C8000CF93DF93EC014C81042F10E09801D80131
:101C90000E94FF2B9B01AC010E94CA2B4B015C01EF
:101CA000E0E2F0E0E01BF10BA5E5B0E0AC019B0148
:101CB0000E94CA2B6B017C019F01DF010E94EB2A6D
:101CC0009B01AC010E94D52B9B01AC01280D391D55
:101CD0004A1D5B1DC701B6010E94DD2BF22E822F2B
:101CE00090E039E23F15D8F143E0249F90011124A0
:101CF00035952795122F109590E6C92E93E0D92E91
:101D000000E085E5E82EEF188E2D01FD8F2D960160
:101D1000412F6091DC030E941F090F5F53E0C50E45
:101D2000D11C083089F70E94250D9C8181E0992300
:101D300019F0903219F48FEF809302028091020221
:101D4000890F8C83DF91CF911F910F91FF90EF90BE
:101D5000DF90CF90BF90AF909F908F90089525E532
:101D600030E0A901481B590BCA019A01220F331F09
:101D7000280F391F37FFBCCF2F5F3F4FB9CFEF92EE
:101D8000FF920F931F93CF93DF938C01C0E6D3E0B4
:101D9000F12CE12CF80194816091DC038091DB034C
:101DA000F4E0EF16F104FCF49923F9F09E01409160
:101DB000DD030E941F092FEFE21AF20A239688E042
:101DC000E816F10439F70E94250DF801848190E0AE
:101DD0000196817099278483DF91CF911F910F9194
:101DE000FF90EF900895992309F39E0140E0E1CF21
:101DF0009091DA0390FF0CC0E0E6F3E0818360830A
:101E00004283339693E0E837F907C1F70C94250D28
:101E100008950F931F93CF93DF9300D00F92CDB708
:101E2000DEB78C0180915F0381110AC09E012F5F94
:101E30003F4F4FEF6FEF0E941F098A8180935F032E
:101E4000F8016481613069F080915F0340E06623AE
:101E500061F040E0623011F440915F0380E060E0A7
:101E600004C060915F0340E080E00E94F80EF8013A
:101E7000848190E0019663E070E00E94CA2A848326
:101E80000F900F900F90DF91CF911F910F910895B8
:101E9000CF93DF9300D00F92CDB7DEB79091DA03E6
:101EA00090FF0AC09E012F5F3F4F0E941F094B8188
:101EB00069818A810E94F80E0F900F900F90DF9138
:101EC000CF910895CF93DF93EC01EC81F0E0EE5FCA
:101ED000FC4F4491EAEDF3E0628181810E94480F5A
:101EE0008C818F5F8C83DF91CF910895CF93DF93A7
:101EF000EC01EAEDF3E0438162818C810E94480F9E
:101F00008C818F5F8C83DF91CF9108954F925F9288
:101F10006F927F928F929F92AF92BF92CF92DF92F9
:101F2000EF92FF920F931F93CF93DF93FC01628098
:101F3000448081E08483E2E0F3E07490E1E8F3E040
:101F4000E491C8E7D3E030E6E32E33E0F32E40EA35
:101F5000C42E43E0D42E52E0A52EBB24B394882493
:101F60008A94912C55245A94E7190E2F10E082E0A0
:101F7000861530F08091DB0388838091DC038983B0
:101F8000411021C01B821A8297014A816981888190
:101F90000E941F09259683E0E80EF11CCC16DD0691
:101FA00031F7DF91CF911F910F91FF90EF90DF906C
:101FB000CF90BF90AF909F908F907F906F905F90E9
:101FC0004F900C94250D8B818823E9F081508B83F1
:101FD000859DC00111246C8170E00E94B62AFB012E
:101FE000FF27EE5FFC4F8491E82FE719E59DC001C4
:101FF0001124B8010E94B62A8091DD03689FB001C8
:1020000011247A83C1CF0E94462B2091DD032695AF
:1020100021582A9DA0012B9D500D1124452F552795
:10202000841795070CF0B0CF82E0861588F40E94E3
:10203000462BB4010E94CA2A88830E94462B209115
:10204000DC032695622F70E00E94CA2A280F29839C
:102050001A828091DD03893C20F088EC8C838B838D
:1020600093CF8431D8F784E1F9CF6AEE7EEF90E028
:1020700080E00E94952B60E082E090E00E94772B48
:1020800060E083E090E00E94772B1092B203109200
:10209000B3031092B4031092B50360E084E090E0C3
:1020A0000E94772B60E082E290E00E94772B60E054
:1020B00085E090E00E94772B60E086E090E00E944F
:1020C000772B6FEF87E090E00E94772B40E050E0A5
:1020D000BA0188E090E00E94892B60E08DE090E0FA
:1020E0000E94772B40E050E0BA0188E190E00E9426
:1020F000892B60E087E190E00E94772B40E050E080
:10210000BA018CE190E00E94892B70E060E080E2EF
:1021100090E00E94952B40E050E0BA0188E190E009
:102120000E94892B40E050E0BA018FE090E00E94CD
:10213000892B40E050E0BA0183E190E00C94892BB8
:1021400080910F05811134C090E080E00E94712BD6
:102150008A3E9E4F11F00E94351087E090E00E9469
:10216000632B80931005E3E1F5E080E090E0A0E8C8
:10217000BFEB1182108282839383A483B58317827D
:102180001682389625E0E335F20799F780910F051E
:1021900081110CC00E94B509259A82E080938000CD
:1021A0008AE18093810081E080930F050C94110AED
:1021B00008957F928F929F92AF92BF92CF92DF92BB
:1021C000EF92FF920F931F93CF93DF934B015C012C
:1021D0007A018091100580FF81C080910F058111E7
:1021E00002C00E94A01020E030E0A901C501B401A6
:1021F0000E940E2C87FF04C0B7FAB094B7F8B094D1
:1022000070905305872D8150990B6C01EC01CF3FE5
:10221000DC0709F04DC081E0870D893008F485C0E6
:1022200088E08093530583E195E028E0FC0138962F
:10223000DC0101900D922A95E1F7089625E08B3498
:10224000920799F781E08093540380930E05C09123
:102250005305C150DD0B0E946E07FE0123E0EE0F17
:10226000FF1F2A95E1F7ED5EFA4F9183808382820A
:102270009382A482B582F782E6820E946E078091E3
:10228000F401882359F180916F00826080936F0080
:102290008091800080688093800080910E05882363
:1022A00021F00E946A030E94C0091092F40116C036
:1022B0008E0133E0000F111F3A95E1F70D5E1A4FC2
:1022C000A5019401F80162817381848195810E9446
:1022D0000E2C811128C0CC15DD0574F0DF91CF9153
:1022E0001F910F91FF90EF90DF90CF90BF90AF9034
:1022F0009F908F907F900895219688E0F8013896FE
:10230000D80101900D928A95E1F70E946E07F801BD
:102310009187808782869386A486B586F786E6862F
:10232000085F1F4FD8CF219772CF809353058ACF74
:10233000CF92DF92EF92FF92CF93DF93EC017B017C
:102340008091100580FD08C0DF91CF91FF90EF9044
:10235000DF90CF900C94110A80910F05811102C07B
:102360000E94A01080910E0581110E94110A81E047
:1023700080930D0510920C05D0930B05C0930A05B0
:10238000F0920905E09208051092070510920605E3
:10239000109205056C817D818E819F810E94852C24
:1023A0009B01A0E6BAEE0E94FF2BC12C2EE1D22E9B
:1023B000E12CF12CA70196010E94DD2B6881798127
:1023C0008A819B81A9010E94D9100E946E07909377
:1023D000040580930305E0910A05F0910B058091B7
:1023E00005059091060533E0880F991F3A95E1F7AE
:1023F000E80FF91F64817581868197810E94852C81
:102400009B01A0E6BAEE0E94FF2BA70196010E9455
:10241000DD2B3093020520930105DF91CF91FF90D2
:10242000EF90DF90CF90089562E070E084EE91E04D
:102430000E9498112FEF81EE94E02150804090404F
:10244000E1F700C000000E94110A609110056E7F44
:102450006093100587E090E00C94772B6091100555
:1024600061606093100587E090E00E94772B62E046
:1024700070E084ED91E00C949811CF92DF92EF928E
:10248000FF920F931F93CF93DF93C5E0D3E088EBC8
:10249000E82E83E0F82ED12C01E010E08991F89429
:1024A000E82FE295EF70F0E021A18F70A80102C043
:1024B000440F551F8A95E2F7CA01922F982B91A3DA
:1024C00092A18095892382A3789400C0E9E0F3E08B
:1024D00030E020E0C12C4191A42FA295AF70B0E074
:1024E00090968C9190E04F7002C0959587954A9593
:1024F000E2F780FD49C0802F022E01C0880F0A94A8
:10250000EAF7C82A2F5F3F4F2430310521F7FE013B
:10251000319780810E94380A50EA5A95F1F7F70105
:102520008081C81699F1C08281E0D82AFFEFEF1AA6
:10253000FF0A23E0C930D20709F0B0CFDD2041F116
:1025400081E0809350030E946E0790934F03809325
:102550004E0380914E0390914F030E945F070697B0
:10256000D8F08091B8038093D1038091B903809310
:10257000D2038091BA038093D3038091BB038093ED
:10258000D4031092500308C080E0BBCF80E0CDCFD1
:10259000809150038111DDCF8091530381110CC0D4
:1025A0008091510390915203009781F40E946E072D
:1025B00090935203809351038D2DDF91CF911F9102
:1025C0000F91FF90EF90DF90CF9008950E945F07EA
:1025D0008D32914088F38091100580FF06C063E042
:1025E00070E08CEB91E00E9498110E946E0790932E
:1025F00004058093030581E080935303DDCFCF92E0
:10260000DF92EF92FF920F931F936B017C01A70162
:102610006627772780E1411551056105710519F499
:10262000B701A60180E0052F162F272F33270115AC
:1026300011052105310519F0885FB901A8018A014A
:102640009B01F4E03695279517950795FA95D1F7F4
:10265000011511052105310519F08C5FB901A8019B
:102660008A019B01E2E03695279517950795EA9533
:10267000D1F7011511052105310519F08E5FB9015A
:10268000A8017695679557954795452B462B472B7F
:1026900009F08F5F8130F9F0882369F0823049F1C9
:1026A0008330A9F1C701B6011F910F91FF90EF9000
:1026B000DF90CF9008952FEF81EE94E0215080407D
:1026C0009040E1F700C0000068E070E084E691E02F
:1026D0000E949811E7CF2FEF81EE94E021508040C7
:1026E0009040E1F700C0000064E070E084E491E015
:1026F000EFCF2FEF81EE94E0215080409040E1F742
:1027000000C0000064E070E084E291E0E1CF2FEFD0
:1027100081EE94E0215080409040E1F700C000003D
:1027200064E070E084E091E0D3CF0E94FF126093F8
:10273000FD047093FE048093FF04909300050C94B5
:1027400091080F931F936091FD047091FE04809196
:10275000FF04909100058B019C0106701127222730
:102760003327063011052105310529F468601F91D2
:102770000F910C949513677FFACF0F931F9341E04D
:1027800050E060E070E004C0440F551F661F771FE3
:102790008A95D2F7CB01BA01609570958095909596
:1027A0000091FD041091FE042091FF04309100057A
:1027B00060237123822393231F910F910C9495130F
:1027C0000F931F9341E050E060E070E004C0440FBD
:1027D000551F661F771F8A95D2F78091FD0490914F
:1027E000FE04A091FF04B09100058A019B01082B13
:1027F000192B2A2B3B2BC901B8011F910F910C9467
:102800009513CF92DF92EF92FF920F931F93CF9386
:10281000DF936B017C0120E030E0A9010E940E2CC7
:1028200087FF04C0F7FAF094F7F8F09480910E0552
:10283000882309F458C080910F05811102C00E94BD
:10284000A01003E115E0C7E0D0E0A7019601F80170
:1028500062AD73AD84AD95AD0E940E2C81113CC06C
:1028600083E0CC0FDD1F8A95E1F7CD5EDA4F198248
:10287000188280E090E0A0E8BFEB8A839B83AC8362
:10288000BD831F821E82AC01BD01F5E0CB34DF07A2
:1028900089F4C1E0C0935403809153058150809323
:1028A0005305811120C00E94B509C093F401109214
:1028B0000E0519C088E0FE013896DE0101900D92E8
:1028C0008A95E1F7198618864A875B876C877D872A
:1028D0001F861E862896D9CF219708501109CF3F11
:1028E000DC0709F0B2CFDF91CF911F910F91FF90DC
:1028F000EF90DF90CF9008956330710509F042C0EA
:10290000842F807F803809F18039E1F52F77622F9D
:1029100070E090E080E00E94B62C20E030E040E4DF
:1029200051E40E94132C9B01AC0160E070E080E058
:1029300090E40E94D32D2DEC3CEC42E851E40E943F
:10294000662D4FEF5FEF0C94D9102F77622F70E058
:1029500090E080E00E94B62C20E030E040E451E4BA
:102960000E94132C9B01AC0160E070E080E090E4D9
:102970000E94D32D2DEC3CEC42E851E40E94662DE0
:102980000C9401144C3F11F40C94110A0895CF9249
:10299000DF92EF92FF926B017C010E941009B70158
:1029A000A60188E090E0FF90EF90DF90CF900C942C
:1029B000892B7F928F929F92AF92BF92CF92DF929C
:1029C000EF92FF920F931F93CF93DF9300D00F925C
:1029D000CDB7DEB7182FD62E042FC22E9091DA0372
:1029E00090FF29C0E92FE695AE2FB0E0A656BD4F67
:1029F0008C918093CF039E7F923071F59E012F5F63
:102A00003F4F812F0E941F094B8169818A810E945B
:102A1000F80E1093DB03D092DC030093DD03CC208F
:102A200051F06091DA037091DB038091DC039091A7
:102A3000DD030E94C7140F900F900F90DF91CF918C
:102A40001F910F91FF90EF90DF90CF90BF90AF90CC
:102A50009F908F907F900895823019F40091DD034C
:102A6000D8CF863019F41091DB03D3CF8930D9F356
:102A7000893179F6E9512E2F2170722EE695F0E01A
:102A8000E350FD4F85909490992430E6E32E33E097
:102A9000F32EB12CA12CC50123E0969587952A959C
:102AA000E1F7711013C0810F9701402F6D2D0E9427
:102AB0001F09A80CB91C83E0E80EF11C28E7E216F8
:102AC00023E0F20641F70E94250DA3CF212F281BFA
:102AD000822FEACFEAEDF3E0438128E0421B08F4BD
:102AE00040E021E0628181810C94D914EAEDF3E0A9
:102AF000438128E0420F08F44FEF21E06281818199
:102B00000C94D914EAEDF3E0628128E0621B08F42A
:102B100060E021E0438181810C94D914EAEDF3E077
:102B2000628128E0620F08F46FEF21E04381818128
:102B30000C94D914EAEDF3E0818121E043816281B4
:102B400088500C94D914EAEDF3E0818121E04381AF
:102B50006281885F0C94D9148091DE03882319F078
:102B600081508093DE036091DA037091DB038091E2
:102B7000DC039091DD030C94C7148091DE03833055
:102B800018F48F5F8093DE036091DA037091DB03AA
:102B90008091DC039091DD030C94C714EAEDF3E01F
:102BA00083E0808311828FEF82838383148260812C
:102BB0007181828193810C94C7141092B10380912A
:102BC0009902E0E3F3E0882359F08091B60387FF90
:102BD00007C08EE1DF011D928A95E9F70C949108F8
:102BE00086E0F8CF1F93CF93DF93CDB7DEB7AA97D8
:102BF0000FB6F894DEBF0FBECDBF85E094E0209104
:102C0000F100DC012D93CD01B4E08D309B07B9F7C5
:102C100080910604833009F471C0B8F4813009F45E
:102C200048C0823009F4B2C08091E80083FF3AC105
:102C300080910504909106049A3008F033C1E92F81
:102C4000F0E0E953F04D0C94DE2A8A3009F48DC08F
:102C50008B3009F470C0893039F7809105048132D6
:102C600019F78091090490910A04009711F00297D6
:102C7000D9F68091E800877F8093E8008091E80092
:102C800082FF37C09091F3008091F200029729F4FF
:102C90008091F1008B7F813021F48091F10080934D
:102CA000E0038091E8008B778093E8000E942D0577
:102CB000BBCF80910504813A09F0B6CF8091E8003E
:102CC000877F8093E8008091090490910A04892B02
:102CD00061F460E281EE93E070E00E94DF05809194
:102CE000E8008B778093E8009FCF60E090E080E081
:102CF000F3CF809103048111C1CF96CF8091050459
:102D0000813A09F091CF8091090490910A04892BAE
:102D100009F08ACF8091E800877F8093E800809156
:102D2000E80080FFFCCF809199028093F1008091B0
:102D3000E8008E77B9CF80910504813209F074CF15
:102D40008091090490910A04892B09F06DCF80913C
:102D5000E800877F8093E8000E942D05809107049A
:102D6000809399020E94DD155FCF80910504813226
:102D700009F05ACF8091E800877F8093E8000E9495
:102D80002D05809108048093DF034ECF80910504C8
:102D9000813A09F049CF8091E800877F8093E8006D
:102DA0008091E80080FFFCCF8091DF03BECF8038A8
:102DB00099F0823809F076C0809109048F708730CD
:102DC00008F070C08093E9008091EB0085FB8827B4
:102DD00080F91092E90006C08091010490910204EC
:102DE000911182609091E800977F9093E800809322
:102DF000F1001092F1008091E8008E77BFC1882326
:102E000009F4ACC1823009F04DC0809107048111F2
:102E1000B0C1809109048F702FEF280F263008F081
:102E200041C08093E9002091EB0020FFA2C19330C4
:102E300031F48091EB0080628093EB009AC1909115
:102E4000EB0090619093EB0021E030E001C0220F95
:102E50008A95EAF72093EA001092EA008091EB004D
:102E60008860EACF81111EC0109107041F778091FE
:102E7000E3008078812B8093E3008091E800877FD6
:102E80008093E8000E942D058091E80080FFFCCF30
:102E90008091E30080688093E30082E0111183E079
:102EA000809303048091E80083FF0AC08091E800CA
:102EB000877F8093E8008091EB0080628093EB0035
:102EC000AA960FB6F894DEBF0FBECDBFDF91CF91AB
:102ED0001F9108958058823028F72091070430917F
:102EE00008042C3DE3E03E07A1F583E08A838AE2F3
:102EF00089834FB7F894DE01139620E03EE051E25B
:102F0000E32FF0E050935700E49120FF03C0E295D7
:102F1000EF703F5FEF708E2F90E0EA30C0F0C79601
:102F20008D939D932F5F243159F74FBF8091E80017
:102F3000877F8093E8006AE270E0CE0101960E94EC
:102F4000DF058091E8008B778093E800ABCFC096D7
:102F5000E7CF8091090490910A04432F552743300D
:102F6000510509F44AC078F54130510509F47AC099
:102F70008FEB90E0E7E4F5E04230510509F092CFA5
:102F80002091E800277F2093E80020910B043091E6
:102F90000C048217930708F49C0140E021153105C9
:102FA00009F065C0411163C08091E80082FDC9CF7E
:102FB00080910304882329F2853019F28091E8007A
:102FC00083FFF2CFBECF4132510509F43CC04232FB
:102FD000510509F067CF8330910508F063CFFC01FC
:102FE000EE0FFF1FE05EFC4F0190F081E02D835E4D
:102FF0009C4FDC018C9190E01AC0332721303105C1
:10300000D1F02115310561F02230310509F04ACFA8
:10301000E8E1F6E0E4918E2F90E0E8E1F6E007C009
:10302000EEE3F6E0E4918E2F90E0EEE3F6E0009719
:1030300009F438CFA5CFE6E2F6E0E4918E2F90E0D8
:10304000E6E2F6E0F4CF8330910508F02BCF880F4D
:10305000991FFC01EA5DFC4F0190F081E02D89E0B1
:1030600090E08ECF82E190E0E6E0F6E089CF8091BB
:103070000304882309F465CF853009F462CF809179
:10308000E80083FD5ECF8091E80082FD8DCF8091C6
:10309000E80080FF83CF9091F3008091F20021152A
:1030A000310519F08830910550F041E0089709F09A
:1030B00040E08091E8008E778093E8006FCF4491E4
:1030C0004093F1003196215031090196E8CF8038C4
:1030D00009F0E8CE8091E800877F8093E800809136
:1030E00004048093F10087CE8111DCCE1091070497
:1030F000123008F0D7CE8091E800877F8093E800F7
:10310000109304040E942D05112311F084E005C0E2
:103110008091E30087FDFACF81E08093030442E0D1
:1031200061EC81E00E944C0542E261EC84E00E9487
:103130004C0542E261EC82E00E944C0542E260EC08
:1031400083E00E944C0542E361E885E00E944C0563
:1031500042E361E886E00E944C05A4CE809107041A
:10316000813009F09FCE81E0933009F080E08093B8
:1031700002041092E9008091E800877F8093E800C4
:103180000E942D058FCE0F931F9341E050E060E029
:1031900070E08A019B0104C0000F111F221F331F22
:1031A0008A95D2F7C901B8010E949F081F910F911B
:1031B0000C94DD150E94DD15E0910D04F0910E04D4
:1031C00000E02BE740EB63E070E08DE094E00995D0
:1031D0000E946E07EC0163E070E084EA91E00E94D7
:1031E0009811CE010E945F078A3F910520F00E944E
:1031F000110A0E944E078FE99FE00197F1F700C086
:103200000000EFCFEBEFE80FEF3308F059C0F0E02C
:10321000EF52F04D0C94DE2A0E94351081E00895A3
:103220008091CA03807F8093CA0381E08093A503C5
:1032300008950E94DA189091CA03892F8E7F90FF1B
:1032400081608093CA0380FDE9CF817F8093CA03A8
:10325000E5CF9091CA03892F8D7F91FF8260809383
:10326000CA0381FFDBCF8091CA038160EFCF9091C9
:10327000CA03892F8B7F92FF84608093CA0382FDEB
:10328000F2CFCCCF9091CA03892F877F93FF8860BC
:103290008093CA0383FDE7CFC1CF0E94DD159091D3
:1032A000B603892F97FB87F980588093B603B6CF72
:1032B00080E00E94C318B2CF8953FBCF8D51F9CF64
:1032C00080E00895CF93C82F882309F481C0823805
:1032D000C1F40E94A90881FD7BC089E30E94C9074F
:1032E0000E947A072FEF81EE94E0215080409040B9
:1032F000E1F700C0000089E30E949E07CF910C9483
:103300007A078338A1F40E94A90880FD61C083E593
:103310000E94C9070E947A072FEF81EE94E02150A6
:1033200080409040E1F700C0000083E5E5CF84389D
:10333000A1F40E94A90882FD4BC087E40E94C9073E
:103340000E947A072FEF81EE94E021508040904058
:10335000E1F700C0000087E4CFCF8CEF8C0F813AFB
:1033600008F05BC08091A503882349F1813091F179
:103370001092A50380919902882309F440C080919E
:10338000B60387FF3CC0EC2FE695E695E695F0E0A6
:10339000E25DFC4F828190E04C2F477021E030E0ED
:1033A00002C0220F331F4A95E2F782239323892B11
:1033B00081F18C2F0E949E070E947A072AC080917B
:1033C000B1038232B9F68C2F0E940219882391F240
:1033D000CF9108958091B1038232A9F3C43161F095
:1033E00028F4CB3039F080E08170F0CFC93221F081
:1033F000C833C9F781E0F8CF1092A503F4CFE0E31A
:10340000F3E086E393E02191C21799F28E179F07AC
:10341000D1F78C2F0E94C90771CF80E28C0F8830C2
:1034200068F4C77021E030E001C0220FCA95EAF7C6
:103430008091B103822B8093B10360CFEBE5EC0F59
:10344000E33040F4F0E0EB53FD4F808190E0CF910A
:103450000C947B08C85AC73108F0BACFEC2FF0E0C3
:10346000EE0FFF1FE853FD4F80819181CF910C94A7
:1034700065081F93CF93DF93182FD0E0C0E0893306
:1034800011F4C0E5D0E0812F0E946219209731F439
:10349000812FDF91CF911F910C94B5088FE99FE0A8
:1034A0000197F1F700C000002197F0CF0F931F9311
:1034B000CF93DF93C62FD42F022FFC018281882364
:1034C000A1F06093FC040E946E079093FB0480932C
:1034D000FA04C77081E001C0880FCA95EAF7DF914E
:1034E000CF911F910F910C945B088091FC0468139D
:1034F00035C08091FA049091FB040E945F07883CDC
:10350000910560F510E21D0FCD17B9F080E28C0F28
:10351000883040F4C77081E001C0880FCA95EAF78F
:103520000E945008183048F481E09D2F977001C028
:10353000880F9A95EAF70E945B08802F0E94391A3B
:10354000183098F4D77081E001C0880FDA95EAF757
:10355000DF91CF911F910F910C945008C77081E0BB
:1035600001C0880FCA95EAF7F3CFDF91CF911F9181
:103570000F9108956091DA03669570E04BE050E09A
:1035800085EF91E00E94562B892B19F481E08093FE
:10359000D0030E946E079093C1038093C0030895E7
:1035A0009091DA0390FF36C09170811129C092602A
:1035B0009093DA03662351F06091DA037091DB0394
:1035C0008091DC039091DD030E94C7146091DA03BF
:1035D000669570E04BE050E085EF91E00E94562B3D
:1035E000892BA9F01092D00381E08093C30320E0DF
:1035F0004091DD036091DC038091DB030C94D914CE
:103600008B3210F09465D4CF880F982BD1CF0E94C5
:10361000BA1AEACF08958091DA038695815009F4A9
:103620008AE261E00C94D01A8091DA0386958F5F6C
:103630008B3208F081E061E00C94D01A9091DA03AB
:1036400090FF07C09695981720F0961710F40C94E9
:10365000141B61E00C94D01A5F926F927F928F924C
:103660009F92AF92BF92CF92DF92EF92FF920F9311
:103670001F93CF93DF9300D000D00F92CDB7DEB76A
:103680007C01FC0183819481892B31F080819181BF
:1036900089238F3F09F09BC50F900F900F900F90DB
:1036A0000F90DF91CF911F910F91FF90EF90DF90DE
:1036B000CF90BF90AF909F908F907F906F905F90D2
:1036C00008950E94080C182F682F89819A810E9402
:1036D000240869817A81812F0E94840A8C01F70174
:1036E0009281992309F468C5980122513F45203100
:1036F000310508F039C58FEF93E00E94632B02512A
:1037000067EAA62EB12C8111C7CF011134C01C82EB
:103710001B82662463945AE0552E85010F5F1F4F6C
:10372000C5010E94632B89831A82882309F4B4CFD0
:103730009FEF980F933070F58A83698232E0A30E71
:10374000B11CC8010E94632B8B83882309F4A4CF8A
:103750008E010F5F1F4FF80120812223F1F22130EB
:1037600009F052C0918182819130B1F40E5F1F4FF8
:103770000E94391A17C0A114F4E0BF0609F48CCFD7
:10378000C5010E94632B811101C001502FEFA21AC5
:10379000B20ABBCF5801DCCF923039F40E5F1F4F15
:1037A0000E9462190F5F1F4FD6CF933029F40E5F2E
:1037B0001F4F0E94B508F6CF943019F00F5F1F4FCE
:1037C000F1CF0E5F1F4F30E020E0B8016F5F7F4FF9
:1037D000F80141818053990B8A30910550F02150B6
:1037E000310900F38FE99FE00197F1F700C0000075
:1037F000F6CF529EF001539EF00D11249C012E0F26
:103800003F1F842F8B01E1CFE22FF0E0EE54FB4FFE
:103810007490822F86958695869590E0FC01EE55F2
:10382000FB4FE4902770F12C022E02C0F594E79430
:103830000A94E2F7E1E0EE22FF24FC01EE56FB4F92
:10384000C490D12C022E02C0D594C7940A94E2F7FA
:10385000F1E0CF22DD24FC01EE57FB4F8490912C48
:1038600002C0959487942A95E2F721E08222992458
:10387000E114F10419F081EE0E946219C114D1041F
:1038800019F086EE0E946219872D0E94391ACD2800
:1038900019F086EE0E94B508EF2819F081EE0E941B
:1038A000B508892809F47ECF8CE262CF81E00E94BE
:1038B000E01303C081E00E94BD130F900F900F90A2
:1038C0000F900F90DF91CF911F910F91FF90EF908C
:1038D000DF90CF90BF90AF909F908F907F906F9030
:1038E0005F900C94A11382E0E2CF0E318CE51807B3
:1038F000C9F4992309F47CC40F900F900F900F9096
:103900000F90DF91CF911F910F91FF90EF90DF907B
:10391000CF90BF90AF909F908F907F906F905F906F
:103920000C9414120F31ECE51E0741F4992309F4AD
:103930005FC48091100580FDDFCF28C40A32FCE50A
:103940001F07F9F4992309F453C41092120564E097
:1039500070E083E092E00F900F900F900F900F9027
:10396000DF91CF911F910F91FF90EF90DF90CF905B
:10397000BF90AF909F908F907F906F905F900C94CE
:1039800098110B322CE51207E9F2033F3CE51307CF
:1039900009F499C008F06BC0083DECE51E0709F476
:1039A0008EC0093DFCE51F0709F499C0073D2CE5D1
:1039B000120709F480C0992309F41AC41092FC0478
:1039C0000230FCE51F0708F491C106312CE512070F
:1039D00038F098012A5F3C452930310508F086C14E
:1039E0000E944F0A9093B7038093B60300313CE5E1
:1039F000130709F436C108F0ACC008309CE519077C
:103A000009F411C108F081C00430FCE51F0709F476
:103A100002C108F067C002303CE5130709F4F1C0A9
:103A200003301C4509F4F3C06091B6031091B7034D
:103A300084E090E00E94772B612F82E290E00E9468
:103A4000772B0F900F900F900F900F90DF91CF91E9
:103A50001F910F91FF90EF90DF90CF90BF90AF90AC
:103A60009F908F907F906F905F900C94DD15053F35
:103A70003CE5130781F158F127E245EE66EE063F7B
:103A8000ECE51E0709F097CFC7010F900F900F903C
:103A90000F900F90DF91CF911F910F91FF90EF90BA
:103AA000DF90CF90BF90AF909F908F907F906F905E
:103AB0005F900C94561A26E241EE61EEE5CF27E2C4
:103AC00045EE65EEE1CF26E241EE60EEDDCF27E286
:103AD00045EE64EED9CF26E241EE62EED5CF28E284
:103AE00041E0EFCF8091B603806106309CE5190775
:103AF00009F48AC08091B603886007301C4508F439
:103B000083C08091B60380627FC00C30FCE51F0744
:103B100009F49FC058F40A303CE5130709F48DC03E
:103B200008F485C08091B6038E7F6EC08091B60385
:103B3000877F0E309CE5190709F466C08091B603B3
:103B40008B7F0F301C4508F45FC08091B6038F7ED9
:103B50005BC00B3FFCE51F0709F461C030F5033182
:103B60003CE5130709F485C078F401319CE5190799
:103B700009F47BC002311C4509F056CF0E94DD15C7
:103B80008091B6038F7740C00531FCE51F0709F42B
:103B900084C008F4A0C08091B70381600A3F1C452F
:103BA00009F042CF8093B7033FCF0F3F8CE5180752
:103BB00009F469C0A8F40D3FECE51E0709F44DC0F7
:103BC0008091B7038E7F0E3F1C4560F38091B70351
:103BD00083608093B70364E070E083E492E036C0D2
:103BE00001302DE5120709F47FC008F466C060E0DB
:103BF00002301D4509F018CF8EE090E00E94772B2F
:103C000013CF8091B60381608093B6030DCF80916E
:103C1000B6038260F9CF8091B6038460F5CF8091BE
:103C2000B7038260BFCF8091B6038064EDCF0E945E
:103C3000DD158091B6038068E7CF8091B6038C6074
:103C40008093B60364E070E083E692E00E949811EE
:103C5000EBCE8091B6038D7FD7CF8091B7038D7F58
:103C6000A1CF8091B6038F7DCFCF8091B6038F7B9C
:103C7000CBCF8091B603837F8093B60362E070E080
:103C800083E392E0E3CF8091B7038C7F8093B70307
:103C900062E070E083E292E0D9CF8091B60382FBCC
:103CA000992790F921E0922790FB82F990FB83F904
:103CB0008093B60383FFE2CFC5CF8091B703982FDF
:103CC000909591708E7F892B90FB81F98093B7033B
:103CD00081FFDECF80CF0E94DD159091B603892F42
:103CE00097FB87F9805890CF61E086CF8091B10330
:103CF0000631ECE51E0709F086C28A7A91E009F4E4
:103D000090E09093A403811119C089E20E94C90731
:103D10000F900F900F900F900F90DF91CF911F9108
:103D20000F91FF90EF90DF90CF90BF90AF909F905A
:103D30008F907F906F905F900C947A0785E3E6CF29
:103D400085E35EC28091DA0380FF2EC08E7F809370
:103D5000DA036091DA037091DB038091DC039091C8
:103D6000DD030E94C7141092D003FFEF20E732E07A
:103D7000F15020403040E1F700C000000F900F905C
:103D80000F900F900F90DF91CF911F910F91FF90A7
:103D9000EF90DF90CF90BF90AF909F908F907F90EB
:103DA0006F905F900C94250D81608093DA0361E041
:103DB00086950F900F900F900F900F90DF91CF91FD
:103DC0001F910F91FF90EF90DF90CF90BF90AF9039
:103DD0009F908F907F906F905F900C94D01A4BE0E3
:103DE0005BE164E17BE10F900F900F900F900F90DB
:103DF000DF91CF911F910F91FF90EF90DF90CF90C7
:103E0000BF90AF909F908F907F906F905F900C9439
:103E10000B0944E15BE16BE07BE1E5CF43EA55E16F
:103E20006AE975E1E0CF42E855E16EE875E1DBCF84
:103E30004AE655E166E775E1D6CF46E755E16AE621
:103E400075E1D1CF4DEB55E16CEA75E1CCCF61E086
:103E500081E0AFCF65E082E00F900F900F900F9060
:103E60000F90DF91CF911F910F91FF90EF90DF9016
:103E7000CF90BF90AF909F908F907F906F905F900A
:103E80000C941E1B68E086E0E7CF64E18FE0E4CF8E
:103E900067E185E1E1CF62E289E1DECF61E083E2C3
:103EA00088CF0E94DA180F900F900F900F900F900C
:103EB000DF91CF911F910F91FF90EF90DF90CF9006
:103EC000BF90AF909F908F907F906F905F900C9479
:103ED0003510C8010E94FD07D82EC7C1183009F45B
:103EE00068C0193009F0D4C19F70F92E882309F4F5
:103EF00034C1892F0E94E013802F0E945B08C8C143
:103F0000F92FFF70FF2E907F19F0F29440EFF4220A
:103F10008823C9F0FF2069F080E2800F883010F01C
:103F200001110BC08091B103F82AF092B1030E94F5
:103F30007A07802F0E946219ABC18091BF03F82AD3
:103F4000F092BF03F4CF802F0E94B508FF2009F440
:103F50009FC1F094005E083010F0D11008C080912D
:103F6000B103F822F092B1030E947A0791C18091C7
:103F7000BF03F822F092BF03F7CF292F269526958D
:103F8000237051F0213009F083C1882379F0802F0C
:103F900093700E9465087CC1882329F0802F93705C
:103FA0000E947B0875C190E080E0FACF90E080E04D
:103FB000F0CF292F237009F065C0811169C1802FCE
:103FC000829586958770880F880F402F4F7050E03C
:103FD00070E060E0082E04C0440F551F661F771F75
:103FE0000A94D2F7C12CD12C760104FF10C03FE017
:103FF000C32ED12CE12CF12C04C0CC0CDD1CEE1C0A
:10400000FF1C8A95D2F7C094D094E094F0949695D2
:1040100096959370923019F1D8F48090B2039090F5
:10402000B303A090B403B090B503913069F04C296C
:104030005D296E297F29CB01BA01682179218A2166
:104040009B210E949F0824C1482959296A297B295C
:10405000CB01BA016C297D298E299F29F2CF4C29E9
:104060005D296E297F29C090B203D090B303E09000
:10407000B403F090B503CB01BA016C257D258E25E4
:104080009F25DFCF2695882311F0292F2170222329
:1040900009F4FEC0802F829586958770880F880F5F
:1040A000402F4F7050E070E060E0082E04C0440FD5
:1040B000551F661F771F0A94D2F7C12CD12C7601A9
:1040C00004FF10C02FE0C22ED12CE12CF12C04C033
:1040D000CC0CDD1CEE1CFF1C8A95D2F7C094D0944A
:1040E000E094F094969596959370923019F1D8F4E7
:1040F0008090FD049090FE04A090FF04B090000515
:10410000913069F04C295D296E297F29CB01BA01D4
:10411000682179218A219B210E949513B9C04829E1
:1041200059296A297B29CB01BA016C297D298E295D
:104130009F29F2CF4C295D296E297F29C090FD046B
:10414000D090FE04E090FF04F0900005CB01BA018E
:104150006C257D258E259F25DFCF802F0E9450085E
:104160008F2D0E94BD1394C000313FE5130709F461
:104170009DCB01318FE5180709F4B5CB0D313CE536
:10418000130709F0B2CB992309F461C00F900F9087
:104190000F900F900F90DF91CF911F910F91FF9093
:1041A000EF90DF90CF90BF90AF909F908F907F90D7
:1041B0006F905F900C942E120031EFE51E0709F40A
:1041C00079CB0131FFE51F07C9F682E074CB85E0AA
:1041D000DE01119601900D928A95E1F7F701228197
:1041E00089819A8121116DCA0E94FD07182F71CA19
:1041F00006311C4561F58091A4038111A1CD89E2AE
:104200000E949E0785CD82720C3C2CE5120709F4B2
:1042100019CE08F08DC0063CECE51E0709F4FECD72
:1042200008F062C0033C2CE5120709F4D8CD08F071
:104230004CC0023C8CE5180709F484CD01158CE5CF
:10424000180709F42ECE0E3D1C4509F42CCEF701BB
:1042500000811181992309F43CCEC8010E94080C09
:10426000D82E682FC8010E942408B8018D2D0E9405
:10427000910A082FD82EF7018281192F12951F70ED
:10428000143009F47ACE08F029CE123008F438CE72
:10429000212F2850330B2230310508F0FDC90F9033
:1042A0000F900F900F900F90DF91CF911F910F9172
:1042B000FF90EF90DF90CF90BF90AF909F908F9046
:1042C0007F906F905F900C94A908043CECE51E076A
:1042D00009F49FCD4AE955E163EA75E1053CFCE547
:1042E0001F0709F480CDAACF093C2CE5120709F479
:1042F0009FCD78F4073CECE51E0709F494CD4EE819
:1043000055E162E875E1083CFCE51F0709F46BCD57
:1043100095CF0A3C2CE5120709F48FCD4CEA55E104
:104320006DEB75E10B3C3CE5130709F45CCD86CFE2
:10433000013D8CE5180709F4A8CDA0F40E3CFCE57E
:104340001F0709F487CD08F482CD0F3C3CE5130725
:1043500009F498CD003D8CE5180709F06FCF6EE0A9
:1043600089E07ACD043DECE51E0709F494CD68F4AC
:10437000023D2CE5120709F48BCD61E088E1033D95
:104380003CE5130709F415CD59CF053D8CE5180719
:1043900009F484CD6AE285E20D35100709F45CCD9D
:1043A0004DCF1F920F920FB60F9211242F933F9370
:1043B0004F935F936F937F938F939F93AF93BF932D
:1043C000CF93DF93EF93FF93D091E900DF7080915B
:1043D000EC00C82FC17080FDC0E81092E900809108
:1043E000F000877F8093F00078940E94F21510927D
:1043F000E9008091F00088608093F000CD2BCF70B1
:10440000C093E900FF91EF91DF91CF91BF91AF9100
:104410009F918F917F916F915F914F913F912F91DC
:104420000F900FBE0F901F9018951F920F920FB60E
:104430000F9211242F933F934F935F936F937F932A
:104440008F939F93AF93BF93EF93FF938091E1007E
:1044500082FF09C08091E20082FF05C08091E100E7
:104460008B7F8093E1008091DA0080FF24C08091EF
:10447000D80080FF20C08091DA008E7F8093DA0020
:104480008091D90080FFA1C080E189BD82E189BD12
:1044900009B400FEFDCF81E0809303048091D9032D
:1044A000811109C00E9489040E947E058091E2006A
:1044B00084608093E2008091E10080FF17C08091CA
:1044C000E20080FF13C08091E2008E7F8093E200C3
:1044D0008091E20080618093E2008091D800806248
:1044E0008093D80019BC85E0809303048091E1009B
:1044F00084FF2FC08091E20084FF2BC080E189BD42
:1045000082E189BD89B5982F917080FFFBCF8091A2
:10451000D8008F7D8093D8008091E1008F7E8093BA
:10452000E1008091E2008F7E8093E2008091E200C2
:1045300081608093E20080910404882309F44BC0D9
:1045400084E0809303040E94DD150E94A9080E9464
:10455000BA1A8091E10083FF27C08091E20083FFB7
:1045600023C08091E100877F8093E10082E0809307
:104570000304109204048091E1008E7F8093E10097
:104580008091E2008E7F8093E2008091E200806162
:104590008093E20042E060E080E00E944C05809160
:1045A000F00088608093F000FF91EF91BF91AF9190
:1045B0009F918F917F916F915F914F913F912F913B
:1045C0000F900FBE0F901F90189519BC1092030406
:1045D0001092D90370CF8091E30087FD93E0909310
:1045E0000304B1CFCDB7DEB7A0970FB6F894DEBF06
:1045F0000FBECDBF109232041092340410923304D7
:1046000080EC8093F70485E394E09093F904809321
:10461000F8041092F6041092F5041092120410920D
:1046200011041092140410921304109216041092A4
:104630001504109218041092170410921A04109284
:10464000190410921C0410921B0410921E04109264
:104650001D041092200410921F0410922204109244
:104660002104109224041092230410922604109224
:104670002504109228041092270410922C04109202
:104680002B0488E696E090930E0480930D0483EC4F
:1046900096E090932E0480932D048CE794E1909300
:1046A0002A048093290480E496E090931004809378
:1046B0000F0484B7877F84BF0FB6F894A8958091C4
:1046C0006000886180936000109260000FBE80E8F7
:1046D00090E00FB6F89480936100909361000FBE54
:1046E00085B7806885BF85B7806885BF8EE396E013
:1046F00090932D0380932C030E9489040E947E05D1
:104700008091E20084608093E200789480910304B9
:104710008823A1F01091E9001F709091EC00892F7F
:10472000817090FD80E8182B1092E9008091E800DC
:1047300083FD0E94F2151F701093E90082E084BD92
:1047400093E095BD9AEF97BD80936E0081E30E9440
:10475000380A86E30E94380A82E30E94380A83E31B
:104760000E94380A86E60E94380A84E30E94380ACA
:1047700086EC0E94380A87E90E94380A1092B80332
:104780001092D1031092B9031092D2031092BA037F
:104790001092D3031092BB031092D40390E080E0F8
:1047A0000E94712B8A3E9E4F11F00E94351082E0CC
:1047B00090E00E94632B8093CA030E944F0A90935B
:1047C000B7038093B6030E943D128FE39CE90197E3
:1047D000F1F700C000000E943D128091D10380FFDC
:1047E00017C06FEF83E290E00E94772B6FEF84E2B7
:1047F00090E00E94772B6FEF85E290E00E94772B8C
:104800006FEF7FEF90E080E00E94952B0E944E07B3
:1048100083E090E00E94632B682F70E090E080E0DE
:104820000E949F086091FD047091FE048091FF0436
:10483000909100050E94FF120E94A01083E290E078
:104840000E94632B813209F079C484E290E00E94D7
:10485000632B813109F072C485E290E00E94632BE2
:10486000863209F06BC48091BC03811136C090E0A0
:1048700080E00E94712B8A3E9E4F21F00E943510ED
:104880000E94CE1588E090E00E946B2B6093DA03C3
:104890007093DB038093DC039093DD036E7F71F4F0
:1048A0000E94CE1588E090E00E946B2B6093DA03A3
:1048B0007093DB038093DC039093DD030E94100967
:1048C0001092D0038091DA0380FF04C060E08695E7
:1048D0000E94D01A81E08093BC0387988F9A8698B3
:1048E0008E9A8FB190E0880F892F881F990B7E993F
:1048F00051C120E0822B8093C8038FE892E090930F
:10490000BE038093BD0343E0C42ED12CEE24E39478
:10491000F12CBB24B3940E943D12882359F08FB729
:10492000F8944091D5035091D6036091D7037091CC
:10493000D8038FBFA1EDB3E0EBECF3E010E000E0B3
:10494000702E8D919191981709F42BC19827812C85
:1049500099249394292F292109F41EC1A82EA92056
:1049600066246394A11001C0612C0E946E078160CF
:10497000A1101092BF0389827A826B829D838C83FF
:10498000CE0101960E942C1BF801E553FC4F80815B
:10499000982690828091D0038823D1F18091CF0313
:1049A000E091DA03E695E81BE093C203823009F058
:1049B0000CC1F0E0ED5BFA4FE4910E2F10E032E60F
:1049C000832E3FE0932E8091C303882361F01092E1
:1049D000C3030E946E079093C1038093C00310929B
:1049E000C5031092C4030E946E07E091C003F091CA
:1049F000C1038E1B9F0B8F3F9F4750F4E00FF11FA9
:104A0000F093C103E093C00380EC93E0F4010995B7
:104A1000E091C803EE0FEE0FE093C8038FB190E072
:104A2000880F892F881F990B7E993BC120E0822B2C
:104A3000E82BE093C803EF70F0E0E35FFC4F808168
:104A40009091C703890F8093C70320E084304CF016
:104A50008091C6038F5F8093C6038AEA0E94391A49
:104A600021E08091C7038D3F4CF48091C6038150B3
:104A70008093C60389EA0E94391A21E08091C70316
:104A8000082E000C990B64E070E00E94CA2A809303
:104A9000C703222359F08FB7F8944091D503509162
:104AA000D6036091D7037091D8038FBFE0912D0496
:104AB000F0912E04309719F08DE094E009952FB70E
:104AC000F8948091F6049091F504891708F4ECC0ED
:104AD000891B2FBF10E000E0882E912C54E0752E2A
:104AE0000815190508F4E4C00E94A9089091C903AB
:104AF000891721F00E94A9088093C90380910304BB
:104B00008430E1F4809184028F708093E900909169
:104B1000E80090FF13C090910304943079F48093DF
:104B2000E9009091F3008091F200892B39F0809197
:104B3000E8008E778093E8000E94A8048091030427
:104B4000843009F0E8CE83E08093E9008091E800AA
:104B500082FFE1CE8091E80090E085FF09C050E03F
:104B600040E060E270E0CE0101960E94030591E012
:104B70008091E8008B778093E800992309F4CBCEED
:104B8000E981E150E33108F0A7C1F0E0E05FFF4CBC
:104B90000C94DE2A22E0AECE8394990C24E082129B
:104BA000D9CE0F5F1F4F0430110509F0C9CE0E9406
:104BB0006E072FEF29832A831B8281609D838C835C
:104BC000CE0101960E942C1BE5CE863059F4F0E010
:104BD000E05CFA4FE4910E2F10E026E7822E2FE0E2
:104BE000922EF1CE893061F4E695F0E0E35CFA4F65
:104BF000E4910E2F10E09AE5892E9DE0992EE3CEE8
:104C00008F3061F4E695F0E0E65CFA4FE4910E2F08
:104C100010E084E8882E8DE0982ED5CE853159F4A9
:104C2000F0E0E95CFA4FE4910E2F10E0B8EE8B2E25
:104C3000BDE09B2EC8CE883169F1833249F4E5E3AB
:104C4000F5E005911491A9E08A2EAFE09A2EBBCE33
:104C500004EF11E07FEB872E7EE0972E843209F47B
:104C6000B2CE00ED17E06DE3862E66E0962E85321B
:104C700009F0A9CE8E2F63E00E94AA2AE92FF0E066
:104C8000EE5CFA4FE4910E2F10E0F6E88F2EFFE075
:104C90009F2E99CE08E210E0E6E38E2EEEE09E2EE7
:104CA00092CE22E030E0C3CE3091F704830F10CFD4
:104CB0008091F50490E06091F70470E00E94CA2AA8
:104CC0002091F8043091F904280F391FF901A080D0
:104CD00060903204F7EFFA15E0F4B092320420E06D
:104CE00040E06A2D81E090E00E94970360923204D8
:104CF0002FB7F8948091F50490E001966091F70445
:104D000070E00E94CA2A8093F5042FBF0F5F1F4FE7
:104D1000E7CEA7FE52C024E0621631F0A0922F0425
:104D2000F0923404E09233048A2D0E9445068130CB
:104D300069F08823D1F08230A9F0833099F0109285
:104D400032041092340410923304D2CF8093320490
:104D500020E040E06A2D81E090E00E9497031092ED
:104D60003204C6CF80933204C3CF80EFA816E1F09F
:104D700097EFA912E4CF2091330430913404C90194
:104D8000B6010E94B62AFC01E35FFB4FA2A2C90153
:104D90000196909334048093330420913104409120
:104DA000300460912F04D9CF70923204A0922F0466
:104DB000F0923404E09233049BCF662009F498CF3C
:104DC0002091330430913404C901B6010E94B62AFF
:104DD000AC01FC01E35FFB4FA2A2C90101969093D5
:104DE0003404809333044130510589F04230510539
:104DF00009F07ECF209131044091300460912F045E
:104E00000E94970380913204843091F671CFE2E0E2
:104E100020E06E126DCFF0CF1A8289E08B831AC02A
:104E20008A81823009F4A3C18330D9F1813009F03D
:104E300053C02FB7F8946091D5037091D603809139
:104E4000D7039091D8032FBF0E94E42A6B837C8301
:104E50008D839E8380910304843009F05CCD109192
:104E6000E9001F709091EC00892F817090FD80E81F
:104E7000182B82E08093E9008091E80080FF0DC04C
:104E800050E040E060E270E0CE0101960E94D9045B
:104E90008091E8008E778093E8001F701093E900FE
:104EA0003ACD8091D1038B838091D2038C83809102
:104EB000D3038D838091D4038E83CCCF8A818230BB
:104EC00059F46B817C818D819E810E94E42A86E267
:104ED00090E00E94772BBECF8FEF8983BBCF4C81B0
:104EE0006B818A810E945D0A9827892798279E8373
:104EF0008D83B0CF8D809E809824892498240A8148
:104F0000F0E20F9F800111248B8128E0829FC00175
:104F10001124080F191F8C8190E0880F991F080F2A
:104F2000191F692DC80187960E94772B682DC8012B
:104F30008896CFCF0E944A0C8DCF8A818138C1F0EC
:104F400060F4803809F086CF20E04B816091DC036B
:104F50008091DB030E94D9147DCF823859F18338C8
:104F600009F078CF20E04091DD036C818B81F2CF96
:104F700060E08B810E94D01A9B818091DA039111AD
:104F800011C08E7F8093DA031092D0038FEF90E7E9
:104F9000E2E081509040E040E1F700C000000E9454
:104FA000250D58CF81608093DA0360E086950E94DA
:104FB000D01A50CF8B818093DE034CCF8A81813809
:104FC00099F030F4803809F045CF8091DD0326CF89
:104FD000823891F0833809F03DCF8091DB038B83D9
:104FE0008091DC038C8336CF8091DA0380FF02C08E
:104FF000869514CF80E012CF8091DE030FCF6091B1
:10500000DA037091DB038091DC039091DD030E9451
:10501000C71420CF80E18A831DCF83E08A8389E58E
:10502000FDCE6A807B807624672476248E010F5F14
:105030001F4F8C80800E912E911CC30189559F4F6C
:105040000815190509F406CFF9E56F16F3E07F0698
:1050500050F40E94632BF8018483FFEF6F1A7F0ADC
:105060000F5F1F4FEACFF8011482F7CF0A811B812F
:10507000102701271027CE0101963C018C80800E5D
:10508000912E911CC80189559F4F8016910609F4F5
:10509000E1CE0935E3E01E0720F4F30164810E94AC
:1050A000772BFFEF6F1A7F0A0F5F1F4FEBCF0E9426
:1050B0009B0CD0CE84E0AFCF6A807B8076246724BF
:1050C00076248E010F5F1F4F8C80800E912E911CD5
:1050D000C30187960815190509F4BCCE20E86216AD
:1050E000710450F40E94632BF8018483FFEF6F1A60
:1050F0007F0A0F5F1F4FECCFF8011482F7CF0A81B0
:105100001B81102701271027CE0101963C018C80BE
:10511000800E912E911CC80187968016910609F485
:1051200099CE0038110520F4F30164810E94772B99
:10513000FFEF6F1A7F0A0F5F1F4FEDCF60E086E22F
:1051400090E00E94772B0E944A0C0E949B0C61E227
:1051500083E290E00E94772B61E184E290E00E947C
:10516000772B66E285E290E00E94772B7CCB86E28B
:1051700090E00E94632B1B821C821D829DCE78943E
:105180001F921FB61F9211248F939F93AF93BF93CB
:105190008091D5039091D603A091D703B091D80305
:1051A0000196A11DB11D8093D5039093D603A093C2
:1051B000D703B093D803BF91AF919F918F911F9068
:1051C0001FBE1F9018951F921FB61F9211248F9318
:1051D0009F93AF93BF938091D5039091D603A091F5
:1051E000D703B091D8034196A11DB11D8093D5037B
:1051F0009093D603A093D703B093D803BF91AF91F8
:105200009F918F911F901FBE1F9018951F920F9214
:105210000FB60F9211247F928F929F92AF92BF92FE
:10522000CF92DF92EF92FF920F931F932F933F93B2
:105230004F935F936F937F938F939F93AF93BF939E
:10524000CF93DF93EF93FF938091590390915A038B
:10525000A0915B03B0915C030196A11DB11D8093E9
:10526000590390935A03A0935B03B0935C0360913E
:10527000590370915A0380915B0390915C030E94E3
:10528000B42C6B017C0120E030E040E85CE36091ED
:1052900055037091560380915703909158030E94D3
:1052A000662D9B01AC01C701B6010E940E2C87FD43
:1052B000B2C01092590310925A0310925B031092DD
:1052C0005C0370900D0580910E05811103C077205D
:1052D00009F497C00E946E076C0171101DC0712CFB
:1052E00080910E05882379F0809111058111782E27
:1052F000C3E1D5E010E000E080915305801711066E
:1053000011F00CF007C180915403882309F479C08F
:1053100010925403782E75C0009103051091040576
:10532000C8010E945F07C0910105D09102058C174A
:105330009D07A8F2C8010E945F077C01EC1AFD0AD4
:10534000D0920405C0920305809005059090060553
:10535000E4012196D0930605C09305050E946E07CF
:10536000C0900805D0900905CC15DD0548F0809166
:105370000705882309F442C010920605109205051E
:1053800000910A0510910B05C0910505D091060505
:1053900080910C055E0163E0AA0CBB1C6A95E1F7E5
:1053A000811157C0F40153E0EE0FFF1F5A95E1F74A
:1053B000E00FF11FD801AA0DBB1D2D913D914D911C
:1053C0005C9160817181828193810E940E2C811198
:1053D00040C081E080930C054FE050E060E070E059
:1053E000CB010E94D91090920605809205058FE0AE
:1053F00090E0909302058093010572CF0E94110AFC
:10540000712C80910E0581119DC080910D05811137
:1054100099C00E94B509FF91EF91DF91CF91BF91A3
:10542000AF919F918F917F916F915F914F913F913C
:105430002F911F910F91FF90EF90DF90CF90BF9031
:10544000AF909F908F907F900F900FBE0F901F9006
:10545000189510920C05F801EA0DFB1D6481758109
:10546000868197810E94852C9B01A0E6BAEE0E945E
:10547000FF2B20E03EE140E050E00E94DD2B81E088
:10548000C81AD108812C4EE1942EA12CB12C2E15D6
:105490003F05F0F0D0930605C0930505E216F3062C
:1054A000A8F5C9018E199F097C0183E0CC0FDD1F8F
:1054B0008A95E1F7C00FD11F688179818A819B812C
:1054C000A7010E94D910F0920205E092010508CFD1
:1054D000CC15DD05F8F6E21AF30A2196FE0123E069
:1054E000EE0FFF1F2A95E1F7E00FF11F6481758130
:1054F000868197810E94852C9B01A0E6BAEE0E94CE
:10550000FF2BA50194010E94DD2BC1CFEE24E39473
:10551000F12CCBCFEE80FF80C70101978E3F9F4FCC
:1055200068F4888199810E945F078E159F0530F08D
:105530006A817B818C819D810E9401140F5F1F4FC6
:105540002896DACE772009F466CF0E946A030E947B
:10555000C00961CF991B79E004C0991F961708F024
:10556000961B881F7A95C9F780950895AA1BBB1BC7
:1055700051E107C0AA1FBB1FA617B70710F0A61B53
:10558000B70B881F991F5A95A9F780959095BC0174
:10559000CD01089597FB072E16F4009407D077FDF0
:1055A00009D00E94B62A07FC05D03EF4909581955B
:1055B0009F4F0895709561957F4F0895EE0FFF1FDF
:1055C0000590F491E02D099469279627692778279B
:1055D0008727782708950E94FF2B332312F48A1B14
:1055E0009B0B0C94F52A0E94FF2BB7FF0895821B9A
:1055F000930B08958F929F92AF92BF92CF92DF92BA
:10560000EF92FF92CF93DF93EC01688179818A81D9
:105610009B81611571058105910521F464E279EDA5
:105620008BE597E02DE133EF41E050E00E94AB2B9A
:1056300049015A019B01AC01A7EAB1E40E94CA2BBF
:105640006B017C01ACEEB4EFA50194010E94D82B54
:10565000DC01CB018C0D9D1DAE1DBF1DB7FF03C02E
:105660000197A109B04888839983AA83BB839F7758
:10567000DF91CF91FF90EF90DF90CF90BF90AF90F0
:105680009F908F9008950E94FA2A089580E091E0FB
:105690000E94FA2A0895B0E0A0E080930001909360
:1056A0000101A0930201B09303010895FC01415050
:1056B000504030F001900616D1F73197CF01089590
:1056C000882799270895F999FECF92BD81BDF89A50
:1056D000992780B50895A6E1B0E044E050E00C942D
:1056E0009D2BA8E1B0E042E050E00C949D2B262FCA
:1056F000F999FECF92BD81BDF89A019700B40216C8
:1057000039F01FBA20BD0FB6F894FA9AF99A0FBE75
:1057100008950396272F0E94782B0E94772B252F20
:105720000E94782B242F0C94782B0196272F0E940F
:10573000782B0C94772BDC01CB01FC01F999FECF7F
:1057400006C0F2BDE1BDF89A319600B40D92415009
:105750005040B8F70895052E97FB1EF400940E9460
:10576000C22B57FD07D00E94DD2B07FC03D04EF45F
:105770000C94C22B50954095309521953F4F4F4F3B
:105780005F4F089590958095709561957F4F8F4FED
:105790009F4F08950E94FF2BA59F900DB49F900DE1
:1057A000A49F800D911D11240895B7FF0C94CA2B5E
:1057B0000E94CA2B821B930B0895A1E21A2EAA1BEA
:1057C000BB1BFD010DC0AA1FBB1FEE1FFF1FA217B1
:1057D000B307E407F50720F0A21BB30BE40BF50BAE
:1057E000661F771F881F991F1A9469F76095709537
:1057F000809590959B01AC01BD01CF010895A29FBA
:10580000B001B39FC001A39F700D811D1124911D94
:10581000B29F700D811D1124911D08950E94F12CDD
:1058200008F481E008950E94272C0C942C2D0E94EE
:10583000252D58F00E941E2D40F029F45F3F29F0DD
:105840000C94152D51110C94602D0C941B2D0E945D
:105850003D2D68F39923B1F3552391F3951B550B17
:10586000BB27AA2762177307840738F09F5F5F4F33
:10587000220F331F441FAA1FA9F335D00E2E3AF072
:10588000E0E832D091505040E695001CCAF72BD08A
:10589000FE2F29D0660F771F881FBB1F26173707DB
:1058A0004807AB07B0E809F0BB0B802DBF01FF270D
:1058B00093585F4F3AF09E3F510578F00C94152DA8
:1058C0000C94602D5F3FE4F3983ED4F38695779572
:1058D0006795B795F7959F5FC9F7880F911D9695C6
:1058E000879597F90895E1E0660F771F881FBB1F22
:1058F000621773078407BA0720F0621B730B840BCF
:10590000BA0BEE1F88F7E09508950E94452D88F0A8
:105910009F5798F0B92F9927B751B0F0E1F0660F73
:10592000771F881F991F1AF0BA95C9F714C0B130B4
:1059300091F00E945F2DB1E008950C945F2D672FC8
:10594000782F8827B85F39F0B93FCCF386957795E3
:105950006795B395D9F73EF49095809570956195CC
:105960007F4F8F4F9F4F0895E89409C097FB3EF4F7
:1059700090958095709561957F4F8F4F9F4F99239C
:10598000A9F0F92F96E9BB279395F695879577951A
:105990006795B795F111F8CFFAF4BB0F11F460FFDA
:1059A0001BC06F5F7F4F8F4F9F4F16C0882311F032
:1059B00096E911C0772321F09EE8872F762F05C046
:1059C000662371F096E8862F70E060E02AF09A95E1
:1059D000660F771F881FDAF7880F9695879597F9D6
:1059E0000895990F0008550FAA0BE0E8FEEF161670
:1059F0001706E807F907C0F012161306E407F507C3
:105A000098F0621B730B840B950B39F40A2661F036
:105A1000232B242B252B21F408950A2609F4A140D9
:105A2000A6958FEF811D811D089597F99F6780E8E6
:105A300070E060E008959FEF80EC089500240A94E0
:105A40001616170618060906089500240A94121659
:105A50001306140605060895092E0394000C11F48C
:105A6000882352F0BB0F40F4BF2B11F460FF04C039
:105A70006F5F7F4F8F4F9F4F089557FD9058440F92
:105A8000551F59F05F3F71F04795880F97FB991F9D
:105A900061F09F3F79F0879508951216130614065A
:105AA000551FF2CF4695F1DF08C0161617061806E7
:105AB000991FF1CF86957105610508940895E894C2
:105AC000BB2766277727CB0197F908950E94792D88
:105AD0000C942C2D0E941E2D38F00E94252D20F0B4
