:100000000C94FF070C9446080C9446080C94460880
:100010000C9446080C9446080C9446080C94460828
:100020000C9446080C9446080C94791D0C94501CB2
:100030000C948D2F0C9446080C9446080C9446089A
:100040000C9446080C9446080C9446080C944608F8
:100050000C9446080C94941C0C9446080C94460886
:100060000C9446080C9446080C9446080C944608D8
:100070000C9446080C9446080C9446080C944608C8
:100080000C9446080C9446080C9446080C944608B8
:100090000C9446080C9446080C9446080C944608A8
:1000A0000C9446080C9446080C94460805010980F7
:1000B000A101850319012AB700150126B700950192
:1000C00075108100C0050C0901A101850419012AE0
:1000D000A002150126A002950175108100C005013E
:1000E0000906A1018505050719E029E71500250185
:1000F0009508750181020507190029EF15002501F2
:1001000095F075018102050819012905950575010C
:100110009102950175039101C00660FF0961A1017B
:100120000962150026FF00952075088102096315F4
:100130000026FF00952075089102C005010906A15F
:1001400001050719E029E7150025019508750181CA
:10015000029501750881010507190029FF15002680
:10016000FF00950675088100050819012905950508
:1001700075019102950175039101C0000000C0FF57
:10018000FEFCF8F0F0F0F0F8FCFEFFC0000000000C
:100190000000000000000000000000000424170F11
:1001A0001F1CFCFFFFFFFFFCFCDFCF97A404000037
:1001B000000080C0E0E0E0E0C000000000000000BF
:1001C000003FFFFFFFFFFFFFFFFFFFFFFFFFFEFC02
:1001D000F8F0CF1F7FF9E1C38300000000000000AA
:1001E000000000C3FFFFFFFFFFFFFFFFFFFFFFFF58
:1001F000FFFFFFFF7F7F3F1F0F0000000000000098
:100200000000000000000000000000000000C0FF2F
:10021000FEFCF8F0F0F0F0F8FCFEFFC0000000007B
:100220000000000000000000000000000424170F80
:100230001F1CFCFFFFFFFFFCFCDFCF97A4040000A6
:10024000000000008080808080000000000000002E
:10025000003FFFFFFFFFFFFFFFFFFFFFFFFFFEFC71
:10026000F8F0C01FFFFFE78F0F0F00000000000035
:10027000000000C3FFFFFFFFFFFFFFFFFFFFFFFFC7
:10028000FFFFFFFF7F7F3F1F0F0000000000000007
:100290000000000000000000000000000000C0FF9F
:1002A000FEFCF8F0F0F0F0F8FCFEFFC000000000EB
:1002B0000000000000000000000000000424170FF0
:1002C0001F1DFDFFFFFFFFFDFDDFCF97A404000012
:1002D000000080C0E0F0FC3C1C00000000000000BA
:1002E000003FFFFFFFFFFFFFFFFFFFFFFFFFFEFCE1
:1002F000F8F0CF3FFFFBF1E0C0000000000000007D
:10030000000000C3FFFFFFFFFFFFFFFFFFFFFFFF36
:10031000FFFFFFFF7F7F3F1F0F0000000000000076
:100320000000000000000000000000000000C0FF0E
:10033000FEFCF8F0F0F0F0F8FCFEFFC0000000005A
:100340000000000000000000000000000424170F5F
:100350001F1DFDFFFFFFFFFDFDDFCF97A404000081
:1003600000001C3C7CF8F0E00000000000000000F1
:10037000003FFFFFFFFFFFFFFFFFFFFFFFFFFEFC50
:10038000F8F0C000FEFFFFF1C00000000000000018
:10039000000000C3FFFFFFFFFFFFFFFFFFFFFFFFA6
:1003A000FFFFFFFF7F7F3F1F0F00000000000000E6
:1003B0000000000000000000000000000000C0FF7E
:1003C000FEFCF8F0F0F0F0F8FCFEFFC000000000CA
:1003D0000000000000000000000000000424170FCF
:1003E0001F1FFFFFFFFFFFFFFFDFCF97A4040000E9
:1003F000000078F8F0F0E0C000000000000000000D
:10040000003FFFFFFFFFFFFFFFFFFFFFFFFFFEFCBF
:10041000F8F0C00001079FFFFFF800000000000097
:10042000000000C3FFFFFFFFFFFFFFFFFFFFFFFF15
:10043000FFFFFFFF7F7F3F1F0F070000000000004E
:100440000000000000000000000000000000C0FFED
:10045000FEFCF8F0F0F0F0F8FCFEFFC00000000039
:100460000000000000000000000000000424170F3E
:100470001F1FFFFFFFFFFFFFFFDFCF97A404000058
:1004800000001C3C7CF8F0E00000000000000000D0
:10049000003FFFFFFFFFFFFFFFFFFFFFFFFFFEFC2F
:1004A000F8F0C000BEFFFFF1C00000000000000037
:1004B000000000C3FFFFFFFFFFFFFFFFFFFFFFFF85
:1004C000FFFFFFFF7F7F3F1F0F00000000000000C5
:1004D0000000000000000000000000000000C0FF5D
:1004E000FEFCF8F0F0F0F0F8FCFEFFC000000000A9
:1004F0000000000000000000000000000424170FAE
:100500001F1DFDFFFFFFFFFDFDDFCF97A4040000CF
:10051000000000009CFCF8F000000000000000005B
:10052000003FFFFFFFFFFFFFFFFFFFFFFFFFFEFC9E
:10053000F8F0DE3F7FF7E3C080000000000000001D
:10054000000000C3FFFFFFFFFFFFFFFFFFFFFFFFF4
:10055000FFFFFFFF7F7F3F1F0F0000000000000034
:100560000000000000000000000000000000C0FFCC
:10057000FEFCF8F0F0F0F0F8FCFEFFC00000000018
:100580000000000000000000000000000424170F1D
:100590001F1DFDFFFFFFFFFDFDDFCF97A40400003F
:1005A000000080C0E0F0FC3C1C00000000000000E7
:1005B000003FFFFFFFFFFFFFFFFFFFFFFFFFFEFC0E
:1005C000F8F0CF3F7FFBF1E0C0000000000000002A
:1005D000000000C3FFFFFFFFFFFFFFFFFFFFFFFF64
:1005E000FFFFFFFF7F7F3F1F0F00000000000000A4
:1005F00000000000000000000000000001010101F7
:1006000001010101010202020202020202020303CD
:10061000030303030303040404040404040505059D
:10062000050506060606060707070707080808085F
:10063000090909090A0A0A0B0B0B0C0C0C0D0D0D0C
:100640000E0E0E0F0F0F10101111111212131314A2
:1006500014151516161717181819191A1A1B1B1C1A
:100660001D1D1E1E1F202021222223242425262674
:10067000272829292A2B2C2D2D2E2F3031323233A9
:100680003435363738393A3B3C3D3E3F40414243B2
:100690004445464748494A4C4D4E4F505153545596
:1006A0005658595A5B5D5E5F616264656668696B46
:1006B0006C6D6F7072737577787A7B7D7E808283C4
:1006C0008587888A8C8E8F91939596989A9C9EA008
:1006D000A2A3A5A7A9ABADAFB1B3B5B7BABCBEC015
:1006E000C2C4C6C9CBCDCFD1D4D6D8DBDDDFE2E4DE
:1006F000E7E9EBEEF0F3F5F8FAFDFFFFAA7F5540CE
:100700002223252628292A2C2D2F3032333536381E
:100710003A3B3D3E4042434547494A4C4E50515377
:100720005557595A5C5E6062646668696B6D6F719B
:10073000737577797B7D7F81838587898A8C8E909D
:10074000929496989A9C9E9FA1A3A5A7A8AAACAEA6
:10075000AFB1B3B4B6B8B9BBBCBEBFC1C2C3C5C6E6
:10076000C7C9CACBCCCDCED0D1D2D2D3D4D5D6D78F
:10077000D7D8D9D9DADADBDBDBDCDCDCDCDCDDDDCD
:10078000DDDDDCDCDCDCDCDBDBDBDADAD9D9D8D7BD
:10079000D7D6D5D4D3D2D2D1D0CECDCCCBCAC9C75F
:1007A000C6C5C3C2C1BFBEBCBBB9B8B6B4B3B1AF96
:1007B000AEACAAA8A7A5A3A19F9E9C9A9896949236
:1007C000908E8C8A89878583817F7D7B797775730D
:1007D000716F6D6B6968666462605E5C5A595755EB
:1007E0005351504E4C4A4947454342403E3D3B3AA7
:1007F0003836353332302F2D2C2A2928262523222E
:100800001150050006000700080009000A000B004F
:100810000C000D000E000F0010001100120013005C
:10082000125001000100010001000100010001005F
:1008300001000100010001000100010001000100B0
:10084000135001000100010001000100010001003E
:100850000100010001000100010001000100010090
:100860001050010001000100010001000100010021
:100870000100010001000100010001000100010070
:1008800000AF00AE0000000000000000000000000B
:100890000000000000000000000000000000000058
:1008A00000000000000000007E0F00D4FFFFFFC723
:1008B0000000007800000000000000002A2B280043
:1008C00000000000000000000000000000000029FF
:1008D000000000002C1E3420212224342627252E3F
:1008E000362D3738271E1F20212223242526333377
:1008F000362E37381F0405060708090A0B0C0D0EA3
:100900000F101112131415161718191A1B1C1D2F6E
:100910003130232D350405060708090A0B0C0D0E8E
:100920000F101112131415161718191A1B1C1D2F4E
:100930003130354C00DA0281FFD9F1DB20A4A62E3C
:10094000AF00A0C000A1C800AED580A81FD3004052
:100950008D1420001E0F0500047F3F1F64321464B5
:100960003214783C1E1E140A055343523A58005361
:1009700043523A4F002D2D2D2D2D004341503A5812
:10098000004341503A4F004E554D3A58004E554D98
:100990003A4F002020202020005354415445002D80
:1009A0002D2D2D2D004C41594552002D5247422DE1
:1009B000004D4143524F002D4E41562D002D544FB6
:1009C000502D000902BF00050100A0FA0904000033
:1009D0000103010100092111010001224000070566
:1009E000810308000A090401000203000000092134
:1009F00011010001222200070582032000010705E2
:100A00000303200001090402000103000000092182
:100A100011010001226D000705840320000A080B64
:100A200003020101000009040300000101000009A4
:100A3000240100010900010409040400020103006B
:100A400000072401000141000624020101000624E0
:100A50000202020009240301030102010009240328
:100A6000020401010100090506024000050000051D
:100A70002501010109058502400005000005250149
:100A800001031201100100000008504B6B0101002E
:100A9000010200010C0362006D003100360073009A
:100AA000000016034B0050007200650070007500D6
:100AB00062006C0069006300000004030904070879
:100AC0007F0807003E5B4F5B3E003E6B4F6B3E0076
:100AD0001C3E7C3E1C00183C7E3C18001C577D5779
:100AE0001C001C5E7F5E1C0000183C180000FFE725
:100AF000C3E7FF00001824180000FFE7DBE7FF0052
:100B000030483A060E00262979292600407F05053F
:100B10000700407F05253F005A3CE73C5A007F3ED6
:100B20001C1C0800081C1C3E7F0014227F2214009D
:100B30005F5F005F5F0006097F017F0000668995A7
:100B40006A0060606060600094A2FFA294000804E4
:100B50007E04080010207E20100008082A1C0800CF
:100B6000081C2A0808001E10101010000C1E0C1E75
:100B70000C0030383E383000060E3E0E06000000F5
:100B80000000000000005F000000000700070000F8
:100B9000147F147F1400242A7F2A12002313086470
:100BA0006200364956205000000807030000001C70
:100BB000224100000041221C00002A1C7F1C2A0048
:100BC00008083E0808000080703000000808080887
:100BD00008000000606000002010080402003E5180
:100BE00049453E0000427F400000724949494600A5
:100BF0002141494D33001814127F10002745454507
:100C000039003C4A49493100412111090700364960
:100C100049493600464949291E00000014000000D9
:100C20000040340000000008142241001414141481
:100C300014000041221408000201590906003E4137
:100C40005D594E007C1211127C007F4949493600E3
:100C50003E41414122007F4141413E007F49494997
:100C600041007F09090901003E41415173007F089D
:100C700008087F0000417F4100002040413F010003
:100C80007F08142241007F40404040007F021C0248
:100C90007F007F0408107F003E4141413E007F09F4
:100CA000090906003E4151215E007F0919294600CD
:100CB00026494949320003017F0103003F4040407B
:100CC0003F001F2040201F003F4038403F0063147A
:100CD000081463000304780403006159494D43007C
:100CE000007F4141410002040810200000414141C1
:100CF0007F00040201020400404040404000000325
:100D0000070800002054547840007F2844443800ED
:100D1000384444442800384444287F00385454540C
:100D2000180000087E09020018A4A49C78007F081F
:100D30000404780000447D4000002040403D000055
:100D40007F102844000000417F4000007C047804AC
:100D500078007C0804047800384444443800FC18C7
:100D60002424180018242418FC007C08040408001B
:100D700048545454240004043F4424003C40402080
:100D80007C001C2040201C003C4030403C0044289B
:100D9000102844004C9090907C004464544C4400D3
:100DA00000083641000000007700000000413608CE
:100DB00000000201020402003C2623263C00000041
:100DC00000000000404040F0F8F8FF38FFF8F83F1E
:100DD000F8F8FF38FFF8F8F040404000000000004D
:100DE0000080C0C0C0800000C0C08000000080C083
:100DF000C000C0C0000080C0C00000000000C0C033
:100E0000C0C0C000C0C00000000000000000000022
:100E100000000000000000000000000000000000D2
:100E200000000000000000000000000000000000C2
:100E300000000000000000000000000000C0F0F80A
:100E4000FC3E1E06010000007F4141417F007F41C2
:100E500041417F000080C0E07E5B4F5BFEC0000030
:100E6000C000DCD7DEDEDED7DC00C0000000000002
:100E70000000000000000000000000000000000072
:100E800000000000494949FFFFFFFFE0DFBFBF004E
:100E9000BFBFDFE0FFFFFFFF49494900000000003E
:100EA0001F3F6060E0BF1F007F7F071E381E077F67
:100EB0007F007F7F0E1F3B716000000000007F7F7E
:100EC0000C0C0C007E7E007F7E0303007F7E0303FC
:100ED0007E7E03037F7E000F3E703C063C703E0F1B
:100EE00000327B49493F7E007F7E0303001E3F693D
:100EF000696F2600000000000000000000030F1FC3
:100F00003F3C7870600000007F4141417F007F419D
:100F100041417F00307B7F7830202030787F3B005C
:100F200003000F7F0F0F0F7F0F0003000000000072
:100F300000000000000000000000000000000000B1
:100F400000000000010101070F0F7F0F7F0F0F7ED0
:100F50000F0F7F0F7F0F0F0701010100000000003E
:100F6000000000000001010000000000000000007F
:100F70000000000000000000000000000000000071
:100F80000000000000000000000000000000000061
:100F90000000000000000000000000000000000051
:100FA0000000000000000000000000000000000041
:100FB0000000000000000000000000000000000031
:100FC0000000000000000000000000000000000021
:100FD0000000000000000000000000000000000011
:100FE0000000000000000000000000000000000001
:100FF00000000000000000000000000000001124BC
:101000001FBECFEFDAE0DEBFCDBF04B603FE27C0C0
:101010008091FD059091FE05A091FF05B09100061D
:101020008730904BA740B04BD1F41092FD05109241
:10103000FE051092FF051092000614BE84B7877F4C
:1010400084BF0FB6F894A895809160008861809362
:101050006000109260000FBEE0E0F8E3099525E023
:10106000A0EFB1E001C01D92AD3FB207E1F711E082
:10107000A0E0B1E0E0E1F8E602C005900D92A03FEB
:10108000B107D9F70E9455270C94AA330C9400009D
:10109000CF92DF92EF92FF920F931F93CF93DF9344
:1010A00000D00F92CDB7DEB77C01162FD42EC22E02
:1010B000809123038430B9F5E0911803F09119036E
:1010C000309709F440C0C701019763E070E00E94C7
:1010D000A530CB01880F991F860F971F19834A836C
:1010E000CB824E2D481B9E012F5F3F4FBC018EEFE0
:1010F00092E00995E0911C03F0911D03309739F0BF
:101100000C2D2D2D412FB7018EEF92E009950F90F8
:101110000F900F90DF91CF911F910F91FF90EF9063
:10112000DF90CF90089582E0E816F10409F45AC0E8
:1011300083E0E816F104A9F081E0E816F10409F46F
:1011400084C0F12CE12CE0911A03F0911B0330973D
:1011500089F20C2D2D2D412FB7018EEF92E00995CC
:10116000C9CF862F807F803A11F188F48038D1F082
:10117000E0910203F0910303803929F7309719F3C6
:10118000123F49F12C2D4D2D612F6F7027C0803EED
:1011900099F0803FB1F0E0910003F0910103803BB2
:1011A00091F6ECCFE0910403F0910503E7CFE091D5
:1011B0000603F0910703E2CFE0910803F0910903E1
:1011C000DDCF623F09F0BFCFE0910A03F0910B033E
:1011D000309709F4B8CF2C2D4D2D62EF8EEF92E0B1
:1011E000099588CF862F807F803DB9F0803FD1F070
:1011F000E0910C03F0910D03803C09F0A4CF3097EF
:1012000009F4A1CF812F8D7F4D2D612F6F70813F0C
:10121000C9F08EEF92E009956DCFE0910E03F09149
:101220000F03EDCFE0911003F0911103633F39F00C
:10123000613F09F088CFE0911203F09113033097DA
:1012400009F481CF4D2D612FE4CFE0911403F0918B
:101250001503683F38F4663F09F075CFE091160337
:10126000F0911703309709F46ECF612F8EEF92E063
:10127000099540CFE8EDF0E080818E7F8083109269
:10128000E2001092DA001092E100A0EEB0E08C9142
:1012900081608C9380818F77808319BCA7EDB0E04B
:1012A0008C918E7F8C9380818F7E80831092CA0276
:1012B00008952091E4003091E50095E6A901209180
:1012C000EC00822F817020FF06C08091E80080FF33
:1012D00006C080E008952091E80022FD1AC08091A8
:1012E000F402882389F0853089F08091EB0085FD38
:1012F0000FC02091E4003091E50042175307F9F246
:101300009150E1F684E0089582E0089583E0089525
:1013100081E00895EF92FF920F931F93CF937C018A
:101320008B010E945909C82F811117C08091E800D4
:1013300085FD0BC08091E8008E778093E8000E94C5
:101340005909882399F3C82F08C0F70181917F01BB
:101350008093F1000150110949F78C2FCF911F9113
:101360000F91FF90EF900895EF92FF920F931F93CC
:10137000CF937C018B010E945909C82F811117C09E
:101380008091E80085FD0BC08091E8008B77809309
:10139000E8000E945909882399F3C82F08C080915A
:1013A000F100F70181937F010150110949F78C2F5A
:1013B000CF911F910F91FF90EF9008958091F602C9
:1013C00087FF13C08091E80082FF06C08091E8008B
:1013D0008B778093E80004C08091F4028111F2CFF2
:1013E00008958091F4028823D9F38091E80080FF6A
:1013F000F8CF8091E8008E77ECCF982F9093E9009A
:10140000242F762F50E0891731F07091EC00209155
:10141000ED005091F00021FD07C09F5F973071F7FC
:101420008093E90081E008953091EB003E7F309396
:10143000EB003091ED003D7F3093ED003091EB00FB
:1014400031603093EB007093EC002093ED005093EB
:10145000F0002091EE0027FDE0CF80E00895CF92CC
:10146000DF92EF92FF920F931F93CF93DF93C8ED1C
:10147000D0E088818F7E8883E7EDF0E08081816015
:10148000808384E082BF81E08093CA0288818E7F5E
:10149000888302EE10E0F80110821092DA0081EEEB
:1014A000C82ED12CF601108288818F77888388819D
:1014B0008068888388818F7D888319BC1092F402AC
:1014C0001092F5021092F3021092F20290EEE92EC1
:1014D000F12CF70180818B7F8083888181608883F4
:1014E00042E060E080E00E94FD09F60180818E7F8D
:1014F0008083F8018081816080838081886080831F
:10150000F70180818E7F8083888180618883DF916D
:10151000CF911F910F91FF90EF90DF90CF900895A2
:10152000FC018091FC029091FD0286179707A0F0C4
:101530006115710529F49091E8009E779093E80079
:1015400090E06115710551F4911108C08091E80097
:1015500082FF34C080E00895BC01F2CF8091F40294
:101560008823C1F18530C1F18091E80083FD30C04E
:101570008091E80082FDEACF8091E80080FFE1CF12
:101580008091F3002091F200382F6115710519F058
:101590002830310558F091E02830310509F090E00D
:1015A0002091E8002E772093E800CBCF81918093A3
:1015B000F100615071092F5F3F4FE7CF8091F40236
:1015C000882341F0853041F08091E80083FFBECF51
:1015D00081E0089582E0089583E00895089580E011
:1015E00008950895089508958091D1020895982F3F
:1015F000907F903BE9F040F49039D1F0903AC1F0FF
:101600009038B1F080E00895903D19F020F4903CBE
:10161000C9F782E00895903E59F0903F99F7815FB5
:101620008F3080F7E82FF0E0EE54FE4F8081089570
:1016300083E00895DF92EF92FF920F931F93CF9371
:10164000DF9300D000D0CDB7DEB77B01142FD22EB0
:101650004A832B830C83842F0E94F70A811141C097
:1016600082E0E816F104C1F183E0E816F10439F0F4
:10167000EA94EF2829F5173F29F485E004C087E0B4
:10168000073F09F084E089838091F4028430C1F43B
:1016900080911D018F708093E90050E040E064E08C
:1016A00070E0CE0101960E948A09811109C08091E3
:1016B000E80085FD05C08091E8008E778093E80002
:1016C0000F900F900F900F90DF91CF911F910F917E
:1016D000FF90EF90DF90089587EFD812D3CF86E088
:1016E000D2CF12951F701983CFCFFF920F931F9304
:1016F000CF93DF9300D000D000D00F92CDB7DEB7EC
:101700008C0108511F4F8091F402843009F06CC0A5
:10171000809122018F708093E9008091E80082FF20
:1017200063C08091E80085FF5FC050E040E064E066
:1017300070E0CE0101960E94B4098091E80085FD19
:1017400005C08091E8008B778093E800FA808F2DA8
:101750000E94F70A282FFD828B818E838C818F83D4
:1017600021110AC08981843039F1873029F186300E
:1017700029F121E0853039F630E0E5E0F0E0EC0FCA
:10178000FD1FE30FF11DF0804FB7F894D8011196BB
:10179000EC911197F0E0CF01019612966C9170E0F8
:1017A0000E94B930D8015C915817190649F44FBF0F
:1017B0003F5F321710F3A7CF23E0DECF22E0DCCF6C
:1017C00013968D919C911497E80FF91FF082119652
:1017D0008C91119790E0019612966C9170E00E94A6
:1017E000B930F8018183E3CF27960FB6F894DEBFB6
:1017F0000FBECDBFDF91CF911F910F91FF90089544
:1018000087E797E7909301088093000888E19AE0C2
:101810000FB6F894A895809360000FBE9093600077
:10182000FFCF9C014FB7F89480918A0290918B0270
:10183000A0918C02B0918D024FBF821B930B089533
:101840002FB7F89460918A0270918B0280918C027C
:1018500090918D022FBF08958091710290917D0229
:10186000892B90917002892B8093F201E09187027D
:10187000F0918802309799F090913201992349F0C4
:101880009091760297FF05C08093F30185E08093E5
:10189000F2010280F381E02D82EF91E00994089536
:1018A000909132019923D1F09091760297FF16C062
:1018B000E82FE695E695E695EE31E0F4F0E0EE509F
:1018C000FE4F282F277081E090E001C0880F2A95F5
:1018D000EAF780959281892382830895E4EFF1E00D
:1018E0009191891303C0DF0111971C9291E0EA3FA7
:1018F000F907B1F70895909132019923C1F09091C1
:10190000760297FF14C0E82FE695E695E695EE314E
:10191000F8F4F0E0EE50FE4F877021E030E001C0B7
:10192000220F8A95EAF78281822B82830895A4EFA1
:10193000B1E0EFEF90E02D91821751F0EF3F19F4F5
:10194000211101C0E92F9F5F9630A9F7EF3F09F4FD
:1019500008950E2E000CFF0BEE50FE4FE6CF990FB0
:10196000990F890F982F977086958695869525E013
:10197000829FF0011124EA59FD4F50E040E080E0E1
:10198000219130E0092E02C0369527950A94E2F79E
:1019900021703327042E01C0220F0A94EAF7822B0C
:1019A0004F5F5F4F4530510559F70895990F990FD3
:1019B000890F982F977041E001C0440F9A95EAF77C
:1019C00086958695869595E0899FF0011124EA59C0
:1019D000FD4F30E020E070E05191DF011197CB0125
:1019E000022E02C0969587950A94E2F78170819540
:1019F0008527842385278C932F5F3F4F2530310522
:101A000059F70895882341F08095909171028923B8
:101A1000809371020C942C0C0895882339F09091D6
:101A20007102982B909371020C942C0C08952091C4
:101A30005B0230915C022817390771F090935C02C9
:101A400080935B02E0918702F0918802309721F049
:101A50000084F185E02D0994089520915902309178
:101A60005A022817390771F090935A02809359024D
:101A7000E0918702F0918802309721F00680F7818B
:101A8000E02D0994089590E080E00E942D0D90E0F3
:101A900080E00E94170D10927D02109270020C944B
:101AA0002C0C6093EE037093EF038093F0039093FC
:101AB000F1030C94430D0F931F936091EE0370910B
:101AC000EF038091F0039091F1038B019C0106706C
:101AD000112722273327063011052105310529F466
:101AE00068601F910F910C94510D677FFACF0F938F
:101AF0001F9341E050E060E070E004C0440F551FC8
:101B0000661F771F8A95D2F7CB01BA016095709551
:101B1000809590950091EE031091EF032091F003D2
:101B20003091F10360237123822393231F910F913E
:101B30000C94510D0F931F9341E050E060E070E072
:101B400004C0440F551F661F771F8A95D2F78091F6
:101B5000EE039091EF03A091F003B091F1038A019D
:101B60009B01082B192B2A2B3B2BC901B8011F9174
:101B70000F910C94510D60937202709373028093D5
:101B80007402909375020C94430DE0918702F091DA
:101B90008802309721F00190F081E02D099480E0D7
:101BA0000895882309F452C0823871F40E94C50D4B
:101BB00081FF4CC089E30E947B0C0E942C0C89E3BE
:101BC0000E94500C0C942C0C833859F40E94C50DC3
:101BD00080FF3CC083E50E947B0C0E942C0C83E5B7
:101BE000EFCF843859F40E94C50D82FF2FC087E4DF
:101BF0000E947B0C0E942C0C87E4E2CF9CEF980F94
:101C0000913AF0F290E2980F983088F4877021E0D2
:101C100030E0A90102C0440F551F8A95E2F7CA01BE
:101C2000809590917102892380937102CBCF9BE5BF
:101C3000980F933020F490E080E00C942D0D885A9A
:101C4000873120F490E080E00C94170D0895FA019C
:101C5000811101C0FB0109948091CB02982F9E7FD6
:101C600029F4817082608093CB0208958635E8F371
:101C700081708465F8CFAF92BF92DF92EF92FF92AE
:101C80000F931F93CF93DF93082F162FE901E42FB3
:101C9000F0E0E550FA4F611110C0E4915E2F4E2F35
:101CA0004983E8835A83DF91CF911F910F91FF9071
:101CB000EF90DF90BF90AF900895E62EF12C449105
:101CC000D42EE42FF0E026E0829FC00111242FEFF4
:101CD00030E0B9010E94A530802F90E0880F991F55
:101CE00055E5569FD001579FB00D11248A1B9B0BC1
:101CF000982F990F890F5901AE18BF08AE9ED001D9
:101D0000AF9EB00DBE9EB00D11245B2F189F8001B9
:101D10001124012F11275901A01AB10AAE9E80018A
:101D2000AF9E100DBE9E100D11245901A81AB108C6
:101D3000AE9CC001AF9C900DBE9C900D1124892FCC
:101D40009927281B390B2E9FC0012F9F900D3E9F76
:101D5000900D1124E92F62307105A1F050F4611546
:101D6000710509F49DCF6130710581F0EB2F512F82
:101D700097CF6430710569F080F06630710509F421
:101D80008FCFF4CFE42F4B2F592F8ACFE42F412F41
:101D900087CFEB2F542F492F83CF4B2F5D2DE12F72
:101DA0007FCF0F93E091FE02F091FF0200E02BE75E
:101DB00040EB63E070E08EEF92E009950F9108959B
:101DC0008091620281110C94D10E0895F894E82F4D
:101DD000E295EF70F0E031A1282F2F7081E090E0C4
:101DE00001C0880F2A95EAF7982F9095932391A325
:101DF00092A1892B82A378940895CF93DF93809149
:101E000089028432A0F58091120290E001968770D9
:101E100099278093120227E030E0A901481B590B53
:101E200020E9249FF001259FF00D1124E558FE4F75
:101E30008091FB059091FC05855F93409C012057A4
:101E40003F4F21303240B0F020E032E0281B390B08
:101E50004091F3035091F403280F391FC1E0D0E003
:101E60008217930750F05093F4034093F303DF91EC
:101E7000CF91089520E930E0EBCF6491DC01AB50C5
:101E8000BC4F7C91671781F06C93BC01A5E07695FF
:101E90006795AA95E1F7DE0102C0AA0FBB1F6A95FC
:101EA000E2F7BD014A2B572B01963196D9CF1092FC
:101EB000710280913201E4EFF1E0882359F08091C2
:101EC000760287FF07C08EE1DF011D928A95E9F750
:101ED0000C94430D86E0F8CF1F93CF93DF93CDB7DB
:101EE000DEB7AA970FB6F894DEBF0FBECDBF86EF60
:101EF00092E02091F100DC012D93CD01B2E08E3F04
:101F00009B07B9F78091F702833009F471C0B8F4E8
:101F1000813009F448C0823009F4B2C08091E800F1
:101F200083FF3AC18091F6029091F7029A3008F04F
:101F300033C1E92FF0E0E455FC4C0C94CD308A30ED
:101F400009F48DC08B3009F470C0893039F7809165
:101F5000F602813219F78091FA029091FB02009704
:101F600011F00297D9F68091E800877F8093E8000E
:101F70008091E80082FF37C09091F3008091F200D9
:101F8000029729F48091F1008B7F813021F48091B8
:101F9000F1008093D1028091E8008B778093E80074
:101FA0000E94DE09BBCF8091F602813A09F0B6CFDC
:101FB0008091E800877F8093E8008091FA029091F9
:101FC000FB02892B61F460E282ED92E070E00E94F6
:101FD000900A8091E8008B778093E8009FCF60E0C3
:101FE00090E080E0F3CF8091F4028111C1CF96CFD1
:101FF0008091F602813A09F091CF8091FA02909196
:10200000FB02892B09F08ACF8091E800877F8093BB
:10201000E8008091E80080FFFCCF8091320180933E
:10202000F1008091E8008E77B9CF8091F60281327D
:1020300009F074CF8091FA029091FB02892B09F08C
:102040006DCF8091E800877F8093E8000E94DE09D1
:102050008091F802809332010E94570F5FCF8091E8
:10206000F602813209F05ACF8091E800877F809391
:10207000E8000E94DE098091F9028093D0024ECFE1
:102080008091F602813A09F049CF8091E800877F7C
:102090008093E8008091E80080FFFCCF8091D0021F
:1020A000BECF803899F0823809F076C08091FA026C
:1020B0008F70873008F070C08093E9008091EB004A
:1020C00085FB882780F91092E90006C08091F20212
:1020D0009091F302911182609091E800977F909324
:1020E000E8008093F1001092F1008091E8008E7773
:1020F000BFC1882309F4ACC1823009F04DC0809182
:10210000F8028111B0C18091FA028F702FEF280F71
:10211000263008F041C08093E9002091EB0020FFB9
:10212000A2C1933031F48091EB0080628093EB0088
:102130009AC19091EB0090619093EB0021E030E028
:1021400001C0220F8A95EAF72093EA001092EA0074
:102150008091EB008860EACF81111EC01091F802D7
:102160001F778091E3008078812B8093E30080913A
:10217000E800877F8093E8000E94DE098091E800F4
:1021800080FFFCCF8091E30080688093E30082E0D1
:10219000111183E08093F4028091E80083FF0AC06C
:1021A0008091E800877F8093E8008091EB00806257
:1021B0008093EB00AA960FB6F894DEBF0FBECDBF9A
:1021C000DF91CF911F9108958058823028F7209198
:1021D000F8023091F9022C3DE3E03E07A1F583E0DF
:1021E0008A838AE289834FB7F894DE01139620E050
:1021F0003EE051E2E32FF0E050935700E49120FFDE
:1022000003C0E295EF703F5FEF708E2F90E0EA30F1
:10221000C0F0C7968D939D932F5F243159F74FBF20
:102220008091E800877F8093E8006AE270E0CE0149
:1022300001960E94900A8091E8008B778093E800D5
:10224000ABCFC096E7CF8091FA029091FB02432F6B
:1022500055274330510509F44AC078F541305105FE
:1022600009F47AC08FEB90E0E3ECF9E042305105DD
:1022700009F092CF2091E800277F2093E800209179
:10228000FC023091FD028217930708F49C0140E0A4
:102290002115310509F065C0411163C08091E80046
:1022A00082FDC9CF8091F402882329F2853019F28A
:1022B0008091E80083FFF2CFBECF4132510509F48F
:1022C0003CC04232510509F067CF8330910508F0D8
:1022D00063CFFC01EE0FFF1FEC51FE4F0190F08128
:1022E000E02D8F519E4FDC018C9190E01AC0332776
:1022F00021303105D1F02115310561F02230310551
:1023000009F04ACFE4E9FAE0E4918E2F90E0E4E9A5
:10231000FAE007C0EAEBFAE0E4918E2F90E0EAEBF6
:10232000FAE0009709F438CFA5CFE2EAFAE0E491A9
:102330008E2F90E0E2EAFAE0F4CF8330910508F0C6
:102340002BCF880F991FFC01E651FE4F0190F081C1
:10235000E02D89E090E08ECF82E190E0E2E8FAE0C3
:1023600089CF8091F402882309F465CF853009F480
:1023700062CF8091E80083FD5ECF8091E80082FD0E
:102380008DCF8091E80080FF83CF9091F300809102
:10239000F2002115310519F08830910550F041E027
:1023A000089709F040E08091E8008E778093E8007C
:1023B0006FCF44914093F10031962150310901963D
:1023C000E8CF803809F0E8CE8091E800877F8093DD
:1023D000E8008091F5028093F10087CE8111DCCE78
:1023E0001091F802123008F0D7CE8091E800877F74
:1023F0008093E8001093F5020E94DE09112311F08A
:1024000084E005C08091E30087FDFACF81E08093EE
:10241000F40242E061EC81E00E94FD0942E261ECDD
:1024200084E00E94FD0942E261EC82E00E94FD0925
:1024300042E260EC83E00E94FD0942E361E885E04E
:102440000E94FD0942E361E886E00E94FD09A4CEF6
:102450008091F802813009F09FCE81E0933009F03D
:1024600080E08093F3021092E9008091E800877F7A
:102470008093E8000E94DE098FCE0F931F9341E006
:1024800050E060E070E08A019B0104C0000F111F62
:10249000221F331F8A95D2F7C901B8010E94BB0DD4
:1024A0001F910F910C94570FCF93DF93682F81E00A
:1024B0006A3019F06D3029F480E0DF91CF910C94EF
:1024C000E3128091FB059091FC0526E0FC01A5EF4D
:1024D000B5E001900D922A95E1F7603E08F45AC0EC
:1024E00026E0FC0111922A95E9F7C091FB05D091F5
:1024F000FC0546E050E0BE0185EF95E00E945B31AF
:102500009E01255F3340892B41F1C90145E0969535
:1025100087954A95E1F741E050E0BA0102C0660FA5
:10252000771F8A95E2F7CB016091F3037091F40372
:10253000862B972BB9016B5F7F4FE5E0769567950A
:10254000EA95E1F702C0440F551F6A95E2F7842B24
:10255000952B9093F4038093F3032A5F3F4F4091B0
:10256000F203642F70E0C9010E94A530481B463079
:1025700010F4240F311D211572E0370710F030E000
:1025800020E02B503C4F3093FC052093FB05DF915E
:10259000CF910895F6E06F9FB00111246254754FFA
:1025A00046E050E00E944531A0CFCF93DF93EC018D
:1025B000FE018491811103C0DF91CF9108950E94A3
:1025C00054122196F5CFCF93382FE091FB05F0916F
:1025D000FC05E55FF3402091F203622F70E0CF012C
:1025E0000E94A530281B822F332361F066E00E94F1
:1025F0009930C82FC15010F4CF91089580E20E9405
:102600005412F8CF9F01280F311D2115324018F0C8
:1026100080E0F0E0E0E08E0F9F2F911D8B509C4FEB
:102620009093FC058093FB05E7CFCF92DF92EF926A
:10263000FF920F931F93CF93DF936C017B0164E6AE
:1026400070E088E70E94B62FEC0197FD12C010E001
:1026500000E0F601E00FF11F849164E670E00E9453
:102660001230EC01892B29F40F5F1F4F0E151F0547
:1026700081F70E949530CE01DF91CF911F910F918C
:10268000FF90EF90DF90CF9008958091BC029091E1
:10269000BD02911103C091E089270895882369F054
:1026A00062E070E082E898E00E941513892B19F02F
:1026B0008091BC0208951092BC028091BC02EBCFC5
:1026C000CF93C091BC028091BD028823D1F00E94BB
:1026D000200C60547B428E4F9F4F6093B8027093E2
:1026E000B9028093BA029093BB02C11108C062E0A4
:1026F00070E080E898E00E941513892B29F0C091C2
:10270000BC028C2FCF91089581E08093BC02F7CF5B
:10271000CF9384E090E00E946831C82F82E290E07D
:102720000E946831982F8C2FCF9108950F931F939B
:10273000CF93DF9328E0629FE001112450E0440F23
:10274000551FC40FD51F30E2839FC0011124C80F4D
:10275000D91FCE0187960E946831082F10E0102FF4
:102760000027CE0188960E9468319801282BC90164
:10277000DF91CF911F910F910895462F843038F447
:10278000743028F4643018F4672F0C94961390E09A
:1027900080E008950E94BD138238910591F1C0F543
:1027A0008133910509F490C028F58932910509F427
:1027B00084C08A32910509F48EC0811520E5920704
:1027C00008F09EC0811540E4940708F022C18F3BB9
:1027D000910508F087C0883A910508F00FC1853A45
:1027E000910508F002C18430910500F58130910512
:1027F000E9F03CC08533910509F458C0893391054F
:10280000E1F620917602237089F080EE90E0089541
:10281000833E910571F158F4803E9105E9F0823EC6
:10282000910559F62091760222FD1EC00895863E3C
:10283000910551F1873E910571F1843E910509F0B2
:10284000BCCF2091770221FFF1CF8091760284FDE9
:102850000DC087EE90E008952091760220FD05C11D
:102860003091770230FFE2CF24FF02C190E080E098
:10287000DDCF2091760222FDFEC03091770230FD3F
:10288000C4CF24FFD3CFF2CF2091760223FFCECF47
:1028900024FDECCFDECF2091760223FDEFC03091F6
:1028A000770231FFEECF84EE90E00895209176021A
:1028B00025FFBCCF89E290E008952091760225FFA4
:1028C000B5CF85E390E008952091760226FFAECF44
:1028D0008AE290E008952091760226FFA7CF81E357
:1028E00090E00895803E910508F2883E910508F435
:1028F0009DCF9C013A9521153F4108F497CFB6CF63
:10290000811523E5920740F5811542E5940708F00B
:1029100088C0811521E5920708F07EC09C0164E023
:10292000369527956A95E1F7922F9370282F269573
:102930002695237040E2249F90011124392B482FC3
:10294000437081E090E002C0880F991F4A95E2F73A
:10295000822B932B9C680895811549E59407F0F428
:10296000811528E5920708F06DC0811544E59407AC
:1029700008F07CCFAC014370552721E030E002C065
:10298000220F331F4A95E2F78695869540E2849F91
:10299000C0011124822B932B9A68089581152AE592
:1029A000920708F063CF282F2F704091760242FFE4
:1029B00005C083FF4CC0282F277024603091770218
:1029C00030FF07C0322F3871383009F046C0277FFA
:1029D000216044FD277E34E0969587953A95E1F78E
:1029E0008F70982F822F90690895855AE82FF0E014
:1029F000EF57FE4F808190E090640895885AE82F49
:102A0000F0E0EE0FFF1FEC57FE4F80819181946440
:102A100008959F70906A0895982F8827816F906A13
:102A20000895AC014370552721E030E002C0220F29
:102A3000331F4A95E2F78695869540E2849FC00150
:102A4000112486CF982F8827806F906A089582FF7F
:102A5000B5CF282F2B702860B1CF322F3171313094
:102A600009F0B7CF2E7F2860B4CF89E390E00895B6
:102A700083EE90E0089582EE90E0089586EE90E077
:102A80000895BF92CF92DF92EF92FF920F931F9320
:102A9000CF93DF938C01C090EE03D090EF03E090D2
:102AA000F003F090F1038091720290917302A09173
:102AB0007402B0917502C82AD92AEA2AFB2ACFE10A
:102AC000D0E0BC2ED701C6010C2E04C0B695A79548
:102AD000979587950A94D2F780FD0EC0219788F7C5
:102AE000B12C8B2DDF91CF911F910F91FF90EF9023
:102AF000DF90CF90BF900895B8018C2F0E94CA1329
:102B0000019761F3EECF6F927F928F929F92AF9277
:102B1000BF92CF92DF92EF92FF920F931F93CF93CA
:102B2000DF9380E0C82E88E0D82E0FE410E0E801A3
:102B3000A09736011CC0F50185909490692DC701BE
:102B40000E947C31682DC70101960E947C3182E091
:102B5000A80EB11C82E0E80EF11CCE15DF0559F776
:102B600088E0680E711C28960C171D0731F07E0155
:102B700088E0E81AF1085301DECF005E1F4F80E2C3
:102B8000C80ED11C0F3C110591F6DF91CF911F911A
:102B90000F91FF90EF90DF90CF90BF90AF909F90FC
:102BA0008F907F906F900895CF93DF93C7EAD0E026
:102BB00060E0CE010E947C312196C11584E0D807E7
:102BC000B9F7DF91CF910895CF93DF9300D00F92A3
:102BD000CDB7DEB79091F402943011F589837B83F1
:102BE0006A839093E9008FEF9091E800815095FD02
:102BF00006C095ED9A95F1F700008111F5CF80910F
:102C0000E80085FF0DC050E040E063E070E0CE01D9
:102C100001960E948A098091E8008E778093E800EF
:102C20000F900F900F90DF91CF910895BC0184E039
:102C30000C94E415BC0183E00C94E415CF93DF936E
:102C4000EC01809132018823B1F18091760287FFF7
:102C500032C060E284E08093E9008FEF9091E80059
:102C6000815095FD06C095ED9A95F1F70000811110
:102C7000F5CF8091E80085FF1BC08091320170E0A4
:102C800050E040E0811104C050E040E068E070E0B6
:102C9000CE010E948A098091E8008E778093E80037
:102CA00080E2FE01A2EDB2E001900D928A95E1F77B
:102CB000DF91CF91089568E081E0CDCF8091CB0284
:102CC00080FD0AC0E9E1F2E011821082128233969F
:102CD00052E0E133F507C1F7849A31B33F7E21B367
:102CE00020614FB7F89489E192E0FC015191CF0146
:102CF00068E021BB000000C057FF31BB550F00004A
:102D000000C000C000C031BB00C06A9591F7F2E07E
:102D100081339F0751F74FBF8FE594E00197F1F79B
:102D200000C000000895EF92FF921F93CF93DF93AE
:102D3000EC0189E1E82E82E0F82E10E08C81970109
:102D40004091CE026091CD02810F0E943B0E115E38
:102D500083E0E80EF11C183F89F70E945E169A8105
:102D60008C8190FF08C08F5F8C83DF91CF911F9182
:102D7000FF90EF9008958150F7CFCF92DF92EF92BE
:102D8000FF920F931F93CF93DF93FC018281DD2489
:102D9000DA9480FD02C0DD24D394C9E1D2E010E0D2
:102DA00000E0198218821A8294E0E92EF12CC12CDD
:102DB000809116028C0D8930CCF18770082E000CA2
:102DC000990B8017910791F48091CE028E9DA001FE
:102DD0008F9D500D112455954795559547959E010A
:102DE0006091CD028091CC020E943B0ECD0CF1E0AF
:102DF000EF1AF108E9F60F5F1F4F2396083011050F
:102E000081F60E945E168091160291E0D91214C0DC
:102E1000811110C087E080931602DF91CF911F913E
:102E20000F91FF90EF90DF90CF90089587FFC6CF6E
:102E3000885FC4CF8150EFCF90E0019687709927CB
:102E4000EACF0F931F93CF93DF93C9E1D2E0FE0146
:102E5000118210821282339682E0E133F807C1F7C3
:102E600010E000E080911702082E000C990B081763
:102E700019078CF180911001082E000C990B801716
:102E800091074CF19E014091CE026091CD0280915C
:102E9000CC020E943B0E0F5F1F4F23960830110596
:102EA00009F70E945E1680910F0190911702980F0A
:102EB0009093170220911001280F209310011216F1
:102EC00014F497301CF0819580930F01DF91CF911E
:102ED0001F910F910895198218821A82DCCF8F9268
:102EE0009F92AF92BF92CF92DF92EF92FF920F9399
:102EF0001F93CF93DF93EC014C81042F10E09801D6
:102F0000D8010E9404329B01AC010E94CF314B01D9
:102F10005C01E0E2F0E0E01BF10BA5E5B0E0AC0104
:102F20009B010E94CF316B017C019F01DF010E9458
:102F3000DA309B01AC010E94DA319B01AC01280D13
:102F4000391D4A1D5B1DC701B6010E94E231F22EF8
:102F5000822F90E039E23F15D8F143E0249F9001A1
:102F6000112435952795122F109599E1C92E92E0DD
:102F7000D92E00E085E5E82EEF188E2D01FD8F2D6E
:102F80009601412F6091CD020E943B0E0F5F53E0EE
:102F9000C50ED11C083089F70E945E169C8181E025
:102FA000992319F0903219F48FEF809311018091D9
:102FB0001101890F8C83DF91CF911F910F91FF90A9
:102FC000EF90DF90CF90BF90AF909F908F9008953B
:102FD00025E530E0A901481B590BCA019A01220FCF
:102FE000331F280F391F37FFBCCF2F5F3F4FB9CF9B
:102FF000EF92FF920F931F93CF93DF938C01C9E160
:10300000D2E0F12CE12CF80194816091CD02809105
:10301000CC02F4E0EF16F104FCF49923F9F09E01E0
:103020004091CE020E943B0E2FEFE21AF20A239645
:1030300088E0E816F10439F70E945E16F8018481F1
:1030400090E00196817099278483DF91CF911F9141
:103050000F91FF90EF900895992309F39E0140E0AE
:10306000E1CF9091CB0290FF0CC0E9E1F2E08183C7
:1030700060834283339692E0E133F907C1F70C9401
:103080005E1608950F931F93CF93DF9300D00F9296
:10309000CDB7DEB78C018091180281110AC09E0164
:1030A0002F5F3F4F4FEF6FEF0E943B0E8A8180935F
:1030B0001802F8016481613069F08091180240E0E3
:1030C000662361F040E0623011F44091180280E024
:1030D00060E004C06091180240E080E00E94311876
:1030E000F801848190E0019663E070E00E94B930BD
:1030F00084830F900F900F90DF91CF911F910F91CC
:103100000895CF93DF9300D00F92CDB7DEB79091A3
:10311000CB0290FF0AC09E012F5F3F4F0E943B0EE3
:103120004B8169818A810E9431180F900F900F9016
:10313000DF91CF910895CF93DF93EC01EC81F0E024
:10314000E050F94F4491EBECF2E0628181810E9402
:1031500081188C818F5F8C83DF91CF910895CF93FD
:10316000DF93EC01EBECF2E0438162818C810E9401
:1031700081188C818F5F8C83DF91CF9108954F925E
:103180005F926F927F928F929F92AF92BF92CF92F7
:10319000DF92EF92FF920F931F93CF93DF93FC0187
:1031A0006280448081E08483E0E0F7E07490EFE7A0
:1031B000F7E0E491C1E3D2E039E1E32E32E0F32E0F
:1031C00049E5C42E42E0D42E52E0A52EBB24B39490
:1031D00088248A94912C55245A94E7190E2F10E0D4
:1031E00082E0861530F08091CC0288838091CD02F8
:1031F0008983411021C01B821A8297014A8169810B
:1032000088810E943B0E259683E0E80EF11CCC16C7
:10321000DD0631F7DF91CF911F910F91FF90EF9075
:10322000DF90CF90BF90AF909F908F907F906F90E6
:103230005F904F900C945E168B818823E9F081504B
:103240008B83859DC00111246C8170E00E94A530A4
:10325000FB01FF27E050F94F8491E82FE719E59D26
:10326000C0011124B8010E94A5308091CE02689F50
:10327000B00111247A83C1CF0E9435312091CE0252
:10328000269521582A9DA0012B9D500D1124452FD4
:103290005527841795070CF0B0CF82E0861588F487
:1032A0000E943531B4010E94B93088830E943531C3
:1032B0002091CD022695622F70E00E94B930280F30
:1032C00029831A828091CE02893C20F088EC8C837D
:1032D0008B8393CF8431D8F784E1F9CF6AEE7EEF08
:1032E00090E080E00E949A3160E082E090E00E94ED
:1032F0007C3160E083E090E00E947C3110927202A9
:1033000010927302109274021092750260E084E0D1
:1033100090E00E947C3160E082E290E00E947C318B
:1033200060E085E090E00E947C3160E086E090E023
:103330000E947C316FEF87E090E00E947C3140E09A
:1033400050E0BA0188E090E00E948E3160E08DE0AC
:1033500090E00E947C3140E050E0BA0188E190E0CA
:103360000E948E3160E087E190E00E947C3140E075
:1033700050E0BA018CE190E00E948E3170E060E094
:1033800080E290E00E949A3140E050E0BA0188E18A
:1033900090E00E948E3140E050E0BA018FE090E072
:1033A0000E948E3140E050E0BA0183E190E00C943D
:1033B0008E31EBEFE80FEF3308F066C0F0E0EA542F
:1033C000FC4C0C94CD300E946E1981E008958091E0
:1033D000BF02807F8093BF0281E0809365020895E1
:1033E0000E94570F0E94D10E2FEF84E39CE02150E2
:1033F00080409040E1F700C000000E94000C9091D6
:10340000BF02892F8E7F90FF81608093BF0280FD75
:10341000DCCF817F8093BF02D8CF9091BF02892FEC
:103420008D7F91FF82608093BF0281FFCECF80911C
:10343000BF028160EFCF9091BF02892F8B7F92FFF7
:1034400084608093BF0282FDF2CFBFCF9091BF0214
:10345000892F877F93FF88608093BF0283FDE7CF2A
:10346000B4CF0E94570F90917602892F97FB87F96E
:10347000805880937602A9CF80E00E943D12A5CFAC
:103480008953FBCF8D51F9CF80E00895CF93C82F9A
:10349000882309F481C08238C1F40E94C50D81FDE2
:1034A0007BC089E30E947B0C0E942C0C2FEF81EEE5
:1034B00094E0215080409040E1F700C0000089E393
:1034C0000E94500CCF910C942C0C8338A1F40E94D4
:1034D000C50D80FD61C083E50E947B0C0E942C0C11
:1034E0002FEF81EE94E0215080409040E1F700C042
:1034F000000083E5E5CF8438A1F40E94C50D82FD6C
:103500004BC087E40E947B0C0E942C0C2FEF81EEB5
:1035100094E0215080409040E1F700C0000087E433
:10352000CFCF8CEF8C0F813A08F05BC080916502A1
:10353000882349F1813091F1109265028091320126
:10354000882309F440C08091760287FF3CC0EC2FAD
:10355000E695E695E695F0E0EE50FE4F828190E02C
:103560004C2F477021E030E002C0220F331F4A95F4
:10357000E2F782239323892B81F18C2F0E94500C38
:103580000E942C0C2AC0809171028232B9F68C2FD5
:103590000E94D919882391F2CF91089580917102E8
:1035A0008232A9F3C43161F028F4CB3039F080E0E5
:1035B0008170F0CFC93221F0C833C9F781E0F8CF6C
:1035C00010926502F4CFE4EFF1E08AEF91E02191EF
:1035D000C21799F28E179F07D1F78C2F0E947B0C90
:1035E00071CF80E28C0F883068F4C77021E030E042
:1035F00001C0220FCA95EAF780917102822B809355
:10360000710260CFEBE5EC0FE33040F4F0E0EF57F0
:10361000FE4F808190E0CF910C942D0DC85AC73198
:1036200008F0BACFEC2FF0E0EE0FFF1FEC57FE4F83
:1036300080819181CF910C94170D1F93CF93DF93CD
:10364000182FD0E0C0E0893311F4C0E5D0E0812F1D
:103650000E94461A209731F4812FDF91CF911F915C
:103660000C94D10D8FE99FE00197F1F700C00000A5
:103670002197F0CFCF92DF92EF92FF926B017C0106
:103680000E942C0EB701A60188E090E0FF90EF9019
:10369000DF90CF900C948E317F928F929F92AF9259
:1036A000BF92CF92DF92EF92FF920F931F93CF932F
:1036B000DF9300D00F92CDB7DEB7182FD62E042F90
:1036C000C22E9091CB0290FF29C0E92FE695AE2F34
:1036D000B0E0AA5ABE4F8C918093C4029E7F923074
:1036E00071F59E012F5F3F4F812F0E943B0E4B8152
:1036F00069818A810E9431181093CC02D092CD0248
:103700000093CE02CC2051F06091CB027091CC029C
:103710008091CD029091CE020E943A1B0F900F90A3
:103720000F90DF91CF911F910F91FF90EF90DF905D
:10373000CF90BF90AF909F908F907F9008958230F0
:1037400019F40091CE02D8CF863019F41091CC0232
:10375000D3CF8930D9F3893179F6E9512E2F2170F1
:10376000722EE695F0E0E550F94F859094909924FB
:1037700039E1E32E32E0F32EB12CA12CC50123E078
:10378000969587952A95E1F7711013C0810F9701DF
:10379000402F6D2D0E943B0EA80CB91C83E0E80E53
:1037A000F11C21E3E21622E0F20641F70E945E16C8
:1037B000A3CF212F281B822FEACFEBECF2E043812D
:1037C00028E0421B08F440E021E0628181810C94F2
:1037D0004C1BEBECF2E0438128E0420F08F44FEF82
:1037E00021E0628181810C944C1BEBECF2E0628160
:1037F00028E0621B08F460E021E0438181810C94A1
:103800004C1BEBECF2E0628128E0620F08F46FEFF2
:1038100021E0438181810C944C1BEBECF2E081812F
:1038200021E04381628188500C944C1BEBECF2E068
:10383000818121E043816281885F0C944C1B8091DF
:10384000CF02882319F081508093CF026091CB0280
:103850007091CC028091CD029091CE020C943A1BD3
:103860008091CF02833018F48F5F8093CF026091F4
:10387000CB027091CC028091CD029091CE020C943B
:103880003A1BEBECF2E083E0808311828FEF8283BE
:103890008383148260817181828193810C943A1BAD
:1038A0001F920F920FB60F9211242F933F934F93B5
:1038B0005F936F937F938F939F93AF93BF93CF93B8
:1038C000DF93EF93FF93D091E900DF708091EC00DC
:1038D000C82FC17080FDC0E81092E9008091F0000F
:1038E000877F8093F00078940E946C0F1092E9001B
:1038F0008091F00088608093F000CD2BCF70C09352
:10390000E900FF91EF91DF91CF91BF91AF919F912E
:103910008F917F916F915F914F913F912F910F9078
:103920000FBE0F901F90189578941F921FB61F928C
:1039300011248F939F93AF93BF9380918A029091AC
:103940008B02A0918C02B0918D020196A11DB11D38
:1039500080938A0290938B02A0938C02B0938D0285
:10396000BF91AF919F918F911F901FBE1F9018958F
:103970002FB7F89480918A0290918B02A0918C02CB
:10398000B0918D022FBF08950F931F93CF93DF93B4
:10399000C62FD42F022FFC0182818823A1F06093CF
:1039A000ED030E94B81C9093EC038093EB03C77067
:1039B00081E001C0880FCA95EAF7DF91CF911F918E
:1039C0000F910C940D0D8091ED03681335C080911B
:1039D000EB039091EC030E94110C883C910560F57B
:1039E00010E21D0FCD17B9F080E28C0F883040F443
:1039F000C77081E001C0880FCA95EAF70E94020DE6
:103A0000183048F481E09D2F977001C0880F9A9577
:103A1000EAF70E940D0D802F0E941D1B183098F4AC
:103A2000D77081E001C0880FDA95EAF7DF91CF9176
:103A30001F910F910C94020DC77081E001C0880F97
:103A4000CA95EAF7F3CFDF91CF911F910F910895B7
:103A50006091CB02669570E04BE050E084E091E02D
:103A60000E944E31892B19F481E08093C5020E9497
:103A7000B81C90937F0280937E0208959091CB02B0
:103A800090FF36C09170811129C092609093CB0253
:103A9000662351F06091CB027091CC028091CD02EF
:103AA0009091CE020E943A1B6091CB02669570E025
:103AB0004BE050E084E091E00E944E31892BA9F068
:103AC0001092C50281E08093810220E04091CE02F5
:103AD0006091CD028091CC020C944C1B8B3210F083
:103AE0009465D4CF880F982BD1CF0E94281DEACFA0
:103AF00008951F920F920FB60F9211242F933F93A8
:103B00004F935F936F937F938F939F93AF93BF93E5
:103B1000EF93FF938091E10082FF09C08091E20062
:103B200082FF05C08091E1008B7F8093E10080914E
:103B3000DA0080FF24C08091D80080FF20C08091EF
:103B4000DA008E7F8093DA008091D90080FFA1C0D7
:103B500080E189BD82E189BD09B400FEFDCF81E02D
:103B60008093F4028091CA02811109C00E943A092F
:103B70000E942F0A8091E20084608093E20080918D
:103B8000E10080FF17C08091E20080FF13C08091A8
:103B9000E2008E7F8093E2008091E200806180935A
:103BA000E2008091D80080628093D80019BC85E043
:103BB0008093F4028091E10084FF2FC08091E200A5
:103BC00084FF2BC080E189BD82E189BD89B5982F32
:103BD000917080FFFBCF8091D8008F7D8093D800BB
:103BE0008091E1008F7E8093E1008091E2008F7EE2
:103BF0008093E2008091E20081608093E2008091F6
:103C0000F502882309F44BC084E08093F4020E94FB
:103C1000570F0E94C50D0E94281D8091E10083FF6F
:103C200027C08091E20083FF23C08091E100877F5D
:103C30008093E10082E08093F4021092F50280917B
:103C4000E1008E7F8093E1008091E2008E7F80937F
:103C5000E2008091E20080618093E20042E060E057
:103C600080E00E94FD098091F00088608093F00060
:103C7000FF91EF91BF91AF919F918F917F916F9144
:103C80005F914F913F912F910F900FBE0F901F901A
:103C9000189519BC1092F4021092CA0270CF80914C
:103CA000E30087FD93E09093F402B1CF8091CB02C3
:103CB0008695815009F48AE261E00C943E1D809162
:103CC000CB0286958F5F8B3208F081E061E00C9427
:103CD0003E1D9091CB0290FF07C09695981720F05B
:103CE000961710F40C945F1E61E00C943E1D5F92D9
:103CF0006F927F928F929F92AF92BF92CF92DF92FC
:103D0000EF92FF920F931F93CF93DF93CDB7DEB760
:103D1000A3970FB6F894DEBF0FBECDBF6C01DC01D8
:103D200013968D919C911497892B39F08C91119653
:103D30009C9189238F3F09F0DEC6A3960FB6F894B5
:103D4000DEBF0FBECDBFDF91CF911F910F91FF90CE
:103D5000EF90DF90CF90BF90AF909F908F907F902B
:103D60006F905F9008950E944115182F682F8981E8
:103D70009A810E94D60C69817A81812F0E94BD139D
:103D80007C01F6018281882309F45DC0C701905649
:103D90008115F0E29F0750F0905E811520E19207B7
:103DA00028F0915C81159F4108F09EC0C7019927BA
:103DB0009C01245031092432310520F08B970E9755
:103DC00008F041C080915D0290915E020097A9F1D8
:103DD0000E94110C109189029C0150E040E060E6C5
:103DE0007AEE80E090E00E94B031CA01B90125E08E
:103DF00030E040E050E00E94B031CA01B901611BDF
:103E00007109810991090E94B13227EA39E747E433
:103E10005DE30E943D334B015C01612F70E090E057
:103E200080E00E94B1329B01AC01C501B4010E9447
:103E300014320E948032609389020E94B81C9093D1
:103E40005E0280935D02D60112968C91882309F45C
:103E500045C6970122513F452031310508F025C65E
:103E60008FEF93E00E9468311EEE1E0D67EAA62ECA
:103E7000B12C811162CF111141C01C821B826624BA
:103E800063945AE0552E85010F5F1F4FC5010E94B4
:103E9000683189831A82882309F44FCF9FEF980FE6
:103EA0009330D8F58A836982F2E0AF0EB11CC80165
:103EB0000E9468318B83882309F43FCF8E010F5F06
:103EC0001F4FD8012C912223F1F2213009F05FC05D
:103ED00011969C91119712968C91913001F50E5F7D
:103EE0001F4F0E941D1B21C08FEFE816F10421F027
:103EF00018F090E080E05CCFC7015ACFA114B4E085
:103F0000BB0609F41ACFC5010E946831811101C0B6
:103F10001150EFEFAE1ABE0AAECF5801CFCF92309C
:103F200039F40E5F1F4F0E94461A0F5F1F4FC9CF13
:103F3000933029F40E5F1F4F0E94D10DF6CF9430BD
:103F400019F00F5F1F4FF1CF0E5F1F4F30E020E0E1
:103F5000B8016F5F7F4FF80141818053990B8A3020
:103F6000910550F02150310900F38FE99FE001974E
:103F7000F1F700C00000F6CF529EF001539EF00D05
:103F800011249C012E0F3F1F842F8B01E1CFE22FC4
:103F9000F0E0EC54F74F7490822F869586958695C5
:103FA00090E0FC01EC55F74FE4902770F12C022EC5
:103FB00002C0F594E7940A94E2F7A1E0EA22FF2414
:103FC000FC01EC56F74FC490D12C022E02C0D594C0
:103FD000C7940A94E2F7B1E0CB22DD24FC01EC5750
:103FE000F74F8490912C02C0959487942A95E2F71C
:103FF000E1E08E229924E114F10419F081EE0E948F
:10400000461AC114D10419F086EE0E94461A872D73
:104010000E941D1BCD2819F086EE0E94D10DEF28BD
:1040200019F081EE0E94D10D892809F47ECF8CE22F
:1040300058CF81E00E949A0D03C081E00E94770D65
:10404000A3960FB6F894DEBF0FBECDBFDF91CF9120
:104050001F910F91FF90EF90DF90CF90BF90AF90A6
:104060009F908F907F906F905F900C945B0D82E09B
:10407000E1CF27E2E2162CE5F20641F4882309F4A9
:1040800046C00E94E00E1092630257CE38E2E3165B
:104090003CE5F30639F4909163028823C1F1911154
:1040A000F0CF18C59CE2E9169CE5F90631F48823A7
:1040B00071F181E08093620240CEADE2EA16ACE598
:1040C000FA0639F4882319F10E94D10E1092620287
:1040D00034CEBEE2EB16BCE5FB0639F48823B9F01A
:1040E000809162028111F0CFE4CFE9E2EE16ECE5B7
:1040F000FE0669F4882359F00E94E00E80911201B7
:1041000090E00196837099278093120116CE9091CA
:1041100063029111B2C0909162029111AEC0F3EFAF
:10412000EF16FCE5FF0609F46DC160F538EDE31606
:104130003CE5F30609F462C189EDE8168CE5F80662
:1041400009F46CC197EDE9169CE5F90659F526E2EC
:1041500041EE61EEC601A3960FB6F894DEBF0FBE26
:10416000CDBFDF91CF911F910F91FF90EF90DF9026
:10417000CF90BF90AF909F908F907F906F905F9007
:104180000C94C41CA5EFEA16ACE5FA0609F442C18A
:1041900008F43CC127E245EE66EEE6EFEE16ECE5EC
:1041A000FE06C1F2D60112969C91992309F4B5C47A
:1041B0001092ED03B2E0EB16BCE5FB0608F423C257
:1041C000E6E1EE16ECE5FE0638F097012A5F3C4585
:1041D0002930310508F017C20E94881390937702A6
:1041E00080937602F0E1EF16FCE5FF0609F4DAC1F0
:1041F00008F05CC138E0E3163CE5F30609F4C4C1FD
:1042000008F025C194E0E9169CE5F90609F4B4C16B
:1042100008F007C1B2E0EB16BCE5FB0609F4A6C145
:10422000809176028260E3E0EE16ECE5FE0609F48A
:10423000A0C1609176021091770284E090E00E9424
:104240007C31612F82E290E00E947C31A3960FB610
:10425000F894DEBF0FBECDBFDF91CF911F910F91BC
:10426000FF90EF90DF90CF90BF90AF909F908F9096
:104270007F906F905F900C94570F882309F441C092
:10428000F0EEEF16F10451F40E94E00E81E080930D
:1042900061021092600210925F024FCD22EEE21690
:1042A000F10461F40E94E00E80916102882319F00C
:1042B00081E080936002109261023FCD33EEE316FD
:1042C000F10439F4909160029923D9F00E94E00E34
:1042D000F2CF92E5E916F10451F480911301909127
:1042E00014010A97909314018093130126CDA1E540
:1042F000EA16F10431F480911301909114010A96A9
:10430000F1CF9091120191110DC0F601918144E01D
:1043100050E0491B51092081205FFCE04F9F200D98
:10432000112411C0913089F5D60111969C911197F5
:1043300044E050E0491B5109242F220F220F240F83
:104340009C919D5C290F90916202882309F447C0DB
:10435000992361F02F77E091FE02F091FF020FE7C1
:1043600040E963E070E08EEF92E009958091610290
:10437000882329F080915F028F5F80935F02EFEFC7
:10438000EE16F10408F0CBCED8CC923051F4F60101
:10439000918144E050E0491B510920812D5CF7E0F8
:1043A000BDCF2CE0933079F693E2E3E3F1E0DE0158
:1043B000119601900D929A95E1F7D601EC91EC0FD0
:1043C000FD2FF11D11969C9144E050E0491B5109CD
:1043D0002085BCE04B9F200D1124275FB4CF99238B
:1043E00071F22F77E091FE02F091FF0200E040E8C9
:1043F00063E070E08EEF92E00995C1CF27E245EED1
:1044000065EEA8CE26E241EE60EEA4CE27E245EEB0
:1044100064EEA0CE26E241EE62EE9CCE28E241E0C0
:10442000EFCF809176028061F6E0EF16FCE5FF06A3
:1044300009F49FC080917602886027E0E2162CE59F
:10444000F20608F496C080917602806292C0809154
:1044500076028D7F3CE0E3163CE5F30609F489C063
:1044600078F4809176028C609AE0E9169CE5F90672
:1044700009F47FC008F48CC0809176028E7F79C0E9
:1044800080917602877FBEE0EB16BCE5FB0609F45F
:1044900070C0809176028B7FEFE0EE16ECE5FE06B1
:1044A00008F467C0809176028F7E63C0FBEFEF1641
:1044B000FCE5FF0609F464C068F533E1E3163CE56A
:1044C000F30609F477C090F491E1E9169CE5F9064A
:1044D00009F46CC0A2E1EA16ACE5FA0609F0A9CE2F
:1044E0000E94570F809176028F7743C0B5E1EB169B
:1044F000BCE5FB0609F466C008F47AC08091770237
:104500008160FAEFEF16FCE5FF0609F092CE80938A
:1045100077028FCE2FEFE2162CE5F20609F44EC09B
:1045200088F48DEFE8168CE5F806C1F180917702EA
:104530008E7F9EEFE9169CE5F90648F3809177029D
:104540008360E5CFA1E0EA16ADE5FA0609F459C0AB
:1045500008F444C060E0E2E0EE16EDE5FE0609F086
:1045600068CE8EE090E00E947C3163CE809176022E
:104570008160809376025DCE809176028460F9CF6F
:10458000809177028260C3CF809176028064F1CF00
:104590000E94570F809176028068EBCF809177025E
:1045A0008D7FB5CF809176028F7DE3CF80917602AB
:1045B0008F7BDFCF80917602837FDBCF8091770284
:1045C0008C7FA5CF8091760282FB992790F921E01C
:1045D000922790FB82F990FB83F9CBCF80917702F1
:1045E000982F909591708E7F892B90FB81F98FCFBA
:1045F0000E94570F90917602892F97FB87F9805878
:10460000B8CF61E0AECF80917102F6E1EF16FCE524
:10461000FF0609F08FC28A7A91E009F490E0909346
:10462000640281111AC089E20E947B0CA3960FB626
:10463000F894DEBF0FBECDBFDF91CF911F910F91D8
:10464000FF90EF90DF90CF90BF90AF909F908F90B2
:104650007F906F905F900C942C0C85E3E5CF85E301
:1046600066C28091CB0280FF2FC08E7F8093CB02E9
:104670006091CB027091CC028091CD029091CE02DC
:104680000E943A1B1092C5022FEF30E782E02150C2
:1046900030408040E1F700C00000A3960FB6F894C8
:1046A000DEBF0FBECDBFDF91CF911F910F91FF9065
:1046B000EF90DF90CF90BF90AF909F908F907F90C2
:1046C0006F905F900C945E1681608093CB0261E0E6
:1046D0008695A3960FB6F894DEBF0FBECDBFDF91CF
:1046E000CF911F910F91FF90EF90DF90CF90BF90EF
:1046F000AF909F908F907F906F905F900C943E1D35
:1047000046E55EE16FE57EE1A3960FB6F894DEBF65
:104710000FBECDBFDF91CF911F910F91FF90EF9012
:10472000DF90CF90BF90AF909F908F907F906F90D1
:104730005F900C94270E4FE55EE166E57EE1E4CFE5
:1047400046E15CE16DE07CE1DFCF45EF5BE161E0FC
:104750007CE1DACF4DED5BE169EE7BE1D5CF49EE4F
:104760005BE16DED7BE1D0CF40E35CE16FE17CE1AB
:10477000CBCF61E081E0ADCF65E082E0A3960FB6DC
:10478000F894DEBF0FBECDBFDF91CF911F910F9187
:10479000FF90EF90DF90CF90BF90AF909F908F9061
:1047A0007F906F905F900C94691E68E086E0E6CF82
:1047B00064E18FE0E3CF67E185E1E0CF62E289E188
:1047C000DDCF61E083E285CF0E94570F0E94D10EBA
:1047D000EFEFF4E32CE0E150F0402040E1F700C0BF
:1047E00000000E94000CA3960FB6F894DEBF0FBE27
:1047F000CDBFDF91CF911F910F91FF90EF90DF9090
:10480000CF90BF90AF909F908F907F906F905F9070
:104810000C946E19C8010E94AF0CF82EC3C1183059
:1048200009F468C0193009F0D0C19F70F92E8823AF
:1048300009F434C1892F0E949A0D802F0E940D0D1A
:10484000C4C1F92FFF70FF2E907F19F0F29440EF52
:10485000F4228823C9F0FF2069F080E2800F8830BD
:1048600010F001110BC080917102F82AF0927102D0
:104870000E942C0C802F0E94461AA7C180917D02B5
:10488000F82AF0927D02F4CF802F0E94D10DFF20F4
:1048900009F49BC1F094005E083010F0E11008C0EC
:1048A00080917102F822F09271020E942C0C8DC14D
:1048B00080917D02F822F0927D02F7CF292F269574
:1048C0002695237051F0213009F07FC1882379F0BB
:1048D000802F93700E94170D78C1882329F0802FB4
:1048E00093700E942D0D71C190E080E0FACF90E0AE
:1048F00080E0F0CF292F237009F065C0811165C1D8
:10490000802F829586958770880F880F402F4F7073
:1049100050E070E060E0082E04C0440F551F661F91
:10492000771F0A94D2F7C12CD12C760104FF10C056
:104930003FE0C32ED12CE12CF12C04C0CC0CDD1CAB
:10494000EE1CFF1C8A95D2F7C094D094E094F094AA
:10495000969596959370923019F1D8F480907202E2
:1049600090907302A0907402B0907502913069F03B
:104970004C295D296E297F29CB01BA016821792153
:104980008A219B210E94BB0D20C1482959296A29EF
:104990007B29CB01BA016C297D298E299F29F2CF71
:1049A0004C295D296E297F29C0907202D090730234
:1049B000E0907402F0907502CB01BA016C257D2560
:1049C0008E259F25DFCF2695882311F0292F217072
:1049D000222309F4FAC0802F829586958770880F6C
:1049E000880F402F4F7050E070E060E0082E04C048
:1049F000440F551F661F771F0A94D2F7C12CD12C84
:104A0000760104FF10C02FE0C22ED12CE12CF12C36
:104A100004C0CC0CDD1CEE1CFF1C8A95D2F7C094A0
:104A2000D094E094F094969596959370923019F105
:104A3000D8F48090EE039090EF03A090F003B09034
:104A4000F103913069F04C295D296E297F29CB0152
:104A5000BA01682179218A219B210E94510DB5C09C
:104A6000482959296A297B29CB01BA016C297D295A
:104A70008E299F29F2CF4C295D296E297F29C0906C
:104A8000EE03D090EF03E090F003F090F103CB0140
:104A9000BA016C257D258E259F25DFCF802F0E94B2
:104AA000020D8F2D0E94770D90C030E1E3163FE597
:104AB000F30609F4BECA91E1E9169FE5F90609F487
:104AC000D6CAF6E2EF16FCE5FF0609F0D2CA882343
:104AD00009F41DCB81E0809363022FC9A0E1EA169F
:104AE000AFE5FA0609F4A9CAB1E1EB16BFE5FB068A
:104AF00041F782E0A3CA85E0F601DE01119601903C
:104B00000D928A95E1F7F601228189819A8121111E
:104B10002AC90E94AF0C182F2EC9F6E1EF16FCE54A
:104B2000FF0691F580916402811199CD89E20E947E
:104B3000500C7CCD82722CECE2162CE5F20609F4C6
:104B400013CE08F09AC0A6ECEA16ACE5FA0609F412
:104B5000F7CD08F069C0E3ECEE16ECE5FE0609F4CB
:104B6000CFCD08F050C022ECE2162CE5F20609F495
:104B700078CDE114ACE5FA0609F426CEBEEDEB16CD
:104B8000BCE5FB0609F42FCED6010D911C919923AB
:104B900009F440CEC8010E944115F82E682FC801C3
:104BA0000E94D60CB8018F2D0E94CA13082FE82E40
:104BB000F6018281192F12951F70143009F47ECEF0
:104BC00008F02DCE123008F43CCE212F2850330BA4
:104BD0002230310508F0B1C8A3960FB6F894DEBFB5
:104BE0000FBECDBFDF91CF911F910F91FF90EF903E
:104BF000DF90CF90BF90AF909F908F907F906F90FD
:104C00005F900C94C50D34ECE3163CE5F30609F413
:104C100092CD4DE05CE166E17CE1A5ECEA16ACE505
:104C2000FA0609F471CDA5CFB9ECEB16BCE5FB068D
:104C300009F490CD88F4F7ECEF16FCE5FF0609F4D3
:104C400084CD41E05CE165EF7BE128ECE2162CE5E8
:104C5000F20609F459CD8DCF3AECE3163CE5F306A4
:104C600009F47DCD4FE15CE160E37CE1ABECEA1659
:104C7000ACE5FA0609F448CD7CCFB1EDEB16BCE506
:104C8000FB0609F495CDB8F4FEECEF16FCE5FF0643
:104C900009F472CD08F46DCD3FECE3163CE5F30664
:104CA00009F483CD80EDE8168CE5F80609F061CFB4
:104CB0006EE089E063CDA4EDEA16ACE5FA0609F4EE
:104CC0007DCD78F4E2EDEE16ECE5FE0609F473CD49
:104CD00061E088E1F3EDEF16FCE5FF0609F4F9CC9D
:104CE00048CF25EDE2162CE5F20609F46ACD6AE21A
:104CF00085E23DE5E316F30609F440CD3ACF8F9205
:104D00009F92AF92BF92CF92DF92EF92FF920F935A
:104D10001F93CF93DF93C1ECD1E088E7E82E82E0C8
:104D2000F82ED12C01E010E08991F894E82FE2955B
:104D3000EF70F0E021A18F70A80102C0440F551F51
:104D40008A95E2F7CA01922F982B91A392A18095A0
:104D5000892382A3789400C0E5ECF1E030E020E004
:104D6000C12C4191A42FA295AF70B0E090968C9188
:104D700090E04F7002C0959587954A95E2F780FDC7
:104D800049C0802F022E01C0880F0A94EAF7C82A72
:104D90002F5F3F4F2430310521F7FE01319780818D
:104DA0000E94E60E50EA5A95F1F7F7018081C81685
:104DB00099F1C08281E0D82AFFEFEF1AFF0A21E0C3
:104DC000C53CD20709F0B0CFDD2041F181E08093EE
:104DD00015020E94B81C90931402809313028091D4
:104DE0001302909114020E94110C0697D8F0809142
:104DF00078028093C602809179028093C7028091E5
:104E00007A028093C80280917B028093C90210923B
:104E1000150208C080E0BBCF80E0CDCF80911502A5
:104E20008111DDCF80915D0290915E020E94110C94
:104E3000893E934060F160918902C62FD0E06627D9
:104E400077276C1B7D0B072E000C880B990B0E949B
:104E5000B13227EA39E747E45DE30E943D334B0175
:104E60005C01BE01DD0F880B990B0E94B1329B01E2
:104E7000AC01C501B4010E9414320E9480326093DB
:104E800089020E94B81C90935E0280935D028D2D72
:104E9000DF91CF911F910F91FF90EF90DF90CF9016
:104EA000BF90AF909F908F900895CDB7DEB7A49735
:104EB0000FB6F894DEBF0FBECDBF10922303109241
:104EC00025031092240380EC8093E80386E293E0AC
:104ED0009093EA038093E9031092E7031092E603AC
:104EE0001092030310920203109205031092040320
:104EF0001092070310920603109209031092080300
:104F000010920B0310920A0310920D0310920C03DF
:104F100010920F0310920E031092110310921003BF
:104F2000109213031092120310921503109214039F
:104F3000109217031092160310921903109218037F
:104F400010921D0310921C038AE19BE09093FF02D4
:104F50008093FE0285E79BE090931F0380931E03DE
:104F600081EF9AE090931B0380931A0382EF9AE0FB
:104F7000909301038093000384B7877F84BF0FB6AB
:104F8000F894A895809160008861809360001092E9
:104F900060000FBE80E890E00FB6F8948093610047
:104FA000909361000FBE85B7806885BF85B7806824
:104FB00085BF8FEE9AE09093F1018093F0010E94FB
:104FC0003A090E942F0A8091E20084608093E200F7
:104FD00078948091F4028823A1F01091E9001F7069
:104FE0009091EC00892F817090FD80E8182B109231
:104FF000E9008091E80083FD0E946C0F1F70109300
:10500000E90082E084BD93E095BD9AEF97BD80935F
:105010006E0081E30E94E60E86E30E94E60E82E3C4
:105020000E94E60E83E30E94E60E86E60E94E60EEC
:1050300084E30E94E60E86EC0E94E60E87E90E9459
:10504000E60E109278021092C60210927902109227
:10505000C70210927A021092C80210927B0210923C
:10506000C90290E080E00E9476318A3E9E4F11F0A6
:105070000E946E1982E090E00E9468318093BF0226
:105080000E94881390937702809376020E947F2675
:105090008FE39CE90197F1F700C000000E947F2692
:1050A0008091C60280FF17C06FEF83E290E00E94FC
:1050B0007C316FEF84E290E00E947C316FEF85E2FB
:1050C00090E00E947C316FEF7FEF90E080E00E94E3
:1050D0009A310E94000C83E090E00E946831682FB2
:1050E00070E090E080E00E94BB0D83E290E00E94BF
:1050F0006831813209F0F0C684E290E00E946831A4
:10510000813109F0E9C685E290E00E94683186327B
:1051100009F0E2C681E08093B60280E28093F20358
:105120000E94B02F6DE070E087E499E00E941513B3
:10513000892BE9F58091B60263E070E081FD28C318
:1051400084E499E00E941513892B89F56DE070E0E5
:1051500084E399E00E941513892B49F50E94200CE5
:1051600060547B428E4F9F4F6093B8027093B90298
:105170008093BA029093BB02E5EFF3E080E092E007
:10518000DF019C011D9221503040E1F7F093FC05B6
:10519000E093FB058FEF9FEF9093F4038093F3036D
:1051A00081E08093BD028093BC021092B70280918F
:1051B0007C02811136C090E080E00E9476318A3E08
:1051C0009E4F21F00E946E190E94411C88E090E0E1
:1051D0000E9470316093CB027093CC028093CD0219
:1051E0009093CE026E7F71F40E94411C88E090E0A3
:1051F0000E9470316093CB027093CC028093CD02F9
:105200009093CE020E942C0E1092C5028091CB0288
:1052100080FF04C060E086950E943E1D81E080937F
:105220007C0287988F9A86988E9A8FB190E0880F2B
:10523000892F881F990B7E99AEC220E0822B809324
:10524000860288E291E09093880280938702F3E0DF
:105250002F2E312CEE24E394F12C0E947F26C82EB1
:1052600081110E94200CA6ECB2E0E0ECF2E010E02C
:1052700000E0902E8D919191981709F493C2982790
:10528000A12CBB24B394292F2B2109F486C2D82E3C
:10529000DB2088248394D11001C0812C0E94B81C8B
:1052A0008160D11010927D02A9829A828B829D83A7
:1052B0008C83CE0101960E94771EF801E054FD4FC9
:1052C0008081B826B0828091C5028823D1F1809177
:1052D000C402E091CB02E695E81BE09380028230A5
:1052E00009F074C2F0E0EB59F64FE4910E2F10E094
:1052F000EBE9AE2EE8E1BE2E80918102882361F0B9
:10530000109281020E94B81C90937F0280937E02CB
:1053100010928302109282020E94B81CE0917E02D9
:10532000F0917F028E1B9F0B8F3F9F4750F4E00F41
:10533000F11FF0937F02E0937E028EE792E0F50189
:105340000995E0918602EE0FEE0FE09386028FB191
:1053500090E0880F892F881F990B7E99A3C220E0C7
:10536000822BE82BE0938602EF70F0E0E753FE4FCC
:10537000808190918502890F80938502D12C8430A1
:1053800054F0809184028F5F809384028AEA0E94A5
:105390001D1BDD24D394809185028D3F54F48091B0
:1053A000840281508093840289EA0E941D1BDD24BF
:1053B000D39480918502082E000C990B64E070E074
:1053C0000E94B93080938502D1100E94200C8091F8
:1053D000BD02882309F462C185EF93E09093FC0538
:1053E0008093FB054091EE035091EF036091F00331
:1053F0007091F103CB01AA27BB270097A105B10546
:1054000009F453C2AC01BD0180E1052F162F272FEF
:105410003327011511052105310519F0885FB90100
:10542000A8018A019B01E4E0369527951795079519
:10543000EA95D1F7011511052105310519F08C5FA9
:10544000B901A8018A019B0192E03695279517952D
:1054500007959A95D1F7011511052105310519F028
:105460008E5FB901A8017695679557954795452BAD
:10547000462B472B09F08F5F813009F41DC288232A
:1054800009F415C2823009F41AC2833009F41AC231
:1054900085EA99E00E94D51281E00E94E312E09132
:1054A0008702F091880210E0309729F00190F08196
:1054B000E02D0995182F8FE999E00E94D51289E90E
:1054C00099E00E94D51283E999E00E94D51287E8FD
:1054D00099E010FF02C08DE899E00E94D5128BE799
:1054E00099E011FF02C081E899E00E94D51289E697
:1054F00099E012FF02C08FE699E00E94D51285E77D
:1055000099E00E94D5128091F203FCE08F9FC001C8
:105510001124811522E0920714F090E080E08B5076
:105520009C4F9093FC058093FB0580918902882312
:1055300009F4CBC10E9460134091920250919302F2
:1055400060919402709195022FB7F89480918A022D
:1055500090918B02A0918C02B0918D022FBF841B81
:10556000950BA60BB70B87399105A105B10560F026
:105570000E94200C60939202709393028093940295
:10558000909395020E94FD0E0E94200C60938E0263
:1055900070938F0280939002909391028091BD024C
:1055A000882309F462C02091F3033091F40321159C
:1055B000310509F45AC08091B702811156C0082FF5
:1055C00010E044244394512C082E02C0440C551C76
:1055D0000A94E2F7A90144215521452B09F4BEC1E3
:1055E0009091B60290FDBCC18295880F8076809321
:1055F00017019801369527953695279520931A011E
:10560000815E8093180110921B0124E630E047E090
:1056100050E065E171E088E70E944130892B29F56F
:10562000A801F5E0440F551FFA95E1F78091B60205
:1056300080FDA4C14B505C4F04E610E020E230E056
:1056400060E488E70E946830892B79F40E94601337
:10565000C201809590954090F3035090F403482246
:1056600059225092F4034092F3038091BC028823A4
:10567000A9F00E94200C0091B8021091B90220916B
:10568000BA023091BB02601B710B820B930B6F3F10
:105690007F4F8F4F9F4710F40E944513C11001C0E8
:1056A000D1100E946013E0911E03F0911F03309708
:1056B00019F08EEF92E009959FB7F8940091E703F7
:1056C0008091E603081708F4C0C1081B9FBFD12CC6
:1056D000C12C10E054E0A52E99249394C016D10655
:1056E00008F4B7C10E94C50D9091BE02891721F040
:1056F0000E94C50D8093BE028091F4028430E1F4D3
:1057000080911D018F708093E9009091E80090FFD7
:1057100013C09091F402943079F48093E900909151
:10572000F3008091F200892B39F08091E8008E77A8
:105730008093E8000E9459098091F402843009F0B6
:105740008CCD83E08093E9008091E80082FF85CDD5
:105750008091E80090E085FF09C050E040E060E201
:1057600070E0CE0101960E94B40991E08091E800BA
:105770008B778093E800992309F46FCDE981E1509C
:10578000E33108F072C2F0E0EB50FC4C0C94CD30E9
:1057900081E499E0D7CC22E051CDA394BB0C24E066
:1057A000A21271CD0F5F1F4F0430110509F061CDBA
:1057B0000E94B81C2FEF29832A831B8281609D835E
:1057C0008C83CE0101960E94771E7DCD863059F4E0
:1057D000F0E0EE59F64FE4910E2F10E07FEAA72E8D
:1057E00078E1B72E89CD893061F4E695F0E0E15A91
:1057F000F64FE4910E2F10E063E9A62E66E1B62E77
:105800007BCD8F3061F4E695F0E0E45AF64FE491F9
:105810000E2F10E05DEBA52E56E1B52E6DCD853136
:1058200059F4F0E0E75AF64FE4910E2F10E041E210
:10583000A42E47E1B42E60CD08E210E09FE6A92E29
:1058400097E1B92E883109F457CD833249F4E7E561
:10585000F9E00591149132E4A32E38E1B32E4CCD3A
:105860008432C9F000ED17E0BEEEAB2EBAE0BB2EDD
:10587000853209F041CD8E2F63E00E949930E92FE7
:10588000F0E0EC5AF64FE4910E2F10E02FEBA22E31
:1058900028E1B22E31CD04EF11E088EFA82E87E188
:1058A000B82E2ACD22E030E05BCD80E0AECD8DEB8E
:1058B00099E00E94D512ECCD87EB99E0FACF81EB0D
:1058C00099E0F7CF8BEA99E0F4CF40918E025091A6
:1058D0008F0260919002709191022FB7F89480919D
:1058E0008A0290918B02A0918C02B0918D022FBF01
:1058F000841B950BA60BB70B813C944DA140B105C1
:1059000018F00E9445134ACE4091920250919302A2
:1059100060919402709195022FB7F89480918A0259
:1059200090918B02A0918C02B0918D022FBF841BAD
:10593000950BA60BB70B87399105A105B10508F4A6
:105940002DCE0E94200C609392027093930280935C
:105950009402909395020E94FD0E20CE8F5F2FCE71
:10596000880F880F880F8093170110921A01895FA2
:105970008093180183E080931B0147CEE6E9F2E0B3
:1059800080E2DF011D928A95E9F7EDEDF1E0FCA3DD
:10599000EBA369ED71E0E7E08E2EEBA1FCA1A191F4
:1059A000FCA3EBA3FB018191BF01840F952F911DF7
:1059B0009C012B503C4F3AA329A3EA2FF0E0EA5672
:1059C000FD4F90E080E0682C681A99249394082E8B
:1059D00001C0990C0A94EAF709A11AA1A12CD801D7
:1059E000BD908D01B920262D2A192770722E022E06
:1059F000000C330BBB2D01C0BB0F7A94EAF77B2E52
:105A00003195219531092770332701C0B6942A9525
:105A1000EAF77B28B0807B287082A39428E0A2124A
:105A2000DECF019631968830910569F681EE91E0DE
:105A3000ABA1BCA18A179B0709F0AFCF04E610E029
:105A400020E230E046E952E0FBCD2091E803020F6E
:105A50003CCE8091E60390E06091E80370E00E9404
:105A6000B9302091E9033091EA03280F391FF90179
:105A7000B08080902303F7EFFB15E8F490922303A6
:105A800020E040E06B2D81E090E00E944808809289
:105A900023032FB7F8948091E60390E0019660917C
:105AA000E80370E00E94B9308093E6032FBFBFEF98
:105AB000CB1ADB0A13CEB7FE52C024E0821631F0B7
:105AC000B0922003F0922503E09224038B2D0E94D4
:105AD000F70A813069F08823D1F08230A9F0833051
